:020000040800F2
:10000000C8E6002041910008ED030008EF03000856
:10001000F1030008F3030008F503000800000000E6
:10002000000000000000000000000000F7030008CE
:10003000F903000800000000376101081D8F000867
:100040005B9100085B9100085B9100085B910008E0
:100050005B9100085B9100085B9100085B910008D0
:100060005B9100085B9100085B9100085B910008C0
:100070005B9100085B9100085B9100085B910008B0
:100080005B9100085B9100085B9100085B910008A0
:100090005B9100085B9100085B9100085B91000890
:1000A0005B9100085B9100085B9100085B91000880
:1000B0005B9100085B5F00085B9100085B910008A2
:1000C0005B9100085B9100085B9100085B91000860
:1000D0005B910008D19000085B9100085B910008DB
:1000E0005B9100085B9100085B9100085B91000840
:1000F0005B9100085B9100085B9100085B91000830
:100100005B910008F97400085B9100085B9100089E
:100110005B9100085B910008CD5F00085B910008CF
:100120005B9100085B9100085B9100085B910008FF
:10013000DFF80CD015F0F6FD004800478B020008F0
:10014000C8E600200EB58F4C02AD08264FF4FA77B2
:10015000D4F8980158B10020C4F898010022CDE9E4
:1001600000653B461146104610F03FF9F0E70120CC
:10017000F2E70EB502AD082419F0FCFA00220523BF
:1001800011461046CDE9004510F02FF9F4E710B5FF
:1001900008F028FEBDE810404FF47A7017F0A0BEBA
:1001A0002DE9F0438BB011F04EFB09A80EF0D1FD04
:1001B000012109AA08460CF073F90121402009F039
:1001C00081FD18F0DDFA11F013FC6F4D2978491C00
:1001D000297011F011FC00240327CDE9064709AE70
:1001E0004FF4806066210896CDE90210674A0594B5
:1001F0000820CDE9000204942346AFF26D02634863
:1002000063A1C4380FF040F8CDE9064704204FF051
:100210000C09634A089605948DE805024FF08008A2
:100220000023AFF2B1025E48CDE903845DA1C4387A
:100230000FF02AF8CDE9064736205D4A0896059466
:100240008DE805020023AFF203125948CDE903847B
:1002500058A1C4380FF018F809A959480FF011FE39
:1002600011F0C6FB2978491E11F0FF01297009D150
:100270005449098831B111F0BFFB0CF08BFC0BB075
:10028000BDE8F08311F0B8FBF9E78AB008F054FE3E
:100290004FF4A06009F048F84FF4E13008F0CAFECE
:1002A00000F056F900F097FE00F06EF907F07AFBC7
:1002B00003F0ECFF002008F064FF012008F061FF6C
:1002C00014F042FA404C012240A1206812F0EEFCEA
:1002D00001223FA1606812F0E9FC14F008FDB8B1FA
:1002E00010203CA1CDE900010346C82246211E2072
:1002F00003F0A1FF35A310225A211E2014F0ADFBFC
:100300004FF4FA6008F05DFE4FF6FF7000F031FE2A
:1003100005F041FD09A80BF053FF11F069FB1A4CE1
:100320002178491C217011F067FB002006AB09AA57
:100330000321059083E8070080220C23CDE90232D7
:100340001F4D0490C4350346AFF2AB12CDE9001542
:1003500023A11B480EF098FF11F04AFB2178491E9B
:1003600011F0FF01217007D11649098821B111F060
:1003700043FB0CF00FFC01E011F03EFB09A80CF070
:100380004EF9FEE700802342DC02002060100020CE
:10039000456D77696E64656D6F207461736B0000E5
:1003A000D80A0020546F756368207461736B000075
:1003B0009C0D00204C656430207461736B0000005C
:1003C00050070020A00200207C030020303A0000EB
:1003D000313A0000466F6E74204572726F722100D0
:1003E0007374617274207461736B00007047FEE770
:1003F000FEE7FEE7FEE77047704700000CB50021FE
:100400004B4801910091026842F4803202604FF43F
:10041000A063026802F400320092019A521C019219
:10042000009A12B9019A9A42F3D10268920333D525
:10043000012100913F490A6842F010020A600A68EF
:1004400022F003020A600A6842F002020A60416870
:10045000416041684160416841F4806141604168A8
:1004600021F47C114160416841F4E8114160016868
:1004700041F08071016001688901FCD5416821F07B
:1004800003014160416841F0020141604168C1F3EC
:1004900081010229FAD10CBD00910CBD244810B590
:1004A000016841F0010101604168234A1140416047
:1004B0000168224A11400160016821F48021016035
:1004C000416821F4FE0141604FF41F018160FFF794
:1004D00095FF1B494FF00060086010BD144910B52E
:1004E0004868184A10F00C03174803D0042B01D0B9
:1004F000082B0AD002604968134AC1F30311121D88
:10050000515C0268CA40026010BD4A684B6802F440
:1005100070124FF0020413F4803F04EB924202D0B9
:100520004B689B0301D5094B00E0064B5A43E1E7BA
:1005300000100240002002400000FFF8FFFFF6FE1E
:1005400008ED00E000127A000000002000093D00E4
:1005500038B50121802009F0BEFB4FF4F864ADF8F6
:10056000004010208DF803000320064D8DF8020096
:100570006946284609F0C5F92146284609F02FFAB0
:1005800038BD0000001C014008B50121342009F0ED
:10059000A2FB40F20110ADF8000048208DF80300E6
:1005A00069463B4809F0ADF90820ADF800006946FE
:1005B000384809F0A6F94FF40050ADF8000069463C
:1005C000354809F09EF908BD2DE9F0470126334C66
:1005D000DFF8C080DFF8C0A02D4D37024FF400597E
:1005E00008B1267001E0207898B10121284609F071
:1005F000E2F9A8B13946284609F0DDF980B10821B1
:10060000404609F0D8F958B14946504609F0D3F9A7
:1006100030B10121284609F0CEF9012823D035E078
:100620000A2008F0CEFC002020700121284609F0A5
:10063000C2F978B13946284609F0BDF968B10821F8
:10064000404609F0B8F950B14946504609F0B3F9AF
:1006500038B11BE00420BDE8F0870220FBE703204F
:10066000F9E70120F7E73946284609F0A4F90128FF
:100670000CD10821404609F09EF9012806D14946CF
:10068000504609F098F9012800D126700020E2E7D1
:100690000008014000140140001001401400002037
:1006A000FE4908807047FD49891C08807047FB4857
:1006B00008B5801C0088ADF80000BDF8000008BD3A
:1006C000F64A1080901C01807047F44910B50880EC
:1006D000052008F057FCBDE81040E8E7F048EF4976
:1006E000008908807047ED49891C08807047C0F375
:1006F0004511C20AC00200EB4110104480B270479D
:10070000401EC0B2FCD270472DE9F04FE44E0C46BB
:1007100001464FEA102C3046B588DFF880B3828955
:10072000230A4089A5F513470BF1020A413F1CD06B
:10073000A5F5A647103F18D0B64696F8069036881D
:10074000A5F5D047A6EB0108A8F10108043F13D096
:10075000A5F5C857633F23D0A5F5AA477646103FB5
:100760004ED0B9F1010F60D061E05D46ABF80000FA
:100770005046AAF800C00BE0B9F1010F01D11FFAF1
:1007800088F15D46ABF800000E0A5046AAF80060FA
:10079000C9B201802A800380E1B20180BDE8F08FF8
:1007A000B9F1000F1DD0ABF800005046AAF800C008
:1007B000C9B2AAF80010761E310AAAF80010F1B2E8
:1007C0000180ABF800205046AAF80030E1B2AAF848
:1007D0000010BEF80210491E0A0AAAF80020C9B289
:1007E000DBE71FFA88F1ABF8000000265046AAF8B4
:1007F0000060AAF800600E0AAAF80060C9B2DFE73C
:10080000ABF80000AAF800C0401CABF80000C8B26A
:10081000AAF80000ABF80020AAF80030521CABF890
:100820000020E0B2AAF80000B8E71FFA88F1FFF74D
:1008300047FFB0892146BDE8F04F41E7F0B5984C3D
:10084000002635462288824202D962888A4201D82F
:100850000020F0BDFFF758FFA08849F241318F4BCF
:1008600041F6631C45F2103245F21057884208D019
:10087000A0F5D04EBEF1040E03D0904201D06045E9
:1008800002D14FF02E0E06E0B84202D14FF4385E8E
:1008900001E04FF0220EA3F800E0A0F51343203B47
:1008A00003D10120401EC0B2FCD2FFF700FFA38895
:1008B0006345CED00120401EC0B2FCD2FFF7F7FE48
:1008C0008446A088884203D0904201D0B8420CD11F
:1008D0000120401EC0B2FCD2FFF7E9FE05460CF035
:1008E000FF004FF6FF7303EA0026A088A0F513432C
:1008F000253B1FD0A0F58A43353B1BD0A0F58A438A
:10090000313B17D0A0F53543053B13D0A0F5454347
:10091000053B0FD0884203D0904201D0B8420BD1A2
:100920004FEADC204FEAC020B10A40EA411040EA19
:10093000D520F0BD6046F0BDBDE8F0406046D6E68B
:10094000574856498088A0F51342413A13D0A0F584
:10095000D042043A0FD0A0F5A642103A0BD0A0F531
:10096000C852633A07D0A0F5AA42103A05D040F227
:1009700073110720A4E6292001E04FF424500880D9
:100980007047474845498088A0F51342413A12D044
:10099000A0F5D042043A0ED0A0F5A642103A0AD0F3
:1009A000A0F5C852633A06D0A0F5AA42103A04D086
:1009B0000021072084E6282001E04FF42050088021
:1009C0007047F0B5364C00232146A579898846F654
:1009D000040241F66316012D01D02DB11DE09142B4
:1009E0001BD0B14202D118E0B14216D1082814D26E
:1009F000DFE800F00406080A0C0E101206200CE0D6
:100A000007200AE0042008E0052006E0012004E0B9
:100A1000002002E0032000E00220A1F5134C45F283
:100A2000103745F21055BCF1410C07D0914205D06A
:100A3000B94203D0A94201D0B1427AD1082812D2DA
:100A4000DFE800F0110406080A0C0E1080230AE00B
:100A5000402308E0C02306E0202304E0602302E0F6
:100A6000A02300E0E023A94202D14FF4585000E057
:100A70003620B94205D0A94203D0B14201D043F09B
:100A80000803914201D143F002031946FFF718FE13
:100A9000A088B0420FD09906218803E0FE07006CC1
:100AA00060200020628802D5914202D303E0914287
:100AB00001D922806180FE498A1CA8426089088091
:100AC00021D100231380431C0B8000231380831C3F
:100AD0000B8023885B1E1D0A1580C01C0880D8B2BD
:100AE0001080A089088000231380431C0B80002302
:100AF0001380831C0B8063885B1E1C0A1480C01C3F
:100B00000880D8B212E00020108010802088401E9B
:100B1000030A1380C0B21080A089088000201080D2
:100B200010806088401E010A1180C0B21080F0BDA4
:100B3000FFE7082812D2DFE800F0040608110A0CCB
:100B40000E1030230AE0102308E0202306E03823AB
:100B500004E0282302E0182300E00823BDE8F04069
:100B6000032043F48051ABE500B5FFF7CDFDFFF75F
:100B7000B5FDD048CE49891C0088088000BD2DE90C
:100B8000F04FDFF834830C460146060A4046934690
:100B9000B8F80450DFF818A38289230A4089A5F524
:100BA00013470AF10209413F19D0A5F5A647103FA6
:100BB00015D0A5F5AA47103F15D04746A5F5C85C46
:100BC000BE793F887F1A7F1EBCF1630C20D0A5F54B
:100BD000D04CBCF1040C33D0012E43D043E0554639
:100BE000AAF8000033E0AAF80000A9F80060401C51
:100BF000AAF80000C8B2A9F80000AAF80020A9F8D5
:100C00000030521CAAF80020E0B2A9F8000031E040
:100C100006B9B9B2AAF800000D0A4846A9F8005072
:100C2000CFB2A9F80070A9F80050C9B2A9F8001015
:100C3000AAF80020A9F80030E1B2A9F800100DE0F0
:100C4000012E00D1B9B25546AAF800000E0A484656
:100C5000A9F80060C9B2A9F800102A800380E1B2A7
:100C6000018007E0B9B2FFF72BFDB8F80C00214670
:100C7000FFF726FDB8F80810AAF80010A9F800B090
:100C80008CE58B4A10B5BE211180941C0521218072
:100C900014F08EFD4FF06632884B14F0F8FC14F01F
:100CA000C1FD208001202080FF20208000202080A6
:100CB000208010BD2DE9F04F7F492A242B258988FB
:100CC00045F2105A4FF4305B4FF4285E4FF44876EB
:100CD0004FF0F00C49F241394FF4A07345F2103750
:100CE0004FF4F07280B174484FF00108494580F824
:100CF00006800380A0F802C001D0B9423ED12C2664
:100D000006814481858157E06B484FF000084945D2
:100D100080F80680A0F800C0438006D0A1F5D04C32
:100D2000BCF1040C01D0B9420CD12C2606814481BF
:100D3000A1F5D0448581043C01D0B94244D103805F
:100D4000428041E0514507D1A0F808B0A0F80AE080
:100D50004FF42C5181810EE0A1F5C853633B06D0BE
:100D60002221018120214181212181812CE02C211E
:100D70000181458184810280468025E0A1F5D04C27
:100D8000BCF1040C09D051450BD1A0F808B0A0F873
:100D90000AE04FF42C54848120E02C260681458102
:100DA00009E0A1F5C85CBCF1630C11D022240481D8
:100DB0002124448120248481A1F5D044043C01D025
:100DC000B94201D102804380BDE8F04F0020F8E530
:100DD0004FF02C0CA0F808C0448185810680428029
:100DE000EAE72DE9FC4F0E46914605464844194472
:100DF000401E491E84B288B2009105EB0901491ECC
:100E0000C1F3072EDFF8B0C000994FEA152AC1F3ED
:100E1000072B6146BCF804308A894989A3F513473A
:100E20004FEA1628413F10D0A3F5A647103F0CD03B
:100E3000A3F5D047043F08D09CF8067041F6631C28
:100E40000197012F17D1634515D1194B1980991CB2
:100E5000A1F800A0EDB20D80A1F800E0E4B20C8092
:100E60001A80A1F80080F2B20A80A1F800B0C0B2E6
:100E70000880BDE8FC8F104F63453F8826D1A7EB63
:100E80000900401B83B20A4D009884B22980190AD8
:100E9000A81C0180D9B2018003EB0901491E0B0A8D
:100EA0000380C9B201802A80A0F80080F1B207E077
:100EB000FE07006C160000206020002066660440DB
:100EC0000180210A0180E1B20180D2E7A3F5A04CA4
:100ED000BCF5A26C21D00199012941D023462946B5
:100EE0003446074650204FF051094FF052084FF05A
:100EF000530CFFF7E5FB19464846FFF7E1FB214697
:100F00004046FFF7DDFB39466046FFF7D9FB314627
:100F10002846BDE8FC4FFFF7F7BBFE4B19809F1C2E
:100F2000A7F800A001F1010CA3F800C0EDB23D80CC
:100F30008D1C1D80A7F800E0C91C1980E1B2398022
:100F40001A80A7F80080511C1980F1B23980911CD9
:100F50001980A7F800B0D21C1A80C0B2388088E788
:100F60000346381B401E84B2781B401E314687B2B0
:100F7000B8E72DE9F043E84C8146002520886688D3
:100F80004643A088A0F5D041043902D1A0790128B8
:100F900009D000210846FFF7B7FB00BFFFF79EFB13
:100FA000DC48801C13E00020A0712A2767814FF0E5
:100FB0002B08A4F80C800146FFF7A6FB0120A071C6
:100FC000A4F80A80A781E9E7A0F800906D1CB5425B
:100FD000FAD3BDE8F0832DE9F04F01210E02A1B054
:100FE000304608F06FFE012140F2691008F073FEF0
:100FF0003501ADF840504FF010088DF843800324C0
:101000008DF8424010A9C54808F07BFC4CF23370C3
:10101000ADF8400018278DF843708DF8424010A9B4
:10102000BF4808F06EFC4FF68070ADF840008DF8B8
:1010300043708DF8424010A9BA4808F062FC681C61
:10104000ADF840008DF843708DF8424010A9B648C5
:1010500008F057FC0120119000200F21CDE912016A
:1010600014901590169017901890CDE919041B90C4
:101070001C9006211E90CDE90208CDE900101D90BC
:101080000490CDE90805069005900790A900CDE9E8
:101090000A010C9011A80D9018A80E90684608F04F
:1010A000D0F90121062008F001FB322007F089FF6A
:1010B0000020FFF70AFB984D964C49F24139A88071
:1010C00046F6040A45F2103B45F210574FF6FF78FA
:1010D000FF2804D3404502D0B0F5134F70D1D32080
:1010E0002080FFF7E4FAA880FFF7E1FAA880FFF775
:1010F000DEFA08EA00204146A880FFF7D8FAAA885D
:101100001043A88048455BD0BF202080FFF7CFFA6E
:10111000A880FFF7CCFAA880FFF7C9FAA880FFF7EC
:10112000C6FA01EA0020A880FFF7C1FAAA88104396
:10113000A880504544D0D4202080FFF7B8FAA8807A
:10114000FFF7B5FAA880FFF7B2FA01EA0020A880FD
:10115000FFF7ADFAAA881043A880584530D04FF465
:101160005A402080FFF7A3FAA8804FF45B4020800C
:10117000FFF79DFA01EA0020A8804FF45C40208030
:10118000FFF795FAAA881043A880B0F5004F7DD0EC
:10119000B84215D0A1202080FFF789FAA880FFF778
:1011A00086FA01EA0020A880FFF781FAA98808439F
:1011B000A0F5AE41A880613902D141F66310A88044
:1011C000A9885AA023F0B6FCA888524DAD1C48450A
:1011D0007ED1CF20208000202880C1202880302090
:1011E0002880ED2020806420288003202880122081
:1011F000288081202880E8202080852028801020D9
:1012000028807A202880CB202080392028802C201C
:101210002880002028803420288002202880F72081
:10122000208020202880EA2020800020288028801C
:10123000C02020801B202880C12020800120288001
:10124000C5202080302028802880C7202080B7201B
:10125000288036202080482028803A202080552071
:101260002880B1202080002028801A202880B620E5
:1012700020800A202880A2202880F22020800020C0
:101280002880262020800120288000E066E0E020E1
:1012900020800F2028802A202880282028800820CD
:1012A00028800E2028800820288054202880A9200B
:1012B0002880432028800A2028800F2028800020B2
:1012C0002880288028802880E1202080002000E0DD
:1012D00046E02880152028801720288007202880B5
:1012E00011202880062028802B2028805620288046
:1012F0003C20288005202880102028800F2028806E
:101300003F20288028800F2028802B20208000204C
:10131000288013E0FE07006C60200020000C0140D4
:10132000001401400018014000200140204C4344BB
:101330002049443A25780D0A000000002880012049
:1013400028803F2028802A20208000202880288094
:101350002880EF202880112020806EE0AF802FE7CA
:10136000504571D111202080142007F02AFED02092
:10137000208007202880422028801D202880D1201E
:101380002080002028801A20288009202880D22050
:1013900020800120288022202880C020208010204A
:1013A00028803B20288000202880022028801120CF
:1013B0002880C520208003202880C820208000208D
:1013C00028802520288021202880052028800020B2
:1013D00028800A20288065202880252028807720E2
:1013E0002880502028800F20288000202880F82086
:1013F000208001202880FE202080002028800220DC
:1014000028802020208036202080082028803A2034
:101410002080552028802B202080002028802880B4
:10142000012028803F2028802A202080002028803A
:10143000288001202880DF202880782007F0C1FD47
:10144000292001F02EBCFFE758457DD1ED202080FA
:1014500001202880FE202880EE202080DE202880A9
:1014600021202880F120208001202880DF2020807A
:1014700010202880C42020808F202880C620208033
:1014800000202880E220288028802880BF2020801B
:10149000AA202880B02020800D20288000202880CD
:1014A0000D202880002028801120288000202880FE
:1014B00019202880002028802120288000202880D2
:1014C0002D202880002028803D2028800020288092
:1014D0005D202880002028805D2028800020288032
:1014E000B120208080202880002028808B20288028
:1014F000002028809620288000202880B22020808C
:1015000000202880288002202880002028800320B6
:10151000288000202880B320208000202880288078
:10152000288028802880288028802880288028807B
:10153000288028802880288028802880288028806B
:1015400028802880288000E0FEE3288028802880EA
:10155000B42020808B20288000202880962028809E
:1015600000202880A120288000202880B52020800D
:101570000220288000202880032028800020288046
:101580000420288000202880B62020800020288089
:101590002880B72020800020288028803F202880B5
:1015A000002028805E202880002028806420288059
:1015B000002028808C20288000202880AC202880D3
:1015C00000202880DC2028800020288070202880AF
:1015D000002028809020288000202880EB20288070
:1015E00000202880DC20288000202880B82020804F
:1015F0000020288028802880288028802880288033
:101600002880BA202080242028800020288028805C
:101610002880C1202080202028800020288054207D
:10162000288000202880FF20288000202880C220D9
:1016300020800A2028800020288004202880002084
:101640002880C32020803C202880002028803A2049
:1016500028800020288039202880002028803720FA
:101660002880002028803C202880002028803620E8
:1016700028800020288032202880002028802F20E9
:101680002880002028802C202880002028802920E5
:1016900028800020288026202880002028802420E0
:1016A00028800020288024202880002028802320D3
:1016B0002880002028803C20288000202880362098
:1016C00028800020288032202880002028802F2099
:1016D0002880002028802C20288000202880292095
:1016E0002880002028802620288000202880242090
:1016F0002880002028802420288000202880232083
:10170000288000202880C42020806220288000209B
:101710002880052028800020288084202880002020
:101720002880F02028800020288018202880002091
:101730002880A420288000202880182028800020CD
:10174000288050202880002028800C20288000201D
:1017500028801720288000202880952028800020BD
:101760002880F320288000202880E6202880002080
:101770002880C52020803220288000202880442016
:10178000288000202880652028800020288076205E
:101790002880002028808820288000202880C620DB
:1017A00020802020288000202880172028800020EA
:1017B00028800120288000202880C7202080002049
:1017C0002880288028802880C82020800020288029
:1017D000288028802880C920208000202880288018
:1017E00028802880288028802880288028802880B9
:1017F000288028802880288028802880E020208059
:1018000016202880002028801C2028800020288086
:101810002120288000202880362028800020288051
:101820004620288000202880522028800020288000
:1018300064202880002028807A20288000202880AA
:101840008B20288000202880992028800020288054
:10185000A820288000202880B92028800020288007
:10186000C420288000202880CA20288000202880CA
:10187000D220288000202880D9202880002028809D
:10188000E020288000202880F32028800020288065
:10189000E120208016202880002028801C2028801D
:1018A00000202880222028800020288036202880C0
:1018B0000020288045202880002028805220288071
:1018C0000020288064202880002028807A2028801A
:1018D000002028808B2028800020288099202880C4
:1018E00000202880A820288000202880B920288077
:1018F00000202880C420288000202880CA2028803A
:1019000000202880D220288000202880D82028800D
:1019100000202880E020288000202880F3202880D4
:1019200000202880E22020800520288000202880B8
:101930000B202880002028801B2028800020288061
:1019400034202880002028804420288000202880FF
:101950004F202880002028806120288000202880B7
:101960007920288000202880882028800020288056
:101970009720288000202880A6202880002028800A
:10198000B720288000202880C220288000202880BE
:10199000C720288000202880D1202880002028808F
:1019A000D620288000202880DD2028800020288064
:1019B000F320288000202880E32020800520288034
:1019C000002028800A202880002028801C202880D1
:1019D0000020288033202880002028804420288070
:1019E0000020288050202880002028806220288025
:1019F00000202880782028800020288088202880C7
:101A0000002028809720288000202880A620288079
:101A100000202880B720288000202880C22028802D
:101A200000202880C720288000202880D1202880FE
:101A300000202880D520288000202880DD202880D4
:101A400000202880F320288000202880E4202080A7
:101A50000120288000202880012028800020288064
:101A600002202880002028802A202880002028802A
:101A70003C202880002028804B20288000202880BF
:101A80005D20288000202880742028800020288065
:101A9000842028800020288093202880002028800F
:101AA000A220288000202880B320288000202880C1
:101AB000BE20288000202880C42028800020288084
:101AC000CD20288000202880D32028800020288056
:101AD000DD20288000202880F32028800020288016
:101AE000E52020800020288028802880288002206F
:101AF00028800020288029202880002028803C2061
:101B00002880002028804B202880002028805D200D
:101B100028800020288074202880002028808420AD
:101B20002880002028809320288000202880A22060
:101B3000288000202880B320288000202880BE2014
:101B4000288000202880C420288000202880CD20E4
:101B5000288000202880D320288000202880DC20B6
:101B6000288000202880F320288000202880E6207C
:101B70002080112028800020288034202880002008
:101B80002880562028800020288076202880002069
:101B90002880772028800020288066202880002048
:101BA00028808820288000202880992028800020F4
:101BB0002880BB20288000202880992028800020B1
:101BC000288066202880002028805520288000203A
:101BD000288055202880002028804520288000204B
:101BE000288043202880002028804420288000204E
:101BF0002880E7202080322028800020288055205F
:101C000028800020288076202880002028806620D8
:101C100028800020288067202880002028806720D6
:101C20002880002028808720288000202880992074
:101C3000288000202880BB20288000202880992030
:101C400028800020288077202880002028804420B9
:101C500028800020288056202880002028802320EB
:101C600028800020288033202880002028804520DC
:101C7000288000202880E8202080002028802880DC
:101C80009920288000202880872028800020288014
:101C90008820288000202880772028800020288025
:101CA0006620288000202880882028800020288026
:101CB000AA20288000202880BB202880002028809F
:101CC00099202880002028806620288000202880F5
:101CD000552028800020288055202880002028803A
:101CE000442028800020288044202880002028804C
:101CF0005520288000202880E9202080AA202880E4
:101D000000202880288028802080AA202880CF20BA
:101D10002080002028802880288028802880288013
:101D20002880288028802880288028802880288073
:101D3000288028802880F0202080002028805020C3
:101D400028800020288000E02CE028802880F320D4
:101D5000208000202880F920208006202880102064
:101D6000288029202880002028803A2020805520A3
:101D7000288011202080642007F023F9292020806A
:101D8000352020800020288051202080FF202880BE
:101D9000532020802C2028805520208082202880DD
:101DA0002C20FDE3B8427CD14FF4704355211846F6
:101DB000FEF786FC4FF20105AA212846FEF780FCBB
:101DC0006E1C52213046FEF77BFCAF1C08213846C2
:101DD000FEF776FC4FF2040C01216046FEF770FC22
:101DE0000D214FF43040FEF76BFC0D214BF201004A
:101DF000FEF766FC0D214BF20200FEF761FC4FF48A
:101E0000364934214846FEF75BFC34214BF2016031
:101E1000FEF756FC34214BF20260FEF751FC4FF402
:101E2000314A0D215046FEF74BFC4BF2011B0D21B0
:101E30005846FEF745FC0D214BF20210FEF740FC20
:101E400034214FF43740FEF73BFC34214BF2017054
:101E5000FEF736FC34214BF20270FEF731FC002114
:101E60004FF43240FEF72CFC00214BF20120FEF72C
:101E700027FC00214BF20220FEF722FC24214FF424
:101E80003840FEF71DFC24214BF60100FEF718FC3C
:101E900024214BF60200FEF713FC01214FF43F40D2
:101EA00000E0FCE3FEF70CFC0F214FF43340FEF79B
:101EB00007FC0F214BF20130FEF702FC0F214BF221
:101EC0000230FEF7FDFB34214FF43940FEF7F8FBFA
:101ED00034214BF60110FEF7F3FB34214BF60210D0
:101EE000FEF7EEFB08214FF43540FEF7E9FB082131
:101EF0004BF20150FEF7E4FB08214BF20250FEF7D3
:101F0000DFFB03214FF44240FEF7DAFB24214FF4BC
:101F10003A40FEF7D5FB24214BF60120FEF7D0FB1B
:101F200024214BF60220FEF7CBFB00214FF43C406E
:101F3000FEF7C6FB78214BF60140FEF7C1FB0021FE
:101F40004BF60240FEF7BCFB00214FF43D40FEF78C
:101F5000B7FB78214BF60150FEF7B2FB00214BF6A0
:101F60000250FEF7ADFB00214FF43E40FEF7A8FB08
:101F700064214BF60160FEF7A3FB00214FF45140B2
:101F8000FEF79EFB33214DF20110FEF799FB002175
:101F90004DF20210FEF794FB34214DF20310FEF7D0
:101FA0008FFB00214DF20410FEF78AFB3A214DF21F
:101FB0000510FEF785FB00214DF20610FEF780FBB1
:101FC0004A214DF20710FEF77BFB00214DF208106D
:101FD000FEF776FB5C214DF20910FEF771FB002144
:101FE0004DF20A10FEF76CFB81214DF20B10FEF74B
:101FF00067FB00214DF20C10FEF762FBA6214DF2AB
:102000000D10FEF75DFB00214DF20E10FEF758FBA0
:10201000E5214DF20F10FEF753FB01214DF2101098
:10202000FEF74EFB13214DF21110FEF749FB012183
:102030004DF21210FEF744FB54214DF21310FEF73F
:102040003FFB01214DF21410FEF73AFB82214DF2C5
:102050001510FEF735FB01214DF21610FEF730FB8F
:10206000CA214DF21710FEF72BFB02214DF218107A
:10207000FEF726FB00214DF21910FEF721FB02218D
:102080004DF21A10FEF71CFB01214DF21B10FEF75A
:1020900017FB02214DF21C10FEF712FB34214DF20A
:1020A0001D10FEF70DFB02214DF21E10FEF708FB7E
:1020B00067214DF21F10FEF703FB02214DF22010A5
:1020C000FEF7FEFA84214DF22110FEF7F9FA022103
:1020D0004DF22210FEF7F4FAA4214DF22310FEF780
:1020E000EFFA02214DF22410FEF7EAFAB7214DF281
:1020F0002510FEF7E5FA02214DF22610FEF7E0FA70
:10210000CF214DF22710FEF7DBFA02214DF2281005
:10211000FEF7D6FADE214DF22910FEF7D1FA0221A0
:102120004DF22A10FEF7CCFAF2214DF22B10FEF7F9
:10213000C7FA02214DF22C10FEF7C2FAFE214DF231
:102140002D10FEF7BDFA03214DF22E10FEF7B8FA5E
:1021500010214DF22F10FEF7B3FA03214DF230108B
:10216000FEF7AEFA33214DF23110FEF7A9FA032142
:102170004DF23210FEF7A4FA6D214DF23310FEF746
:102180009FFA00214FF45240FEF79AFA33214DF2A4
:102190000120FEF795FA00214DF20220FEF790FA99
:1021A00034214DF20320FEF78BFA00214DF204207A
:1021B000FEF786FA3A214DF20520FEF781FA00215A
:1021C0004DF20620FEF77CFA4A214DF20720FEF779
:1021D00077FA00214DF20820FEF772FA5C214DF2E9
:1021E0000920FEF76DFA00214DF20A20FEF768FA89
:1021F00081214DF20B20FEF763FA00214DF20C20F5
:10220000FEF75EFAA6214DF20D20FEF759FA0021E5
:102210004DF20E20FEF754FAE5214DF20F20FEF7A5
:102220004FFA01214DF21020FEF74AFA13214DF228
:102230001120FEF745FA01214DF21220FEF740FA77
:1022400054214DF21320FEF73BFA01214DF21420E8
:10225000FEF736FA82214DF21520FEF731FA012100
:102260004DF21620FEF72CFACA214DF21720FEF788
:1022700027FA02214DF21820FEF722FA00214DF232
:102280001920FEF71DFA02214DF21A20FEF718FA66
:1022900001214DF21B20FEF713FA02214DF21C2002
:1022A000FEF70EFA34214DF21D20FEF709FA022145
:1022B0004DF21E20FEF704FA67214DF21F20FEF7B3
:1022C000FFF902214DF22020FEF7FAF984214DF2A8
:1022D0002120FEF7F5F902214DF22220FEF7F0F958
:1022E000A4214DF22320FEF7EBF902214DF2242028
:1022F000FEF7E6F9B7214DF22520FEF7E1F90221BC
:102300004DF22620FEF7DCF9CF214DF22720FEF713
:10231000D7F902214DF22820FEF7D2F9DE214DF245
:102320002920FEF7CDF902214DF22A20FEF7C8F947
:10233000F2214DF22B20FEF7C3F902214DF22C20A1
:10234000FEF7BEF9FE214DF22D20FEF7B9F903216B
:102350004DF22E20FEF7B4F910214DF22F20FEF79A
:10236000AFF903214DF23020FEF7AAF933214DF2E7
:102370003120FEF7A5F903214DF23220FEF7A0F936
:102380006D214DF23320FEF79BF900214FF45340AD
:10239000FEF796F933214DF20130FEF791F9002155
:1023A0004DF20230FEF78CF934214DF20330FEF786
:1023B00087F900214DF20430FEF782F93A214DF2FF
:1023C0000530FEF77DF900214DF20630FEF778F971
:1023D0004A214DF20730FEF773F900214DF2083023
:1023E000FEF76EF95C214DF20930FEF769F9002124
:1023F0004DF20A30FEF764F981214DF20B30FEF701
:102400005FF900214DF20C30FEF75AF9A6214DF28A
:102410000D30FEF755F900214DF20E30FEF750F960
:10242000E5214DF20F30FEF74BF901214DF210304E
:10243000FEF746F913214DF21130FEF741F9012163
:102440004DF21230FEF73CF954214DF21330FEF7F5
:1024500037F901214DF21430FEF732F982214DF2A5
:102460001530FEF72DF901214DF21630FEF728F94F
:10247000CA214DF21730FEF723F902214DF2183030
:10248000FEF71EF900214DF21930FEF719F902216D
:102490004DF21A30FEF714F901214DF21B30FEF710
:1024A0000FF902214DF21C30FEF70AF934214DF2EA
:1024B0001D30FEF705F902214DF21E30FEF700F93E
:1024C00067214DF21F30FEF7FBF802214DF220305C
:1024D000FEF7F6F884214DF22130FEF7F1F80221E3
:1024E0004DF22230FEF7ECF8A4214DF22330FEF736
:1024F000E7F802214DF22430FEF7E2F8B7214DF261
:102500002530FEF7DDF802214DF22630FEF7D8F82F
:10251000CF214DF22730FEF7D3F802214DF22830BB
:10252000FEF7CEF8DE214DF22930FEF7C9F8022180
:102530004DF22A30FEF7C4F8F2214DF22B30FEF7AF
:10254000BFF802214DF22C30FEF7BAF8FE214DF211
:102550002D30FEF7B5F803214DF22E30FEF7B0F81E
:1025600010214DF22F30FEF7ABF803214DF2303041
:10257000FEF7A6F833214DF23130FEF7A1F8032122
:102580004DF23230FEF79CF86D214DF23330FEF7FC
:1025900097F800214FF45440FEF792F8332100E001
:1025A0007FE34DF20140FEF78BF800214DF202402F
:1025B000FEF786F834214DF20340FEF781F8002142
:1025C0004DF20440FEF77CF83A214DF20540FEF74B
:1025D00077F800214DF20640FEF772F84A214DF2DD
:1025E0000740FEF76DF800214DF20840FEF768F84D
:1025F0005C214DF20940FEF763F800214DF20A40DC
:10260000FEF75EF881214DF20B40FEF759F80021EC
:102610004DF20C40FEF754F8A6214DF20D40FEF7A6
:102620004FF800214DF20E40FEF74AF8E5214DF239
:102630000F40FEF745F801214DF21040FEF740F83B
:1026400013214DF21140FEF73BF801214DF21240EB
:10265000FEF736F854214DF21340FEF731F8012110
:102660004DF21440FEF72CF882214DF21540FEF792
:1026700027F801214DF21640FEF722F8CA214DF24B
:102680001740FEF71DF802214DF21840FEF718F82A
:1026900000214DF21940FEF713F8022100E002E399
:1026A0004DF21A40FEF70CF801214DF21B40FEF7E7
:1026B00007F802214DF21C40FEF702F834214DF2DA
:1026C0001D40FDF7FDFF02214DF21E40FDF7F8FF12
:1026D00067214DF21F40FDF7F3FF02214DF220402C
:1026E000FDF7EEFF84214DF22140FDF7E9FF0221C5
:1026F0004DF22240FDF7E4FFA4214DF22340FDF707
:10270000DFFF02214DF22440FDF7DAFFB7214DF241
:102710002540FDF7D5FF02214DF22640FDF7D0FF01
:10272000CF214DF22740FDF7CBFF02214DF228408B
:10273000FDF7C6FFDE214DF22940FDF7C1FF022162
:102740004DF22A40FDF7BCFFF2214DF22B40FDF780
:10275000B7FF02214DF22C40FDF7B2FFFE214DF2F2
:102760002D40FDF7ADFF03214DF22E40FDF7A8FFF0
:1027700010214DF22F40FDF7A3FF03214DF2304011
:10278000FDF79EFF33214DF23140FDF799FF032104
:102790004DF23240FDF794FF6D214DF23340FDF7CD
:1027A0008FFF00214FF45540FDF78AFF33214DF292
:1027B0000150FDF785FF00214DF20250FDF780FF2B
:1027C00034214DF20350FDF77BFF00214DF2045000
:1027D000FDF776FF3A214DF20550FDF771FF00211C
:1027E0004DF20650FDF76CFF4A214DF20750FDF700
:1027F00067FF00214DF20850FDF762FF5C214DF2AA
:102800000950FDF75DFF00214DF20A50FDF758FF1A
:1028100081214DF20B50FDF753FF00214DF20C507A
:10282000FDF74EFFA6214DF20D50FDF749FF0021A7
:102830004DF20E50FDF744FFE5214DF20F50FDF72C
:102840003FFF01214DF21050FDF73AFF13214DF2E9
:102850001150FDF735FF01214DF21250FDF730FF09
:1028600054214DF21350FDF72BFF01214DF214506E
:10287000FDF726FF82214DF21550FDF721FF0121C2
:102880004DF21650FDF71CFFCA214DF21750FDF70F
:1028900017FF02214DF21850FDF712FF00214DF2F3
:1028A0001950FDF70DFF02214DF21A50FDF708FFF8
:1028B00001214DF21B50FDF703FF02214DF21C5088
:1028C000FDF7FEFE34214DF21D50FDF7F9FE022109
:1028D0004DF21E50FDF7F4FE67214DF21F50FDF73B
:1028E000EFFE02214DF22050FDF7EAFE84214DF269
:1028F0002150FDF7E5FE02214DF22250FDF7E0FEEA
:10290000A4214DF22350FDF7DBFE02214DF22450AD
:10291000FDF7D6FEB7214DF22550FDF7D1FE02217D
:102920004DF22650FDF7CCFECF214DF22750FDF79A
:10293000C7FE02214DF22850FDF7C2FEDE214DF206
:102940002950FDF7BDFE02214DF22A50FDF7B8FED9
:10295000F2214DF22B50FDF7B3FE02214DF22C5027
:10296000FDF7AEFEFE214DF22D50FDF7A9FE03212D
:102970004DF22E50FDF7A4FE10214DF22F50FDF721
:102980009FFE03214DF23050FDF79AFE33214DF2A8
:102990003150FDF795FE03214DF23250FDF790FEC8
:1029A0006D214DF23350FDF78BFE00214FF4564060
:1029B000FDF786FE33214DF20160FDF781FE002117
:1029C0004DF20260FDF77CFE34214DF20360FDF70D
:1029D00077FE00214DF20460FDF772FE3A214DF2C0
:1029E0000560FDF76DFE00214DF20660FDF768FE03
:1029F0004A214DF20760FDF763FE00214DF20860A9
:102A0000FDF75EFE5C214DF20960FDF759FE0021E5
:102A10004DF20A60FDF754FE81214DF20B60FDF787
:102A20004FFE00214DF20C60FDF74AFEA6214DF24B
:102A30000D60FDF745FE00214DF20E60FDF740FEF2
:102A4000E5214DF20F60FDF73BFE01214DF21060D4
:102A5000FDF736FE13214DF21160FDF731FE012125
:102A60004DF21260FDF72CFE54214DF21360FDF77C
:102A700027FE01214DF21460FDF722FE82214DF266
:102A80001560FDF71DFE01214DF21660FDF718FEE1
:102A9000CA214DF21760FDF713FE02214DF21860B6
:102AA000FDF70EFE00214DF21960FDF709FE02212F
:102AB0004DF21A60FDF704FE01214DF21B60FDF797
:102AC000FFFD02214DF21C60FDF7FAFD34214DF2AD
:102AD0001D60FDF7F5FD02214DF21E60FDF7F0FDD2
:102AE00067214DF21F60FDF7EBFD02214DF22060E2
:102AF000FDF7E6FD84214DF22160FDF7E1FD0221A5
:102B00004DF22260FDF7DCFDA4214DF22360FDF7BC
:102B1000D7FD02214DF22460FDF7D2FDB7214DF221
:102B20002560FDF7CDFD02214DF22660FDF7C8FDC1
:102B3000CF214DF22760FDF7C3FD02214DF2286041
:102B4000FDF7BEFDDE214DF22960FDF7B9FD022142
:102B50004DF22A60FDF7B4FDF2214DF22B60FDF736
:102B6000AFFD02214DF22C60FDF7AAFDFE214DF2D2
:102B70002D60FDF7A5FD03214DF22E60FDF7A0FDB0
:102B800010214DF22F60FDF79BFD03214DF23060C7
:102B9000FDF796FD33214DF23160FDF791FD0321E4
:102BA0004DF23260FDF78CFD6D214DF23360FDF783
:102BB00087FD55211846FDF783FDAA212846FDF71C
:102BC0007FFD52213046FDF77BFD08213846FDF799
:102BD00077FD00216046FDF773FDCC215046FDF7DF
:102BE0006FFD00215846FDF76BFD05214846FDF7B6
:102BF00067FD70214FF43740FDF762FD70214BF205
:102C00000170FDF75DFD01214FF43840FDF758FDDF
:102C100003214BF60100FDF753FD03214BF60200A3
:102C2000FDF74EFD03214BF60300FDF749FD0221A0
:102C30004FF43C40FDF744FD00214BF60140FDF709
:102C40003FFD00214BF60240FDF73AFDD0214FF445
:102C50004940FDF735FD02214CF60110FDF730FD2E
:102C600050214CF60210FDF72BFD50214CF60310BD
:102C7000FDF726FD50214CF60410FDF721FD002143
:102C80004FF45450FDF71CFD55214FF46850FDF7EB
:102C900017FD4FF488502080782006F073F94FF428
:102CA00024502080FEE3A0F513414FF4E06940F288
:102CB000022A4FF4274B25392ED0A0F5134140F2BC
:102CC000077728397ED0A0F513414FF4887B20394F
:102CD00079D0A0F51341313976D0A0F5A841083953
:102CE00073D0A0F5A8514FF4407B05396ED0A0F504
:102CF000354105396BD0A0F54541053968D0A0F5BF
:102D00008A4131397ED0A0F58A4135397BD0A0F592
:102D1000C851633978D0C5E747F6F001E520FDF7E3
:102D2000CFFC31460120FDF7CBFC49460220FDF7E0
:102D3000C7FC41F230010320FDF7C2FC0021042052
:102D4000FDF7BEFC51460820FDF7BAFC0021092022
:102D5000FDF7B6FC00210A20FDF7B2FC00210C2093
:102D6000FDF7AEFC00210D20FDF7AAFC00210F208D
:102D7000FDF7A6FC00211020FDF7A2FC0721112081
:102D8000FDF79EFC00211220FDF79AFC0021132084
:102D9000FDF796FC00210720FDF792FC41F29061BF
:102DA0001020FDF78DFC40F227211120FDF788FC53
:102DB0009D211220FDF784FC4FF4C8511320FDF72C
:102DC0007FFC06E080E03CE1E1E1B7E253E3FDE3B4
:102DD000FDE325212920FDF773FC0D212B20FDF7B4
:102DE0006FFC07213020FDF76BFC40F203313120EE
:102DF000FDF766FC03213220FDF762FC40F206215C
:102E0000352002E0FEE3FEE3FEE3FDF759FC082176
:102E10003620FDF755FC40F206413720FDF750FC07
:102E20004FF441713820FDF74BFC07213920FDF7A5
:102E300047FC40F202613C20FDF742FC08213D20A6
:102E4000FDF73EFC00215020FDF73AFCEF21512018
:102E5000FDF736FC00215220FDF732FC40F23F1115
:102E60005320FDF72DFC59466020FDF729FC012178
:102E70006120FDF725FC00216A20FDF721FC0021DF
:102E80008020FDF71DFC00218120FDF719FC0021A9
:102E90008220FDF715FC00218320FDF711FC0021A5
:102EA0008420FDF70DFC00218520FDF709FC102191
:102EB0009020FDF705FC4FF4C0619220FDF700FC67
:102EC00040F233110720FDE341F28F01EC20FDF7C2
:102ED000F7FB41F23421EF20FDF7F2FB31460120F0
:102EE000FDF7EEFB49460220FDF7EAFB41F2300117
:102EF0000320FDF7E5FB00210420FDF7E1FB51462F
:102F00000820FDF7DDFB00210920FDF7D9FB00219A
:102F10000A20FDF7D5FB01210C20FDF7D1FB002194
:102F20000D20FDF7CDFB00210F20FDF7C9FB00218F
:102F30001020FDF7C5FB07211120FDF7C1FB002183
:102F40001220FDF7BDFB00211320FDF7B9FB012185
:102F50000720FDF7B5FB322006F033F841F290412F
:102F60001020FDF7ADFB40F227211120FDF7A8FB53
:102F7000322006F026F88A211220FDF7A1FB32202C
:102F800006F01FF84FF4D0511320FDF799FB0621EE
:102F90002920FDF795FB0D212B20FDF791FB322019
:102FA00006F00FF800212020FDF78AFB00212120E8
:102FB000FDF786FB322006F004F800213020FDF7F3
:102FC0007FFB40F204613120FDF77AFB40F20531CE
:102FD0003220FDF775FB00213520FDF771FB40F62F
:102FE00009413620FDF76CFB4FF401713720FDF7E6
:102FF00067FB40F201313820FDF762FB394639208A
:10300000FDF75EFB00213C20FDF75AFB40F60A214C
:103010003D20FDF755FB322005F0D3FF0021502065
:10302000FDF74EFBEF215120FDF74AFB0021522016
:10303000FDF746FB40F23F115320FDF741FB594697
:1030400051E100210846FDF73BFB31460120FDF729
:1030500037FB49460220FDF733FB41F230010320E4
:10306000FDF72EFB00210420FDF72AFB5146082026
:10307000FDF726FB00210920FDF722FB00210A2095
:10308000FDF71EFB01210C20FDF71AFB00210D208E
:10309000FDF716FB00210F20FDF712FB322005F093
:1030A00090FF40F201110720FDF70AFB322005F0E6
:1030B00088FF4FF486511020FDF702FB07211120F5
:1030C000FDF7FEFA5B4659461220FDF7F9FA4FF478
:1030D00030611320FDF7F4FA00212920FDF7F0FA02
:1030E00044F210012B20FDF7EBFA00215020FDF7F0
:1030F000E7FAEF215120FDF7E3FA00215220FDF716
:10310000DFFA40F23F115320FDF7DAFA4FF41C5179
:103110006020FDF7D5FA01216120FDF7D1FA0021E9
:103120006A20FDF7CDFA00218020FDF7C9FA0021C1
:103130008120FDF7C5FA00218220FDF7C1FA0021A8
:103140008320FDF7BDFA00218420FDF7B9FA0021A4
:103150008520FDF7B5FA10219020FDF7B1FA002186
:103160009220FDF7ADFA01219320FDF7A9FA194647
:103170009520FDF7A5FA00219720FDF7A1FA00217F
:103180009820FDF79DFA40F27311072086E341F283
:103190001401E720FDF794FA31460120FDF790FA7B
:1031A0004FF400710220FDF78BFA41F23801032041
:1031B000FDF786FA51460820FDF782FA0021092022
:1031C000FDF77EFA00210A20FDF77AFA00210C2093
:1031D000FDF776FA00210D20FDF772FA00210F208D
:1031E000FDF76EFA00211020FDF76AFA0721112081
:1031F000FDF766FA00211220FDF762FA0021132084
:10320000FDF75EFAC82005F0DCFE41F29061102067
:10321000FDF756FA40F227211120FDF751FA32202E
:1032200005F0CFFE0C211220FDF74AFA322005F0FE
:10323000C8FE4FF400611320FDF742FA1121292046
:10324000FDF73EFA0B212B20FDF73AFA322005F06C
:10325000B8FE00212020FDF733FA40F23F13194653
:103260002120FDF72DFA00213020FDF729FA4FF437
:10327000837421463120FDF723FA00213220FDF727
:103280001FFA4FF401713520FDF71AFA41F20A6175
:103290003620FDF715FA39463720FDF711FA214699
:1032A0003820FDF70DFA39463920FDF709FA40F2CA
:1032B00002413C20FDF704FA40F60F413D20FDF7A6
:1032C000FFF900215020FDF7FBF9EF215120FDF718
:1032D000F7F900215220FDF7F3F919465320FDF7C5
:1032E000EFF94FF41C516020FDF7EAF9012161204C
:1032F000FDF7E6F900216A20FDF7E2F900218020C0
:10330000FDF7DEF900218120FDF7DAF900218220A6
:10331000FDF7D6F900218320FDF7D2F900218420A2
:10332000FDF7CEF900218520FDF7CAF91021902084
:10333000FDF7C6F94FF4C0619220FDE3314601204C
:10334000FDF7BEF949460220FDF7BAF941F2300116
:103350000320FDF7B5F900210420FDF7B1F940F293
:1033600007210820FDF7ACF900210920FDF7A8F995
:1033700000210A20FDF7A4F900210C20FDF7A0F997
:1033800000210D20FDF79CF900210F20FDF798F991
:10339000142005F016FE41F2B0611020FDF790F9FF
:1033A00001211120FDF78CF901211720FDF788F983
:1033B0004FF49C711220FDF783F94FF40061132044
:1033C000FDF77EF909212920FDF77AF909212A2044
:1033D000FDF776F90021A420FDF772F900215020B5
:1033E000FDF76EF9EF215120FDF76AF90021522017
:1033F000FDF766F940F23F115320FDF761F94FF4F4
:103400001C516020FDF75CF901216120FDF758F99E
:1034100000216A20FDF754F900218020FDF750F9C2
:1034200000218120FDF74CF900218220FDF748F9A9
:1034300000218320FDF744F900218420FDF740F9A5
:1034400000218520FDF73CF913219020FDF738F984
:1034500000219220FDF734F903219320FDF730F984
:1034600059469520FDF72CF940F273110720FDF71E
:1034700027F9322011E100210720FDF721F9322040
:1034800005F09FFD4FF48E711220FDF719F901210F
:10349000A420FDF715F90F210820FDF711F90821E7
:1034A0000A2000E07BE3FDF70BF908210D20FDF772
:1034B00007F939463020FDF703F907213120FDF7E0
:1034C000FFF840F203613220FDF7FAF84C46494616
:1034D0003320FDF7F5F851463420FDF7F1F80221CD
:1034E0003520FDF7EDF841F60F713620FDF7E8F8CD
:1034F00039463720FDF7E4F800213820FDF7E0F8E1
:1035000000213920FDF7DCF839463A20FDF7D8F8DC
:1035100000213B20FDF7D4F807213C20FDF7D0F82F
:1035200000213D20FDF7CCF8322005F04AFD0121B5
:103530000720FDF7C5F801211720FDF7C1F832205B
:1035400005F03FFD4FF4BD511020FDF7B9F840F2F2
:1035500017211120FDF7B4F84FF48F711220FDF7F9
:10356000AFF84FF470611320FDF7AAF800212A206C
:10357000FDF7A6F80A212920FDF7A2F84FF49F7164
:103580001220FDF79DF800215020FDF799F8EF215A
:103590005120FDF795F800215220FDF791F840F2F7
:1035A0003F115320FDF78CF84FF41C516020FDF7BC
:1035B00087F801216120FDF783F800216A20FDF7DB
:1035C0007FF800218020FDF77BF801E068E066E1EC
:1035D00000218120FDF774F800218220FDF770F8AA
:1035E00000218320FDF76CF800218420FDF768F8A6
:1035F00000218520FDF764F813219020FDF760F885
:10360000594602E015E2CBE272E39220FDF758F84A
:1036100005219320FDF754F800219520FDF750F87F
:1036200000219720FDF74CF800219820FDF748F87D
:1036300031460120FDF744F821460220FDF740F80D
:1036400041F238010320FDF73BF800210420FDF78B
:1036500037F800210C20FDF733F800210F20FDF78B
:103660002FF800212020FDF72BF800212120FDF765
:1036700027F821210720FDF723F8142005F0A1FCED
:1036800061210720FDF71CF8142005F09AFC40F298
:1036900073110720FDF714F8142005F092FCA1E344
:1036A00000210846FDF70CF800210846FDF708F850
:1036B00000210846FDF704F800210846FDF700F850
:1036C000012100E0E6E0A420FCF7FAFF142005F059
:1036D00078FC4FF41C5421466020FCF7F1FF55465E
:1036E00051460820FCF7ECFF4FF405713020FCF741
:1036F000E7FF43F215713120FCF7E2FF40F204616D
:103700003220FCF7DDFF40F616613320FCF7D8FFCE
:1037100042F211213420FCF7D3FF4FF4A851352099
:10372000FCF7CEFF48F207513620FCF7C9FF41F203
:1037300007413720FCF7C4FF41F203413820FCF772
:10374000BFFF20213920FCF7BBFF1A219020FCF796
:10375000B7FF00211020FCF7B3FF07211120FCF771
:10376000AFFF00211220FCF7ABFF00211320FCF774
:10377000A7FF142005F025FC4FF4E6611020FCF7AC
:103780009FFF40F237111120FCF79AFF142005F03B
:1037900018FC4FF4DC711220FCF792FF142005F0A6
:1037A00010FC4FF470611320FCF78AFF80212A205F
:1037B000FCF786FF48212920FCF782FF142005F042
:1037C00000FC31460120FCF77BFF49460220FCF754
:1037D00077FF41F238010320FCF772FF29460820E9
:1037E000FCF76EFF00210A20FCF76AFF00210C2085
:1037F000FCF766FF00210D20FCF762FF30210E2050
:10380000FCF75EFF00215020FCF75AFFEF2151200A
:10381000FCF756FF00215220FCF752FF40F23F1107
:103820005320FCF74DFF21466020FCF749FF0121A2
:103830006120FCF745FF00216A20FCF741FF1121C0
:103840009020FCF73DFF4FF4C0619220FCF738FF59
:1038500040F202419320FCF733FF02219420FCF751
:103860002FFF142005F0ADFB01210720FCF728FFF6
:10387000142005F0A6FB61210720FCF721FF40F290
:1038800073110720FCF71CFF00212020FCF718FF14
:1038900000212120FCF714FF222100207DE10021DE
:1038A0000846FCF70DFF00210846FCF709FF14202D
:1038B00005F087FB00210846FCF702FF00210846BF
:1038C000FCF7FEFE00210846FCF7FAFE0021084640
:1038D000FCF7F6FE0121A420FCF7F2FE142005F00F
:1038E00070FB4FF41C516020FCF7EAFE40F6060125
:1038F0000820FCF7E5FE40F2037319463020FCF780
:10390000DFFE01213120FCF7DBFE04213220FCF731
:10391000D7FE4FF481713320FCF7D2FE5C46594646
:103920003420FCF7CDFE40F203113520FCF7C8FE31
:103930001F213620FCF7C4FE19463720FCF7C0FED5
:1039400001213820FCF7BCFE04213920FCF7B8FE29
:1039500015219020FCF7B4FE4FF482611020FCF793
:10396000AFFE40F247211120FCF7AAFE4FF4DE71B2
:103970001220FCF7A5FE4FF460611320FCF7A0FEB7
:10398000782005F01EFB31460120FCF799FE4FF42C
:1039900000710220FCF794FE41F230010320FCF795
:1039A0008FFE08210A20FCF78BFE00210C20FCF77B
:1039B00087FE20210E20FCF783FE00210F20FCF75C
:1039C0007FFE00212020FCF77BFE00212120FCF758
:1039D00077FE3D212A20FCF773FE142005F0F1FA52
:1039E0002D212920FCF76CFE00215020FCF768FEF9
:1039F0004DF2EF015120FCF763FE00215220FCF74D
:103A00005FFE40F23F115320FCF75AFE0021612077
:103A1000FCF756FE00216A20FCF752FE2146922058
:103A2000FCF74EFE05219320FCF74AFE3146FFF7D6
:103A3000ACBB01210020FCF743FE0A2005F0C1FACF
:103A400041F228611020FCF73BFE0E211220FCF70A
:103A500037FE40F639211320FCF732FE0A2005F02C
:103A6000B0FA40211120FCF72BFE50211520FCF765
:103A700027FE0A2005F0A5FA1E211220FCF720FEE1
:103A80000A2005F09EFA4FF4B1511020FCF718FE01
:103A900042F639211320FCF713FE0A2005F091FAB3
:103AA00031460120FCF70CFE59460220FCF708FEC7
:103AB00041F238010320FCF703FE51460820FCF7D1
:103AC000FFFD08210A20FCF7FBFD00213020FCF758
:103AD000F7FD40F202413120FCF7F2FD4FF4837113
:103AE0003220FCF7EDFD40F203513320FCF7E8FDF6
:103AF0004FF482713420FCF7E3FD40F201313520B0
:103B0000FCF7DEFD39463620FCF7DAFD40F20531E0
:103B10003720FCF7D5FD4FF402713820FCF7D0FDBB
:103B200040F60B713920FCF7CBFD02214120FCF758
:103B3000C7FD4FF41C5100E0D5E06020FCF7C0FD4C
:103B400001216120FCF7BCFD4FF404719020FCF7CB
:103B5000B7FD4FF485719220FCF7B2FD042193204C
:103B6000FCF7AEFD3146A020FCF7AAFD012107209D
:103B7000FCF7A6FD21210720FCF7A2FD2321072049
:103B8000FCF79EFD33210720FCF79AFD40F233112C
:103B90000720FCF795FD0021A020FCF791FD21E115
:103BA00030211520FCF78CFD10219A20FCF788FDB0
:103BB00020211120FCF784FD43F228411020FCF75E
:103BC0007FFD02211220FCF77BFD41F2380113201A
:103BD000FCF776FD282005F0F4F912210846FCF7E1
:103BE0006FFD282005F0EDF943F220411020FCF78D
:103BF00067FD43F238011320FCF762FD462005F013
:103C0000E0F900213020FCF75BFD40F20241312059
:103C1000FCF756FD40F207313220FCF751FD4FF41E
:103C200041713320FCF74CFD04213420FCF748FDA2
:103C300040F201413520FCF743FD39463620FCF7C0
:103C40003FFD40F205313720FCF73AFD4FF4C263E7
:103C500019463820FCF734FD19463920FCF730FDB1
:103C600031460120FCF72CFD59460220FCF728FDC7
:103C700041F230010320FCF723FD40F60801082043
:103C8000FCF71EFD08210A20FCF71AFD4FF41C5119
:103C90006020FCF715FD01216120FCF711FD4FF4B8
:103CA0009F719020FCF70CFD31469220FCF708FD37
:103CB00031469320FCF704FD4FF44051A020FCF75F
:103CC000FFFC1021A320FCF7FBFC01210720FCF7DF
:103CD000F7FC21210720FCF7F3FC23210720FCF748
:103CE000EFFC33210720FCF7EBFC40F233119EE69A
:103CF000E2202080232028800220288004202880A1
:103D0000642005F03FF9E0202080012028800A206F
:103D100005F057F9E0202080032028800C2005F0D2
:103D200050F9012020800A2005F04BF9E620208080
:103D300003202880FF2028802880B0202080202099
:103D40002880002028800320288040F21F3028800F
:103D50000120288040F2DF10288000202880B42035
:103D600020800420288040F21F40288000202880E6
:103D7000D220288000202880288028802880B62013
:103D80002080022028804FF40370288000202880A3
:103D90002220288009202880002028802880F020E8
:103DA00020800320288029202080D020208000200F
:103DB0002880BE20208005202880FE202880012029
:103DC0002880FF20288000202880B82020800F2015
:103DD000288001202880BA202080012028806420AB
:103DE000FCF74FFF0020FCF765FFFF490120C1F8F9
:103DF000B0014046FDF7BDF821B0BDE8F08F2DE9D8
:103E0000F843FA4C1E468046A388089FA3F5D0408D
:103E1000043802D1A079012807D0A2EB0800401C89
:103E200084B20D46DFF8C89328E025880846A91A11
:103E3000A5EB08030025A57132462A2565812B26AE
:103E4000491E5B1EA68189B29BB20097FFF7D7FF80
:103E50000120A0716681A581BDE8F883294640460E
:103E6000FCF752FCFCF73AFC0020494602E00F80C8
:103E7000401C80B2A042FAD36D1CADB2B542EDD960
:103E8000EAE72DE9F0478246A2EB0A00401C0E4605
:103E900085B2981B401C87B20024DFF85493DDF8EC
:103EA000208014E0301981B25046FCF72DFCFCF75D
:103EB00015FC0020494606E004FB050338F81320F2
:103EC0000A80401C80B2A842F6D3641CA4B2BC4253
:103ED000E8D3BDE8F0872DE9FE4F161ACDE90010B2
:103EE0004FF000085D1A47464FF0FF30002E02DD0C
:103EF0004FF0010102E003D14FF000018B4602E0D8
:103F00008346C6F10006002D02DD4FF0010002E0FD
:103F100003D14FF00000824602E08246C5F1000561
:103F2000AE4201DD344600E02C46601C4FF0000933
:103F3000029018E0009881B2019880B2FCF714FE5C
:103F4000B0442F44A04504DD0198A8EB0408584470
:103F50000190A74203DD00983F1B5044009009F1F7
:103F600001001FFA80F902998945E3DDBDE8FE8F63
:103F7000F0B51C4615460E4607460B46FFF7ABFF4D
:103F80003A46234631461046FFF7A5FF23462A4608
:103F900019463846FFF79FFF2A4623463146BDE8BB
:103FA000F040104697E72DE9FC4F80460025144667
:103FB00003200F46A0EB440649E0381B81B208EB12
:103FC000050A01901FFA8AF0FCF7CEFD781B81B23A
:103FD00008EB040900901FFA89F0FCF7C5FD07EB18
:103FE000050B1FFA8BF11FFA89F0FCF7BDFD07EBFB
:103FF00004091FFA89F11FFA8AF0FCF7B5FDA8EB56
:10400000050A1FFA89F11FFA8AF0FCF7ADFDA8EB4B
:1040100004091FFA8BF11FFA89F0FCF7A5FD01983E
:1040200081B21FFA8AF0FCF79FFD009881B21FFA57
:1040300089F0FCF799FD6D1C002E03DA06EB85066E
:10404000B61D04E0281B06EB8006641E0A36A54256
:10405000B3DDBDE8FC8F2DE9FF4F1D460C468A46B7
:10406000580700D0012000EBD50069084843203AEA
:1040700000F0FF09D0B20026DFF870B1029044E0F2
:104080000C2D11D0102D14D0182D40D10298594963
:1040900000EBC00001EB80004FF00008875D3806A0
:1040A0000CD5554802880DE00298544900EB4000B9
:1040B000F0E75349029801EB0010EDE70D9828B99D
:1040C0004D48428821460098FCF759FD7806070EB6
:1040D000641CBBF80200A4B2A04218D9A4EB0A00E9
:1040E000A84209D100985446401C80B20090BBF809
:1040F000001081420BD906E008F1010000F0FF0832
:10410000B8F1080FCBD3761CF6B24E45B8D3BDE854
:10411000FF8F0246012000E05043491EC9B2FBD286
:1041200070472DE9FF4F81B00026DDF838A01D460D
:10413000934681463446B0464FEA5A0727E0281B8B
:10414000401EC1B20A20FFF7E4FFBBFBF0F00A21DA
:10415000B0FBF1F201FB120026B9691E8C4201DAB4
:1041600048B101263030C2B207FB049080B25346FA
:10417000CDF8008006E007FB049080B25346202271
:10418000CDF800800299FFF766FF641CE4B2AC42F0
:10419000D5D305B031E62DE9FF4F81B04FF00008CF
:1041A000DDE90EBA1E46814644460AF001054FEA93
:1041B0005B073BE0301B401EC1B20A20FFF7A9FF9E
:1041C0000399B1FBF0F00A21B0FBF1F201FB120000
:1041D000B8F1000F05D1711E8C4202DAC0B14FF068
:1041E00001083030C2B20DE0008021426020002082
:1041F0000008006CF66002081600002092560208C3
:10420000065B020807FB049080B25B46009508E05D
:104210005FEA0A6007FB049080B25B46009508D510
:1042200030220299FFF717FF641CE4B2B442C1D3F5
:10423000AFE72022F5E72DE9F84F044600F0FF092B
:1042400010190D46DDE90AB61FFA80F8581987B231
:104250004FF0000A12E0444503D305EB0B004C4637
:1042600085B2BD420FD25B4629462046CDF800A05C
:10427000FFF7F1FE04EB5B0084B2761C3278A2F10A
:1042800020005E28E7D9BDE8F88F00004F4841695B
:1042900041F480714161816941F02001816181694E
:1042A00041F040018161816941F080018161816952
:1042B00041F4807181614648016800210160026813
:1042C00042F0BB320260001F026802F0FF2202606F
:1042D000026842F0BB1202603E4802680160026858
:1042E00042F0BB320260001F02683B4B1A40026082
:1042F00002683A4B1A4302603948026892B202607F
:104300000268384B1A430260001F026802F07F42C5
:1043100002600368344A134303603448436823F45B
:1043200070634360436843F430634360036803F0A1
:104330007F4303600368134303604FF02040016133
:104340004161C0F81411016941F4805101610169B2
:1043500041F010010161416941F4407141614169DD
:104360004161416941616FF07041C0F81411016908
:1043700041F001010161704710B5002A08D000BF6B
:104380004FF0D04310F8014B5C54491C521EF7D13A
:1043900010BD002A08D000BF4FF0D0435B5C491C21
:1043A00000F8013B521EF7D1704703B501460122C8
:1043B00001A8FFF7E1FF0CBD08B5014601226846E0
:1043C000FFF7E7FF9DF8000008BD00000010024065
:1043D000041401400418014000FFFF0FBB0000B0AF
:1043E000041C01400000BBBBBBBBBB000020014064
:1043F00038B50121082005F06EFCC020ADF80000A2
:1044000010208DF803000320824C8DF802006946CD
:10441000204605F076FAC021204605F0E0FA38BDC6
:1044200070B57C48016821F070410160016841F07D
:1044300040510160784C0120C4F89C01C4F89801F7
:10444000042004F5CC7404F09DFD00256560042073
:1044500004F098FD256070BD6E4810B5016821F02C
:1044600070410160016841F0405101606A4C0020D8
:10447000C4F89801C4F89C01042004F5CC7404F03D
:1044800081FD012020606060BDE81040042004F040
:1044900079BD70B55F480024016821F0704101606A
:1044A000016841F0004101605B4D0126C5F89C6147
:1044B000304604F067FDC5F89861012004F062FD04
:1044C00007E0641CE4B2FA2C03D9FFF7C5FF012012
:1044D00070BDD5F81C010028F3D1C5F8980170BD56
:1044E00070B54D4C0025C4F898514A48016821F038
:1044F00070410160016841F040510160C4F89C5175
:10450000022004F5CC7404F03DFD0120206002205F
:1045100004F038FD256070BD70B53F4C0025C4F82F
:1045200098513C48016821F070410160016841F0F8
:10453000405101600126C4F89C61022004F5CC744E
:1045400004F020FD2660022004F01CFD256070BDF3
:104550002DE9F04106462F48016821F070410160C5
:10456000016841F0405101602B4C0027C4F898715C
:104570003D464FF00108300602D5C4F89C8101E0A9
:10458000C4F89C717006060E022004F0FBFCC4F80F
:104590009881022004F0F6FCC4F89871022004F01F
:1045A000F1FC6D1CEDB2082DE5D3BDE8F0812DE9DD
:1045B000F047814617480024016821F070410160EE
:1045C000016841F000410160134E254627464FF037
:1045D000010800BFC6F89871022004F0D3FCC6F8A9
:1045E00098816006040ED6F81C0108B1641CE4B280
:1045F000012004F0C7FC6D1CEDB2082DEAD3B9F11F
:10460000000F04D0FFF76CFF2046BDE8F087FFF7EE
:1046100083FFF9E7000C014000802142FFF7E8BE6C
:1046200010B50446FFF7FCFE200AA02101EB400074
:10463000C0B2FFF78DFFFFF72CFFE0B2FFF788FF56
:10464000FFF727FFFFF7ECFEA120FFF781FFFFF741
:1046500020FF0020FFF7ABFF0446FFF7FDFE2046DA
:1046600010BD70B50D460446FFF7DAFE200AA02102
:1046700001EB4000C0B2FFF76BFFFFF70AFFE0B2AB
:10468000FFF766FFFFF705FF2846FFF761FFFFF71B
:1046900000FFFFF7E1FEBDE870400A2004F091BC86
:1046A0002DE9F04116460D460746002409E0E000DA
:1046B00025FA00F0C1B2381980B2FFF7D2FF641CAE
:1046C000E4B2B442F3D3BDE8F0812DE9F0410D46E8
:1046D0000146002004464E1908E00702301B401E28
:1046E00080B2FFF79DFF641C3844E4B2AC42F4D3BF
:1046F000E9E710B5FF20FFF793FF55280AD05521B1
:10470000FF20FFF7AEFFFF20FFF78AFF552801D0FB
:10471000012010BD002010BD70B514460D460646A0
:1047200008E03046711C8EB2FFF77AFF641E05F870
:10473000010BA4B2002CF4D170BD70B516460C4626
:10474000054606E021782846FFF78BFF6D1CADB2C9
:10475000641C761EB6B2F5D270BD000070B5064678
:104760000024374D03E0641CE4B2C82C0FD80221AA
:10477000284605F00CFC0028F5D03146284605F007
:10478000C2FB002405E0641CE4B2C82C01D900205F
:1047900070BD0121284605F0FAFB0028F3D0284619
:1047A00005F0B3FBC0B270BD30B587B0012141F256
:1047B000040005F090FAE020ADF8140018248DF8FC
:1047C000174003201F4D8DF8160005A9284605F057
:1047D00098F8E021284605F002F90020ADF8000025
:1047E000ADF804004FF48271ADF802100221ADF86B
:1047F0000610ADF80C400121ADF80810ADF80E0020
:10480000490207200E4CADF80A10ADF810006946B9
:10481000204605F0D3FA0121204605F04CFBFF208D
:10482000FFF79CFF07B030BD01460548028822F023
:104830003802028002880A430280012105F03BBB56
:104840000030014000080140052004F09BBB38B552
:104850000121082005F03FFA4FF42044ADF8004054
:1048600010208DF803000320754D8DF80200694675
:10487000284605F046F82146284605F0B0F838BD30
:1048800070B56F48001D016801F0405101606D4C2A
:104890000120C4F8BC01C4F8B4011E2004F5DA7488
:1048A00004F070FB0025A560052004F06BFB25607B
:1048B00070BD70B56248001D016801F04051016093
:1048C000604C0125C4F8B4511E2004F5DA7404F0DC
:1048D00059FB0020A060052004F054FBA56070BDCA
:1048E00070B557480024001D016801F000410160C7
:1048F000544D0120C5F8BC01C5F8B40107E0641CA3
:10490000E4B2FA2C03D9FFF7D4FF012070BD0520D3
:1049100004F038FBD5F83C010028F0D1C5F8B4010B
:1049200070BD70B5474C0025C4F8B4514448001D13
:10493000016801F040510160052004F5DA7404F0CB
:1049400021FBA560052004F01DFB0120206005204F
:1049500004F018FB256070BD70B53A4C0025C4F812
:10496000B4513748001D016801F040510160052035
:1049700004F5DA7404F006FB0126A660052004F0B5
:1049800001FB2660052004F0FDFA256070BD2DE9CD
:10499000F04106462A48001D016801F040510160BF
:1049A000284C0027C4F8B471052004F0EBFA002568
:1049B0004FF00108F009C4F8BC017006060EC4F8F7
:1049C000B481052004F0DEFAC4F8B471052004F0C7
:1049D000D9FA6D1CEDB2082DECD3BDE8F0812DE9BC
:1049E000F047814616480024001D016801F000418F
:1049F00001601E2004F0C6FA0025124E2F464FF02B
:104A0000010800BFC6F8B471052004F0BBFAC6F86F
:104A1000B4816006040ED6F83C0108B1641CE4B20F
:104A20006D1CEDB2082DEDD3B9F1000F04D0FFF7E6
:104A300078FF2046BDE8F087FFF78EFFF9E700001A
:104A4000000C0140008021422DE9F04116460F463E
:104A500004460025FFF714FF7020FFF798FFFFF7CB
:104A60003FFFE0B2FFF793FFFFF73AFF002408E0B3
:104A7000385DFFF78CFFFFF733FF050003D1641C9F
:104A8000E4B2B442F4D3FFF714FF2846BDE8F08146
:104A90002DE9F04115460E460446FFF7F1FE702061
:104AA000FFF775FFFFF71CFFE0B2FFF770FFFFF79E
:104AB00017FFFFF7E5FE7120FFF769FFFFF710FF13
:104AC00000246F1E09E0BC4201D0012000E000205C
:104AD000FFF785FF3055641CE4B2AC42F3D3BDE868
:104AE000F041FFF7E6BE7CB501210C02204605F03F
:104AF000F2F8E500ADF8045010208DF8070003200F
:104B0000794E8DF8060001A9304604F0FAFE2946D8
:104B1000304604F064FFADF8044048208DF80700EB
:104B200001A9304604F0EDFE2146304604F057FF5F
:104B3000FFF78DFE6D4D0024C5F8AC41142005F53E
:104B4000D67504F03EFA01202860322004F039FACC
:104B50008DF80040012269460020FFF775FF012211
:104B60006946A420FFF770FF16208DF8000001228F
:104B700069468020FFF768FF0C208DF800000122B5
:104B800069468820FFF760FF02226946A120FFF7EF
:104B90007FFF9DF80000302803D19DF80100032815
:104BA00001D001207CBD43F2030151A01FF0C2FFE0
:104BB00000207CBD2DE9F147504E00244FF00A0A39
:104BC000307881B0401CC0B2B0FBFAF20AFB12018F
:104BD000DFF82C812746307009B10A2867D20122FC
:104BE00001A90220FFF754FF9DF8040001075ED0E1
:104BF00000F00F0106295AD2FF208840C04340F040
:104C0000C000454688F8200001274FF0000900BF8A
:104C100095F8200007FA04F108423BD039480422F5
:104C2000694630F81400FFF733FF95F830009DF81F
:104C30000010C0079DF8010001F00F010ED000EB3D
:104C4000012105EB4400C1829DF802209DF803106C
:104C500002F00F0201EB022181810FE000EB012045
:104C6000C0F5F07105EB440081819DF802209DF8AC
:104C7000031002F00F0201EB0221C1829DF8000037
:104C80000821B1EB101F05D005EB4400A0F81690E9
:104C9000A0F80C90641CE4B2052CB9D3A8890127B4
:104CA00018B9E88A08B98DF8049086F800909DF844
:104CB0000400C00610D198F82000010602D520F0AB
:104CC000800007E04FF6FF71A8F80C10A8F8161046
:104CD00000F0E00088F820003078F02801D986F84C
:104CE00000A03846BDE8FC870020014000002442B7
:104CF0004354502049443A25780D0A001A000020F8
:104D000024000020526E02082DE9F04116460F469D
:104D100004460025FFF7B4FD2820FFF738FEFFF713
:104D2000DFFD200AFFF733FEFFF7DAFDE0B2FFF701
:104D30002EFEFFF7D5FD002408E0385DFFF727FEC3
:104D4000FFF7CEFD050003D1641CE4B2B442F4D3F6
:104D5000FFF7AFFD2846BDE8F08108B500218DF8CA
:104D600000108DF80100C2489DF80020435C491CEA
:104D70001A44C9B28DF80020B829F5D3D0B2C04387
:104D8000401C8DF80000B822B94948F24700FFF7EF
:104D9000BBFF0222694648F2FF00FFF7B5FF002083
:104DA00008BD2DE9F04115460E460446FFF768FDA3
:104DB0002820FFF7ECFDFFF793FD200AFFF7E7FD42
:104DC000FFF78EFDE0B2FFF7E2FDFFF789FDFFF789
:104DD00057FD2920FFF7DBFDFFF782FD00246F1E42
:104DE00009E0BC4201D0012000E00020FFF7F7FD00
:104DF0003055641CE4B2AC42F3D3BDE8F041FFF798
:104E000058BDFEB501210C02204604F064FFE50008
:104E1000ADF8085010208DF80B000320954E8DF84A
:104E20000A0002A9304604F06CFD2946304604F021
:104E3000D6FDADF8084048208DF80B0002A9304699
:104E400004F05FFD2146304604F0C9FDFFF7FFFC8A
:104E5000894D0024C5F8AC410A2005F5D67504F04B
:104E6000B0F8012028600A2004F0ABF83515ADF841
:104E700008502820814E8DF80B0002A9304604F01E
:104E800040FD2946304604F0ACFD642004F099F85A
:104E90000422694648F24010FFF783FF8DF8044072
:104EA000694677A01FF046FE78A1684610F027F803
:104EB00008B10120FEBD02208DF8000048F2400537
:104EC000012269462846FFF71FFF01226946E81DB7
:104ED000FFF767FF9DF80010602905D26DA01FF055
:104EE00029FE0120FFF739FF0A2004F06AF88DF847
:104EF0000040012269462846FFF706FF0020FEBD5C
:104F00002DE9F147684E00244FF00A0A307885B049
:104F1000401CC0B2B0FBFAF20AFB1201634DA0467E
:104F2000307009B10A2879D248F24E19012205A938
:104F30004846FFF736FF9DF814004FF000070106C2
:104F40000AD500F00F00062806D28DF80070012265
:104F500069464846FFF7D8FE9DF8140001075DD06A
:104F600000F00F01062959D2FF2088408DF800007B
:104F7000C04395F8209040F0C00085F82000A88933
:104F8000A882E88AE8834FF0010800BF95F8201056
:104F900008FA04F0014226D035480422B83002A9AC
:104FA00030F81400FFF7FDFE95F830009DF8091069
:104FB000C0079DF8080000EB012105EB44000AD072
:104FC000C1829DF80A109DF80B2001EB0221C1F56A
:104FD0004871818107E081819DF80A109DF80B20BE
:104FE00001EB0221C182641CE4B2052CCED330490E
:104FF000AA894FF001080B8828469A4203D8C28A32
:1050000049888A4209D99DF8141001F00F0101293D
:105010000BD9C1898181018BE98237709DF8140019
:1050200000F08F0080280AD018E0818A8181C18B2E
:10503000C18280218DF8141085F82090EEE795F854
:105040002000010602D520F0800005E04FF6FF7138
:10505000A981E98200F0E00085F820003078F0288E
:1050600001D986F800A006B04046BDE8F0870000F0
:105070005C6E02080020014000802342001C0140B9
:105080004354502049443A25730D0A0039313437CE
:105090000000000044656661756C74205665723AC4
:1050A00025640D0A000000001B00002024000020E1
:1050B000602000202DE9F04116460F4604460025E9
:1050C000FFF7DEFBB220FFF762FCFFF709FC200AC6
:1050D000FFF75DFCFFF704FCE0B2FFF758FCFFF7B9
:1050E000FFFB002408E0385DFFF751FCFFF7F8FBF9
:1050F000050003D1641CE4B2B442F4D3FFF7D9FB3A
:105100002846BDE8F0812DE9F04115460E460446DB
:10511000FFF7B6FBB220FFF73AFCFFF7E1FB200AEE
:10512000FFF735FCFFF7DCFBE0B2FFF730FCFFF7E1
:10513000D7FBFFF7A5FBB320FFF729FCFFF7D0FB58
:1051400000246F1E09E0BC4201D0012000E00020D5
:10515000FFF745FC3055641CE4B2AC42F3D3BDE824
:10516000F041FFF7A6BB08B500218DF8001010B183
:1051700080208DF80000012269464FF45060FFF74F
:1051800099FF08BD2DE9FC41012100250C028DF895
:105190000450204604F09FFDE600ADF800601020AA
:1051A0008DF803000320724F8DF8020069463846DF
:1051B00004F0A7FB3146384604F011FCADF800407E
:1051C00048208DF803006946384604F09AFB2146D2
:1051D000384604F004FCFFF73AFB664CC4F8AC51C7
:1051E000642004F5D67403F0ECFE012020606420F6
:1051F00003F0E7FE0120FFF7B6FF012201A94FF4FB
:105200005060FFF780FF9DF804105BA01FF092FC38
:105210009DF80400802802D00120BDE8FC81002018
:10522000FBE72DE9F14F574E00244FF00A09307883
:1052300082B0401CC0B2B0FBF9F209FB1201DFF8EA
:1052400048812746307009B10A2874D2012202A988
:105250000020FFF758FF9DF80800C1066FD000F04E
:105260001F0040F0C000DFF824B1454688F8200058
:10527000012700BF95F8200007FA04F108424DD03D
:1052800043480422694630F81400FFF73CFF95F8C4
:1052900030009DF80210C0079DF8030000EB0120CC
:1052A00020D010F085FA5A463A4B10F0F0F910F081
:1052B000B9FA05EB440AAAF816009DF801009DF81A
:1052C000001000EB012010F073FA334A334B10F05A
:1052D000DEF90022324B10F0D7F910F0A3FAAAF849
:1052E0000C001BE010F064FA5A462A4B10F0CFF97C
:1052F00010F098FA05EB440AAAF80C009DF801009A
:105300009DF8001000EB012010F052FA224A234BC6
:1053100010F0BDF910F086FAAAF81600641CE4B289
:10532000052CA7D30127A989002019B9E98A09B951
:105330008DF8080030709DF80800C00610D198F86C
:105340002000010602D520F0800007E04FF6FF7133
:10535000A8F80C10A8F8161000F0E00088F820005B
:105360003078F02801D986F800903846BDE8FE8FE5
:1053700000200140000024424354502049443A2573
:10538000780D0A001C000020240000207B14AE478A
:105390001E6F0208E17AD43FD881734694F6D23F5B
:1053A000000089402DE9F0410024064627464FF0D1
:1053B0000108FE4D300602D5C5F8BC8101E0C5F8F4
:1053C000BC717006060EC5F8B471012003F0DAFD59
:1053D000C5F8B481641CE4B2082CEBD3BDE8F081BD
:1053E0002DE9F0470027F14C3D463E46C4F8B47124
:1053F000C4F8BC71DFF8B8A3CAF8AC7104F5DA746C
:10540000FFF7D0FF062003F0BDFD2660012003F06A
:10541000B9FD4FF00108C4F80080404603F0B2FD2A
:105420002660B14646464FF6FF78A4F5DA7400BF11
:1054300008EA4505C4F8B491012003F0A3FDC4F8BF
:10544000B461D4F8380108B16D1CADB27F1CFFB255
:10545000102FEDD32809CAF8AC61BDE8F087FEB57E
:10546000064600256C463046FFF7BAFF24F81500C3
:105470006D1CADB2052DF6D30020431C99B20BE094
:1054800034F8102034F81150AA4203D924F81050EF
:1054900024F81120491C89B20529F1D398B20428B7
:1054A000EBD300215FF0010034F81020401C1144C0
:1054B00080B289B20428F7D30320B1FBF0F0FEBD1F
:1054C0002DE9F041BB4C06460D462078FFF7C7FF9B
:1054D00007466078FFF7C3FF3780288001207DE70B
:1054E0007FB50C460546694602A8FFF7E9FF00288C
:1054F0002FD001A903A8FFF7E3FF002829D0BDF8AA
:105500000C30BDF80820934203D803F132008242E8
:1055100005D39A421FD802F1320083421BD2BDF854
:105520000410BDF80000814203D801F13206B042F8
:1055300004D388420FD8323081420CD2D0184008B0
:105540002880BDF80000BDF8041008444008208001
:10555000012004B070BD0020FBE72DE9F0410446B6
:1055600095480D460B46028004F10D0082B21938B1
:1055700080B2FEF7B0FC05F10D0083B2193881B29C
:1055800022461046FEF7A7FC6E1C04F10108B1B2DA
:105590001FFA88F0FBF7E8FAB1B2661EB0B2FBF76B
:1055A000E3FA6F1EB9B21FFA88F0FBF7DDFAB9B261
:1055B000B0B2FBF7D9FA29462046BDE8F0410622F1
:1055C000FEF7F1BC70B506467B480C4602803046BB
:1055D000FBF7CAFA751CA8B22146FBF7C5FA641C92
:1055E000A1B23046FBF7C0FAA1B2A8B2BDE8704044
:1055F000FBF7BABA70B502466D48D0F820016D4C81
:10560000241D40B194F8200001063ED520F0800012
:1056100084F8200040E06748001D00F116010C30BE
:1056200012B1FFF75DFF24E0FFF75AFF08B3B4F9AA
:105630002C0010F09EF80546A08910F0A3F8616ACE
:105640000FF002FF29460FF0A7FE10F0D7F8A08157
:10565000B4F92E0010F08DF80546E08A10F092F8AB
:10566000A16A0FF0F1FE29460FF096FE10F0C6F881
:10567000E08294F8200000060ED4C02084F82000B8
:10568000A089A082E08AE08306E00020A082E08377
:105690004FF6FF70A081E08294F8200000F08000B7
:1056A00070BD444910B50E2228312820FFF745F877
:1056B0000A21BDE810403620FEF7D3BF10B53620D2
:1056C000FEF7AEFF0A2801D0002010BD39490E2296
:1056D00028312820FFF720F836489022001D90F846
:1056E0003030001FD02113B10270417001E0017011
:1056F0004270012010BD2DE9FF4F83B00E46DDE959
:1057000010A92D4907464FF47840DDF850800880F5
:105710002AA01024CDE90040294D9346A0216B8892
:105720002A882820FEF787FD26A0CDE900406B8857
:105730002A88A0217820FEF77EFD23A0CDE9004035
:105740006B882A88B4212820FEF775FD1FA0CDE9BB
:1057500000406B882A88B4217820FEF76CFD1CA0DD
:10576000CDE900406B882A88C8212820FEF763FD18
:1057700018A0CDE900406B882A88C8217820FEF760
:105780005AFD15A0CDE900406B882A88DC2128202D
:10579000FEF751FD11A0CDE900406B882A88DC217D
:1057A0007820FEF748FD0EA01EE000000080214298
:1057B00000002442200000201600002078313A002A
:1057C0006020002079313A0078323A0079323A008C
:1057D00078333A0079333A0078343A0079343A0031
:1057E0006661632069733A00CDE900406B882A88BE
:1057F000F0212820FEF71FFD04233A46A021402077
:105800000094FEF78EFC04233246A02190200094E1
:10581000FEF787FC04235A46B42140200094FEF78B
:1058200080FC04230094B4219020069AFEF779FCB2
:1058300004235246C82140200094FEF772FC042342
:105840004A46C82190200094FEF76BFC0423009484
:10585000DC214020129AFEF764FC04230094DC2132
:105860009020139AFEF75DFC03234246F02160204E
:105870000094FEF756FC07B0BDE8F08F2DE9F04F1D
:105880000024DFF80CB48FB01F204FF6FF782546B8
:105890005E46ABF800004746FE48A0F80080384658
:1058A000FBF767FB4FF47849A6F800903846FBF702
:1058B00060FBF9480027378001684FF0100ACDE9F6
:1058C00000A128216423A0220846FEF7B4FC14217D
:1058D0004A460846FFF741FEF04E4FF0010986F8B0
:1058E0002070776271680120884796F82000B9EB34
:1058F000901F45D120F0400086F8200009A8B1890A
:1059000020F8241000EB8400641C0025F18AE4B226
:105910004180012C06D0022C11D0032C1ED0042C67
:105920002ED139E0142142460846FFF716FEDC4826
:105930004FF478420088143880B214211EE0D84F0A
:10594000424614213888143880B2FFF706FE788862
:105950004FF47842143881B214200FE0D04F424601
:105960007888143881B21420FFF7F7FD78884FF457
:105970007842143881B23888143880B2FFF7EDFDD0
:105980000A2003F01EFB6D1CADB2B5F57A7FA9D9D4
:10599000FFF794FE0FB06FE7BDF82400BDF82810A4
:1059A000411A00D54942BDF82600BDF82A20801AC8
:1059B00000D540424943404308440FF0F9FE1FF030
:1059C00042FE0FF02FFF84B2BDF82C00BDF830105E
:1059D000401A00D54042BDF82E10BDF83220891A79
:1059E00000D54942404301FB01000FF0E1FE1FF0EA
:1059F0002AFE0FF017FF80B203900FF0C3FE074698
:105A000020460FF0BFFE39460FF050FD0FF023FF88
:105A100007464FF06632A34B01910FF02FFF7DD365
:105A2000A14AA24B384601990FF040FFF7D3002C52
:105A300074D003980028FBD0BDF82400BDF82C10CA
:105A4000401A00D54042BDF82610BDF82E20891A14
:105A500000D54942404301FB01000FF0A9FE1FF0B1
:105A6000F2FD0FF0DFFE87B2BDF82800BDF8301060
:105A7000401A00D54042BDF82A10BDF83220891ADC
:105A800000D54942404301FB01000FF091FE1FF099
:105A9000DAFD0FF0C7FE80B20FF074FE0446384600
:105AA0000FF070FE21460FF001FD0FF0D4FE074607
:105AB0004FF066327B4B01910FF0E0FE52D37A4AF1
:105AC0007A4B384601990FF0F1FE4BD3BDF8280010
:105AD000BDF82C10411A00D54942BDF82A00BDF886
