:020000040800F2
:10000000B0EA0020AD8600081505000817050008B5
:10001000190500081B0500081D0500080000000068
:100020000000000000000000000000001F050008A4
:1000300021050008000000007F560108898400089F
:10004000C7860008C7860008C7860008C78600085C
:10005000C7860008C7860008C7860008C78600084C
:10006000C7860008C7860008C7860008C78600083C
:10007000C7860008C7860008C7860008C78600082C
:10008000C7860008C7860008C7860008C78600081C
:10009000C7860008C7860008C7860008C78600080C
:1000A000C7860008C7860008C7860008C7860008FC
:1000B000C786000863530008C7860008C786000883
:1000C000C7860008C7860008C7860008C7860008DC
:1000D000C78600083D860008C7860008C786000856
:1000E000C7860008C7860008C7860008C7860008BC
:1000F000C7860008C7860008C7860008C7860008AC
:10010000C786000801690008C7860008C78600087E
:10011000C7860008C7860008D5530008C7860008B0
:10012000C7860008C7860008C7860008C78600087B
:10013000DFF80CD015F088F8004800475903000894
:10014000B0EA00200EB5DFF80483C14F4FF400562B
:1001500002AC0825D8F89C11404649B15FF0000177
:10016000C0F89C113146384608F0DBFE10B13CE087
:100170000121F5E70023CDE9005402221946184673
:100180000FF0E9FB3146384608F0CBFE00282CD1B1
:100190004FF6FF7A504600F080FF02A80BF0CFFB2D
:1001A000ACA14FF01009CDE900911E23FA223221B3
:1001B0000A2004F0D4F8AFA3102246210A2013F03D
:1001C00026FF504600F069FFAB494FF478401E23EC
:1001D0000880AAA1CDE900914FF48C7232210A2047
:1001E00004F0BDF802A80BF0E3FB0022CDE90054B7
:1001F0003223114610460FF0AEFBABE70EB5934C21
:1002000002AD08264FF4FA77D4F8980158B10020CF
:10021000C4F898010022CDE900653B46114610461E
:100220000FF099FBF0E70120F2E70EB502AD0824CC
:1002300018F044FD0022052311461046CDE9004583
:100240000FF089FBF4E708F003B82DE9F0438BB019
:1002500010F0AFFD09A80EF032F8012109AA0846F6
:100260000BF0D4FB0121402008F0E2FF17F02CFD39
:1002700010F074FE8A4D2978491C297010F072FE26
:1002800000240327CDE9064709AE4FF480606621BC
:100290000896CDE90210834A05940820CDE90002B2
:1002A00004942346AFF261027E487FA1C4380EF069
:1002B000A1FACDE9064704204FF00C097E4A0896C2
:1002C00005948DE805024FF080080023AFF2A502E7
:1002D0007948CDE9038479A1C4380EF08BFACDE9D1
:1002E00006473620784A089605948DE805020023D3
:1002F000AFF2F7027448CDE9038474A1C4380EF05C
:1003000079FACDE906470620734A089605948DE8E8
:1003100005020023AFF2D3126F48CDE903846FA129
:10032000C4380EF067FA09A970480FF060F810F0B1
:1003300015FE2978491E11F0FF01297009D16C4979
:10034000098831B110F00EFE0BF0DAFE0BB0BDE8FB
:10035000F08310F007FEF9E78AB008F0A3F84FF435
:10036000A06008F097FA4FF4E13008F019F900F0B6
:1003700083F900F0C4FE00F09BF908F001F806F0E4
:1003800015FD002008F0B3F913F0B8FC594C012218
:1003900038A1206811F064FF012257A1606811F0B4
:1003A0005FFF13F0F7FFB8B1102054A1CDE90001B1
:1003B0000346C82246211E2003F0D1FF2DA31022A0
:1003C0005A211E2013F023FE4FF4FA6008F0AFF814
:1003D0004FF6FF7000F061FE04F011FF09A80BF06A
:1003E000A5F910F0BBFD2E4C2178491C217010F0AE
:1003F000B9FD002006AB09AA0321059083E8070098
:1004000080220C23CDE90232384D0490C4350346D6
:10041000AFF2C912CDE900153BA134480EF0EAF95C
:1004200010F09CFD2178491E11F0FF01217007D1C9
:100430002F49098821B110F095FD0BF061FE01E014
:1004400010F090FD09A80BF0A0FBFEE7008023420E
:1004500000100140466F6E742055706461746169CC
:100460006E672C506C6561736520576169742E2E20
:100470002E000000303A000016000020466F6E7417
:10048000205570646174612066696E736865642CC0
:10049000506C6561736520526573746172742100DC
:1004A000F803002040140020456D77696E64656D87
:1004B0006F207461736B0000F40B0020546F756340
:1004C00068207461736B0000B80E00204C656430C6
:1004D000207461736B0000007C110020466F6E7405
:1004E000757064617461207461736B006C08002026
:1004F000BC03002098040020313A0000466F6E745F
:10050000204572726F72210073746172742074617D
:10051000736B00007047FEE7FEE7FEE7FEE77047FB
:10052000704700000CB500214B4801910091026812
:1005300042F4803202604FF4A063026802F4003299
:100540000092019A521C0192009A12B9019A9A42A1
:10055000F3D10268920333D5012100913F490A6823
:1005600042F010020A600A6822F003020A600A6878
:1005700042F002020A60416841604168416041689E
:1005800041F480614160416821F47C11416041681F
:1005900041F4E8114160016841F080710160016837
:1005A0008901FCD5416821F003014160416841F0B7
:1005B000020141604168C1F381010229FAD10CBDF9
:1005C00000910CBD244810B5016841F001010160A3
:1005D0004168234A114041600168224A114001608C
:1005E000016821F480210160416821F4FE0141602D
:1005F0004FF41F018160FFF795FF1B494FF000602A
:10060000086010BD144910B54868184A10F00C0372
:10061000174803D0042B01D0082B0AD00260496888
:10062000134AC1F30311121D515C0268CA400260F3
:1006300010BD4A684B6802F470124FF0020413F4C4
:10064000803F04EB924202D04B689B0301D5094BDB
:1006500000E0064B5A43E1E7001002400020024050
:100660000000FFF8FFFFF6FE08ED00E000127A0040
:100670000000002000093D0038B50121802008F06D
:10068000E0FD4FF4F864ADF8004010208DF8030051
:100690000320064D8DF802006946284608F0E7FB66
:1006A0002146284608F051FC38BD0000001C0140DE
:1006B00008B50121342008F0C4FD40F20110ADF866
:1006C000000048208DF8030069463B4808F0CFFB46
:1006D0000820ADF800006946384808F0C8FB4FF420
:1006E0000050ADF800006946354808F0C0FB08BD71
:1006F0002DE9F0470126334CDFF8C080DFF8C0A0B9
:100700002D4D37024FF4005908B1267001E02078D2
:1007100098B10121284608F004FCA8B139462846C2
:1007200008F0FFFB80B10821404608F0FAFB58B101
:100730004946504608F0F5FB30B10121284608F043
:10074000F0FB012823D035E00A2007F0F0FE00205E
:1007500020700121284608F0E4FB78B1394628468C
:1007600008F0DFFB68B10821404608F0DAFB50B121
:100770004946504608F0D5FB38B11BE00420BDE8DF
:10078000F0870220FBE70320F9E70120F7E739466D
:10079000284608F0C6FB01280CD10821404608F085
:1007A000C0FB012806D14946504608F0BAFB012893
:1007B00000D126700020E2E700080140001401404B
:1007C0000010014014000020FE4908807047FD49D8
:1007D000891C08807047FB4808B5801C0088ADF86C
:1007E0000000BDF8000008BDF64A1080901C018092
:1007F0007047F44910B50880052007F079FEBDE880
:100800001040E8E7F048EF49008908807047ED495B
:10081000891C08807047C0F34511C20AC00200EB72
:100820004110104480B27047401EC0B2FCD27047E5
:100830002DE9F04FE44E0C4601464FEA102C3046AD
:10084000B588DFF880B38289230A4089A5F513476C
:100850000BF1020A413F1CD0A5F5A647103F18D066
:10086000B64696F806903688A5F5D047A6EB01085F
:10087000A8F10108043F13D0A5F5C857633F23D062
:10088000A5F5AA477646103F4ED0B9F1010F60D0CA
:1008900061E05D46ABF800005046AAF800C00BE0EE
:1008A000B9F1010F01D11FFA88F15D46ABF80000E4
:1008B0000E0A5046AAF80060C9B201802A8003805F
:1008C000E1B20180BDE8F08FB9F1000F1DD0ABF8A7
:1008D00000005046AAF800C0C9B2AAF80010761E5F
:1008E000310AAAF80010F1B20180ABF8002050469E
:1008F000AAF80030E1B2AAF80010BEF80210491EB2
:100900000A0AAAF80020C9B2DBE71FFA88F1ABF89F
:10091000000000265046AAF80060AAF800600E0AFF
:10092000AAF80060C9B2DFE7ABF80000AAF800C07F
:10093000401CABF80000C8B2AAF80000ABF80020D9
:10094000AAF80030521CABF80020E0B2AAF8000070
:10095000B8E71FFA88F1FFF747FFB0892146BDE8E5
:10096000F04F41E7F0B5984C002635462288824288
:1009700002D962888A4201D80020F0BDFFF758FFF3
:10098000A08849F241318F4B41F6631C45F2103289
:1009900045F21057884208D0A0F5D04EBEF1040EA3
:1009A00003D0904201D0604502D14FF02E0E06E0F8
:1009B000B84202D14FF4385E01E04FF0220EA3F8A6
:1009C00000E0A0F51343203B03D10120401EC0B23C
:1009D000FCD2FFF700FFA3886345CED00120401E64
:1009E000C0B2FCD2FFF7F7FE8446A088884203D04D
:1009F000904201D0B8420CD10120401EC0B2FCD2BE
:100A0000FFF7E9FE05460CF0FF004FF6FF7303EA1F
:100A10000026A088A0F51343253B1FD0A0F58A43EC
:100A2000353B1BD0A0F58A43313B17D0A0F53543A9
:100A3000053B13D0A0F54543053B0FD0884203D0BA
:100A4000904201D0B8420BD14FEADC204FEAC020DF
:100A5000B10A40EA411040EAD520F0BD6046F0BD41
:100A6000BDE8F0406046D6E6574856498088A0F574
:100A70001342413A13D0A0F5D042043A0FD0A0F56A
:100A8000A642103A0BD0A0F5C852633A07D0A0F5A1
:100A9000AA42103A05D040F273110720A4E629209B
:100AA00001E04FF42450088070474748454980884A
:100AB000A0F51342413A12D0A0F5D042043A0ED02C
:100AC000A0F5A642103A0AD0A0F5C852633A06D063
:100AD000A0F5AA42103A04D00021072084E628207D
:100AE00001E04FF4205008807047F0B5364C0023E9
:100AF0002146A579898846F6040241F66316012D40
:100B000001D02DB11DE091421BD0B14202D118E0BD
:100B1000B14216D1082814D2DFE800F00406080A12
:100B20000C0E101206200CE007200AE0042008E05A
:100B3000052006E0012004E0002002E0032000E0A0
:100B40000220A1F5134C45F2103745F21055BCF1C7
:100B5000410C07D0914205D0B94203D0A94201D03F
:100B6000B1427AD1082812D2DFE800F01104060859
:100B70000A0C0E1080230AE0402308E0C02306E0A0
:100B8000202304E0602302E0A02300E0E023A94248
:100B900002D14FF4585000E03620B94205D0A942A6
:100BA00003D0B14201D043F00803914201D143F098
:100BB00002031946FFF718FEA088B0420FD099062D
:100BC000218803E0FE07006C40240020628802D5E3
:100BD000914202D303E0914201D922806180FE4913
:100BE0008A1CA8426089088021D100231380431CFD
:100BF0000B8000231380831C0B8023885B1E1D0A3F
:100C00001580C01C0880D8B21080A08908800023FD
:100C10001380431C0B8000231380831C0B8063888C
:100C20005B1E1C0A1480C01C0880D8B212E0002091
:100C3000108010802088401E030A1380C0B21080EC
:100C4000A08908800020108010806088401E010A62
:100C50001180C0B21080F0BDFFE7082812D2DFE893
:100C600000F0040608110A0C0E1030230AE01023CD
:100C700008E0202306E0382304E0282302E01823BC
:100C800000E00823BDE8F040032043F48051ABE5C9
:100C900000B5FFF7CDFDFFF7B5FDD048CE49891C63
:100CA0000088088000BD2DE9F04FDFF834830C4642
:100CB0000146060A40469346B8F80450DFF818A3E8
:100CC0008289230A4089A5F513470AF10209413FA9
:100CD00019D0A5F5A647103F15D0A5F5AA47103F96
:100CE00015D04746A5F5C85CBE793F887F1A7F1EA0
:100CF000BCF1630C20D0A5F5D04CBCF1040C33D072
:100D0000012E43D043E05546AAF8000033E0AAF88C
:100D10000000A9F80060401CAAF80000C8B2A9F8B9
:100D20000000AAF80020A9F80030521CAAF8002000
:100D3000E0B2A9F8000031E006B9B9B2AAF80000A3
:100D40000D0A4846A9F80050CFB2A9F80070A9F8DA
:100D50000050C9B2A9F80010AAF80020A9F8003084
:100D6000E1B2A9F800100DE0012E00D1B9B255464C
:100D7000AAF800000E0A4846A9F80060C9B2A9F80E
:100D800000102A800380E1B2018007E0B9B2FFF7CA
:100D90002BFDB8F80C002146FFF726FDB8F8081027
:100DA000AAF80010A9F800B08CE58B4A10B5BE2156
:100DB0001180941C0521218013F0F5FE4FF066325E
:100DC000884B13F05FFE13F028FF20800120208065
:100DD000FF20208000202080208010BD2DE9F04FD2
:100DE0007F492A242B25898845F2105A4FF4305B1D
:100DF0004FF4285E4FF448764FF0F00C49F2413939
:100E00004FF4A07345F210374FF4F07280B174487C
:100E10004FF00108494580F806800380A0F802C021
:100E200001D0B9423ED12C2606814481858157E00C
:100E30006B484FF00008494580F80680A0F800C0D4
:100E4000438006D0A1F5D04CBCF1040C01D0B942CE
:100E50000CD12C2606814481A1F5D0448581043C27
:100E600001D0B94244D10380428041E0514507D1CD
:100E7000A0F808B0A0F80AE04FF42C5181810EE0F0
:100E8000A1F5C853633B06D0222101812021418175
:100E9000212181812CE02C210181458184810280E6
:100EA000468025E0A1F5D04CBCF1040C09D0514599
:100EB0000BD1A0F808B0A0F80AE04FF42C548481BC
:100EC00020E02C260681458109E0A1F5C85CBCF133
:100ED000630C11D0222404812124448120248481A4
:100EE000A1F5D044043C01D0B94201D10280438035
:100EF000BDE8F04F0020F8E54FF02C0CA0F808C03A
:100F00004481858106804280EAE72DE9FC4F0E4648
:100F10009146054648441944401E491E84B288B291
:100F2000009105EB0901491EC1F3072EDFF8B0C09F
:100F300000994FEA152AC1F3072B6146BCF804302B
:100F40008A894989A3F513474FEA1628413F10D0F3
:100F5000A3F5A647103F0CD0A3F5D047043F08D017
:100F60009CF8067041F6631C0197012F17D1634569
:100F700015D1194B1980991CA1F800A0EDB20D8074
:100F8000A1F800E0E4B20C801A80A1F80080F2B26F
:100F90000A80A1F800B0C0B20880BDE8FC8F104FF5
:100FA00063453F8826D1A7EB0900401B83B20A4D59
:100FB000009884B22980190AA81C0180D9B2018046
:100FC00003EB0901491E0B0A0380C9B201802A8084
:100FD000A0F80080F1B207E0FE07006C16000020C8
:100FE00040240020666604400180210A0180E1B2AD
:100FF0000180D2E7A3F5A04CBCF5A26C21D00199E9
:10100000012941D0234629463446074650204FF057
:1010100051094FF052084FF0530CFFF7E5FB19460A
:101020004846FFF7E1FB21464046FFF7DDFB394626
:101030006046FFF7D9FB31462846BDE8FC4FFFF775
:10104000F7BBFE4B19809F1CA7F800A001F1010C13
:10105000A3F800C0EDB23D808D1C1D80A7F800E014
:10106000C91C1980E1B239801A80A7F80080511C90
:101070001980F1B23980911C1980A7F800B0D21CF8
:101080001A80C0B2388088E70346381B401E84B2FD
:10109000781B401E314687B2B8E72DE9F043E84C93
:1010A00081460025208866884643A088A0F5D04167
:1010B000043902D1A079012809D000210846FFF7A0
:1010C000B7FB00BFFFF79EFBDC48801C13E000204D
:1010D000A0712A2767814FF02B08A4F80C800146E5
:1010E000FFF7A6FB0120A071A4F80A80A781E9E719
:1010F000A0F800906D1CB542FAD3BDE8F0832DE94D
:10110000F04F01210E02A1B0304608F091F8012104
:1011100040F2691008F095F83501ADF840504FF0F5
:1011200010088DF8438003248DF8424010A9C5486B
:1011300007F09DFE4CF23370ADF8400018278DF893
:1011400043708DF8424010A9BF4807F090FE4FF65B
:101150008070ADF840008DF843708DF8424010A9C2
:10116000BA4807F084FE681CADF840008DF8437063
:101170008DF8424010A9B64807F079FE0120119081
:1011800000200F21CDE912011490159016901790B0
:101190001890CDE919041B901C9006211E90CDE9F2
:1011A0000208CDE900101D900490CDE908050690D5
:1011B00005900790A900CDE90A010C9011A80D90A7
:1011C00018A80E90684607F0F2FB0121062007F0F0
:1011D00023FD322007F0ABF90020FFF70AFB984D02
:1011E000964C49F24139A88046F6040A45F2103B74
:1011F00045F210574FF6FF78FF2804D3404502D040
:10120000B0F5134F70D1D3202080FFF7E4FAA88007
:10121000FFF7E1FAA880FFF7DEFA08EA002041466E
:10122000A880FFF7D8FAAA881043A88048455BD069
:10123000BF202080FFF7CFFAA880FFF7CCFAA88064
:10124000FFF7C9FAA880FFF7C6FA01EA0020A880D4
:10125000FFF7C1FAAA881043A880504544D0D42093
:101260002080FFF7B8FAA880FFF7B5FAA880FFF74B
:10127000B2FA01EA0020A880FFF7ADFAAA8810436D
:10128000A880584530D04FF45A402080FFF7A3FA89
:10129000A8804FF45B402080FFF79DFA01EA002010
:1012A000A8804FF45C402080FFF795FAAA8810438D
:1012B000A880B0F5004F7DD0B84215D0A120208085
:1012C000FFF789FAA880FFF786FA01EA0020A880D4
:1012D000FFF781FAA9880843A0F5AE41A8806139DB
:1012E00002D141F66310A880A9885AA022F0B6FE68
:1012F000A888524DAD1C48457ED1CF2020800020CB
:101300002880C120288030202880ED202080642083
:101310002880032028801220288081202880E8202F
:10132000208085202880102028807A202880CB20CB
:101330002080392028802C202880002028803420FC
:10134000288002202880F720208020202880EA2082
:101350002080002028802880C02020801B2028801A
:10136000C120208001202880C520208030202880B6
:101370002880C7202080B720288036202080482061
:1013800028803A20208055202880B120208000200D
:1013900028801A202880B62020800A202880A220B9
:1013A0002880F22020800020288026202080012014
:1013B000288000E066E0E02020800F2028802A209E
:1013C000288028202880082028800E2028800820B7
:1013D000288054202880A9202880432028800A20A3
:1013E00028800F20288000202880288028802880BE
:1013F000E1202080002000E046E0288015202880A1
:101400001720288007202880112028800620288087
:101410002B202880562028803C20288005202880EA
:10142000102028800F2028803F20288028800F202F
:1014300028802B2020800020288013E0FE07006CED
:1014400040240020000C014000140140001801401D
:1014500000200140204C43442049443A25780D0A9D
:10146000000000002880012028803F2028802A20BA
:1014700020800020288028802880EF2028801120CC
:1014800020806EE0AF802FE7504571D11120208081
:10149000142007F04CF8D02020800720288042201C
:1014A00028801D202880D1202080002028801A201C
:1014B000288009202880D220208001202880222016
:1014C0002880C0202080102028803B2028800020F9
:1014D00028800220288011202880C5202080032019
:1014E0002880C820208000202880252028802120D6
:1014F000288005202880002028800A202880652058
:1015000028802520288077202880502028800F20C0
:10151000288000202880F820208001202880FE20BC
:101520002080002028800220288020202080362053
:101530002080082028803A202080552028802B20D9
:101540002080002028802880012028803F202880BB
:101550002A20208000202880288001202880DF2069
:101560002880782006F0E3FF292001F02EBCFFE759
:1015700058457DD1ED20208001202880FE20288044
:10158000EE202080DE20288021202880F12020806D
:1015900001202880DF20208010202880C420208087
:1015A0008F202880C620208000202880E2202880EC
:1015B00028802880BF202080AA202880B02020807A
:1015C0000D202880002028800D20288000202880E1
:1015D00011202880002028801920288000202880C1
:1015E00021202880002028802D202880002028808D
:1015F0003D202880002028805D2028800020288031
:101600005D20288000202880B12020808020288034
:10161000002028808B202880002028809620288089
:1016200000202880B22020800020288028800220EE
:101630002880002028800320288000202880B320D4
:1016400020800020288028802880288028802880EA
:10165000288028802880288028802880288028804A
:10166000288028802880288028802880288000E002
:10167000FEE3288028802880B42020808B202880CA
:10168000002028809620288000202880A120288003
:1016900000202880B520208002202880002028807B
:1016A0000320288000202880042028800020288013
:1016B000B6202080002028802880B72020800020AD
:1016C000288028803F202880002028805E202880D5
:1016D0000020288064202880002028808C202880FA
:1016E00000202880AC20288000202880DC20288052
:1016F00000202880702028800020288090202880CA
:1017000000202880EB20288000202880DC202880F2
:1017100000202880B8202080002028802880288071
:1017200028802880288028802880BA2020802420B3
:1017300028800020288028802880C1202080202028
:101740002880002028805420288000202880FF2026
:10175000288000202880C22020800A2028800020A5
:1017600028800420288000202880C32020803C205E
:101770002880002028803A202880002028803920D6
:1017800028800020288037202880002028803C20C6
:1017900028800020288036202880002028803220C1
:1017A0002880002028802F202880002028802C20BE
:1017B00028800020288029202880002028802620BA
:1017C00028800020288024202880002028802420B1
:1017D00028800020288023202880002028803C208A
:1017E0002880002028803620288000202880322071
:1017F0002880002028802F202880002028802C206E
:101800002880002028802920288000202880262069
:101810002880002028802420288000202880242060
:101820002880002028802320288000202880C420B1
:101830002080622028800020288005202880002029
:1018400028808420288000202880F0202880002004
:1018500028801820288000202880A42028800020AC
:1018600028801820288000202880502028800020F0
:1018700028800C2028800020288017202880002025
:1018800028809520288000202880F32028800020B0
:101890002880E620288000202880C5202080322053
:1018A000288000202880442028800020288065206F
:1018B000288000202880762028800020288088200A
:1018C000288000202880C62020802020288000201A
:1018D00028801720288000202880012028800020D0
:1018E0002880C72020800020288028802880288009
:1018F000C820208000202880288028802880C920B7
:101900002080002028802880288028802880288027
:101910002880288028802880288028802880288087
:1019200028802880E0202080162028800020288021
:101930001C2028800020288021202880002028804A
:1019400036202880002028804620288000202880FB
:1019500052202880002028806420288000202880B1
:101960007A202880002028808B2028800020288052
:101970009920288000202880A82028800020288006
:10198000B920288000202880C420288000202880BA
:10199000CA20288000202880D2202880002028808B
:1019A000D920288000202880E0202880002028805E
:1019B000F320288000202880E12020801620288025
:1019C000002028801C2028800020288022202880B9
:1019D000002028803620288000202880452028806C
:1019E0000020288052202880002028806420288021
:1019F000002028807A202880002028808B202880C2
:101A0000002028809920288000202880A820288075
:101A100000202880B920288000202880C420288029
:101A200000202880CA20288000202880D2202880FA
:101A300000202880D820288000202880E0202880CE
:101A400000202880F320288000202880E2202080A9
:101A500005202880002028800B2028800020288056
:101A60001B20288000202880342028800020288007
:101A700044202880002028804F20288000202880B3
:101A8000612028800020288079202880002028805C
:101A90008820288000202880972028800020288007
:101AA000A620288000202880B720288000202880B9
:101AB000C220288000202880C7202880002028807D
:101AC000D120288000202880D6202880002028804F
:101AD000DD20288000202880F32028800020288016
:101AE000E320208005202880002028800A202880EC
:101AF000002028801C202880002028803320288077
:101B00000020288044202880002028805020288021
:101B100000202880622028800020288078202880CB
:101B20000020288088202880002028809720288076
:101B300000202880A620288000202880B720288028
:101B400000202880C220288000202880C7202880EC
:101B500000202880D120288000202880D5202880BF
:101B600000202880DD20288000202880F320288085
:101B700000202880E4202080012028800020288068
:101B80000120288000202880022028800020288032
:101B90002A202880002028803C20288000202880BF
:101BA0004B202880002028805D202880002028806D
:101BB000742028800020288084202880002028800D
:101BC0009320288000202880A220288000202880C0
:101BD000B320288000202880BE2028800020288074
:101BE000C420288000202880CD2028800020288044
:101BF000D320288000202880DD2028800020288015
:101C0000F320288000202880E520208000202880E4
:101C100028802880288002202880002028802920F1
:101C20002880002028803C202880002028804B200D
:101C30002880002028805D202880002028807420B3
:101C4000288000202880842028800020288093205D
:101C5000288000202880A220288000202880B3200F
:101C6000288000202880BE20288000202880C420D2
:101C7000288000202880CD20288000202880D320A4
:101C8000288000202880DC20288000202880F32065
:101C9000288000202880E620208011202880002035
:101CA000288034202880002028805620288000208A
:101CB0002880762028800020288077202880002017
:101CC0002880662028800020288088202880002006
:101CD00028809920288000202880BB202880002090
:101CE00028809920288000202880662028800020D5
:101CF000288055202880002028805520288000201A
:101D0000288045202880002028804320288000202B
:101D100028804420288000202880E720208032204E
:101D200028800020288055202880002028807620C8
:101D300028800020288066202880002028806720B6
:101D40002880002028806720288000202880872085
:101D50002880002028809920288000202880BB200F
:101D60002880002028809920288000202880772043
:101D700028800020288044202880002028805620A9
:101D800028800020288023202880002028803320DD
:101D90002880002028804520288000202880E820F6
:101DA00020800020288028809920288000202880FA
:101DB00087202880002028808820288000202880F4
:101DC0007720288000202880662028800020288016
:101DD0008820288000202880AA20288000202880B1
:101DE000BB2028800020288099202880002028807F
:101DF0006620288000202880552028800020288008
:101E00005520288000202880442028800020288019
:101E10004420288000202880552028800020288009
:101E2000E9202080AA20288000202880288028807F
:101E30002080AA202880CF20208000202880288091
:101E40002880288028802880288028802880288052
:101E50002880288028802880288028802880F020DA
:101E6000208000202880502028800020288000E04A
:101E70002CE028802880F320208000202880F92072
:101E800020800620288010202880292028800020FB
:101E900028803A202080552028801120208064202E
:101EA00006F045FB29202080352020800020288056
:101EB00051202080FF202880532020802C20288043
:101EC00055202080822028802C20FDE3B8427CD140
:101ED0004FF4704355211846FEF786FC4FF201057A
:101EE000AA212846FEF780FC6E1C52213046FEF7E0
:101EF0007BFCAF1C08213846FEF776FC4FF2040C41
:101F000001216046FEF770FC0D214FF43040FEF7D2
:101F10006BFC0D214BF20100FEF766FC0D214BF22C
:101F20000200FEF761FC4FF4364934214846FEF7C3
:101F30005BFC34214BF20160FEF756FC34214BF27E
:101F40000260FEF751FC4FF4314A0D215046FEF776
:101F50004BFC4BF2011B0D215846FEF745FC0D21B1
:101F60004BF20210FEF740FC34214FF43740FEF7ED
:101F70003BFC34214BF20170FEF736FC34214BF26E
:101F80000270FEF731FC00214FF43240FEF72CFCCA
:101F900000214BF20120FEF727FC00214BF202202A
:101FA000FEF722FC24214FF43840FEF71DFC2421CB
:101FB0004BF60100FEF718FC24214BF60200FEF759
:101FC00013FC01214FF43F4000E0FCE3FEF70CFC62
:101FD0000F214FF43340FEF707FC0F214BF2013085
:101FE000FEF702FC0F214BF20230FEF7FDFB34211D
:101FF0004FF43940FEF7F8FB34214BF60110FEF7A1
:10200000F3FB34214BF60210FEF7EEFB08214FF4F0
:102010003540FEF7E9FB08214BF20150FEF7E4FBE7
:1020200008214BF20250FEF7DFFB03214FF4424040
:10203000FEF7DAFB24214FF43A40FEF7D5FB2421CA
:102040004BF60120FEF7D0FB24214BF60220FEF7D1
:10205000CBFB00214FF43C40FEF7C6FB78214BF64A
:102060000140FEF7C1FB00214BF60240FEF7BCFB2E
:1020700000214FF43D40FEF7B7FB78214BF60150AD
:10208000FEF7B2FB00214BF60250FEF7ADFB00213C
:102090004FF43E40FEF7A8FB64214BF60160FEF7CB
:1020A000A3FB00214FF45140FEF79EFB33214DF27C
:1020B0000110FEF799FB00214DF20210FEF794FB90
:1020C00034214DF20310FEF78FFB00214DF2041076
:1020D000FEF78AFB3A214DF20510FEF785FB002141
:1020E0004DF20610FEF780FB4A214DF20710FEF775
:1020F0007BFB00214DF20810FEF776FB5C214DF2D0
:102100000910FEF771FB00214DF20A10FEF76CFB7F
:1021100081214DF20B10FEF767FB00214DF20C10F0
:10212000FEF762FBA6214DF20D10FEF75DFB0021CC
:102130004DF20E10FEF758FBE5214DF20F10FEF7A1
:1021400053FB01214DF21010FEF74EFB13214DF20F
:102150001110FEF749FB01214DF21210FEF744FB6E
:1021600054214DF21310FEF73FFB01214DF21410E4
:10217000FEF73AFB82214DF21510FEF735FB0121E7
:102180004DF21610FEF730FBCA214DF21710FEF784
:102190002BFB02214DF21810FEF726FB00214DF219
:1021A0001910FEF721FB02214DF21A10FEF71CFB5D
:1021B00001214DF21B10FEF717FB02214DF21C10FE
:1021C000FEF712FB34214DF21D10FEF70DFB02212C
:1021D0004DF21E10FEF708FB67214DF21F10FEF7AF
:1021E00003FB02214DF22010FEF7FEFA84214DF28E
:1021F0002110FEF7F9FA02214DF22210FEF7F4FA4F
:10220000A4214DF22310FEF7EFFA02214DF2241023
:10221000FEF7EAFAB7214DF22510FEF7E5FA0221A2
:102220004DF22610FEF7E0FACF214DF22710FEF70F
:10223000DBFA02214DF22810FEF7D6FADE214DF22C
:102240002910FEF7D1FA02214DF22A10FEF7CCFA3E
:10225000F2214DF22B10FEF7C7FA02214DF22C109D
:10226000FEF7C2FAFE214DF22D10FEF7BDFA032152
:102270004DF22E10FEF7B8FA10214DF22F10FEF796
:10228000B3FA03214DF23010FEF7AEFA33214DF2CE
:102290003110FEF7A9FA03214DF23210FEF7A4FA2D
:1022A0006D214DF23310FEF79FFA00214FF452409A
:1022B000FEF79AFA33214DF20120FEF795FA00213C
:1022C0004DF20220FEF790FA34214DF20320FEF782
:1022D0008BFA00214DF20420FEF786FA3A214DF2E6
:1022E0000520FEF781FA00214DF20620FEF77CFA68
:1022F0004A214DF20720FEF777FA00214DF208201F
:10230000FEF772FA5C214DF20920FEF76DFA00210A
:102310004DF20A20FEF768FA81214DF20B20FEF7FC
:1023200063FA00214DF20C20FEF75EFAA6214DF271
:102330000D20FEF759FA00214DF20E20FEF754FA57
:10234000E5214DF20F20FEF74FFA01214DF210204A
:10235000FEF74AFA13214DF21120FEF745FA01214A
:102360004DF21220FEF740FA54214DF21320FEF7F1
:102370003BFA01214DF21420FEF736FA82214DF28C
:102380001520FEF731FA01214DF21620FEF72CFA46
:10239000CA214DF21720FEF727FA02214DF218202C
:1023A000FEF722FA00214DF21920FEF71DFA022154
:1023B0004DF21A20FEF718FA01214DF21B20FEF70C
:1023C00013FA02214DF21C20FEF70EFA34214DF2D1
:1023D0001D20FEF709FA02214DF21E20FEF704FA35
:1023E00067214DF21F20FEF7FFF902214DF2202058
:1023F000FEF7FAF984214DF22120FEF7F5F90221CA
:102400004DF22220FEF7F0F9A4214DF22320FEF731
:10241000EBF902214DF22420FEF7E6F9B7214DF247
:102420002520FEF7E1F902214DF22620FEF7DCF926
:10243000CF214DF22720FEF7D7F902214DF22820B7
:10244000FEF7D2F9DE214DF22920FEF7CDF9022167
:102450004DF22A20FEF7C8F9F2214DF22B20FEF7AB
:10246000C3F902214DF22C20FEF7BEF9FE214DF2F8
:102470002D20FEF7B9F903214DF22E20FEF7B4F915
:1024800010214DF22F20FEF7AFF903214DF230203D
:10249000FEF7AAF933214DF23120FEF7A5F9032109
:1024A0004DF23220FEF7A0F96D214DF23320FEF7F8
:1024B0009BF900214FF45340FEF796F933214DF27A
:1024C0000130FEF791F900214DF20230FEF78CF950
:1024D00034214DF20330FEF787F900214DF204302C
:1024E000FEF782F93A214DF20530FEF77DF9002121
:1024F0004DF20630FEF778F94A214DF20730FEF72B
:1025000073F900214DF20830FEF76EF95C214DF2AF
:102510000930FEF769F900214DF20A30FEF764F93F
:1025200081214DF20B30FEF75FF900214DF20C30A6
:10253000FEF75AF9A6214DF20D30FEF755F90021AC
:102540004DF20E30FEF750F9E5214DF20F30FEF757
:102550004BF901214DF21030FEF746F913214DF2EF
:102560001130FEF741F901214DF21230FEF73CF92E
:1025700054214DF21330FEF737F901214DF214309A
:10258000FEF732F982214DF21530FEF72DF90121C7
:102590004DF21630FEF728F9CA214DF21730FEF73A
:1025A00023F902214DF21830FEF71EF900214DF2F9
:1025B0001930FEF719F902214DF21A30FEF714F91D
:1025C00001214DF21B30FEF70FF902214DF21C30B4
:1025D000FEF70AF934214DF21D30FEF705F902210C
:1025E0004DF21E30FEF700F967214DF21F30FEF765
:1025F000FBF802214DF22030FEF7F6F884214DF26F
:102600002130FEF7F1F802214DF22230FEF7ECF80E
:10261000A4214DF22330FEF7E7F802214DF22430D9
:10262000FEF7E2F8B7214DF22530FEF7DDF8022182
:102630004DF22630FEF7D8F8CF214DF22730FEF7C5
:10264000D3F802214DF22830FEF7CEF8DE214DF20C
:102650002930FEF7C9F802214DF22A30FEF7C4F8FE
:10266000F2214DF22B30FEF7BFF802214DF22C3053
:10267000FEF7BAF8FE214DF22D30FEF7B5F8032132
:102680004DF22E30FEF7B0F810214DF22F30FEF74C
:10269000ABF803214DF23030FEF7A6F833214DF2AE
:1026A0003130FEF7A1F803214DF23230FEF79CF8ED
:1026B0006D214DF23330FEF797F800214FF454406E
:1026C000FEF792F8332100E07FE34DF20140FEF780
:1026D0008BF800214DF20240FEF786F834214DF2CE
:1026E0000340FEF781F800214DF20440FEF77CF82C
:1026F0003A214DF20540FEF777F800214DF20640F1
:10270000FEF772F84A214DF20740FEF76DF80021FE
:102710004DF20840FEF768F85C214DF20940FEF7E3
:1027200063F800214DF20A40FEF75EF881214DF278
:102730000B40FEF759F800214DF20C40FEF754F81B
:10274000A6214DF20D40FEF74FF800214DF20E404C
:10275000FEF74AF8E5214DF20F40FEF745F801215A
:102760004DF21040FEF740F813214DF21140FEF7F4
:102770003BF801214DF21240FEF736F854214DF29C
:102780001340FEF731F801214DF21440FEF72CF80A
:1027900082214DF21540FEF727F801214DF2164037
:1027A000FEF722F8CA214DF21740FEF71DF802216C
:1027B0004DF21840FEF718F800214DF21940FEF7CF
:1027C00013F8022100E002E34DF21A40FEF70CF884
:1027D00001214DF21B40FEF707F802214DF21C408B
:1027E000FEF702F834214DF21D40FDF7FDFF0221F6
:1027F0004DF21E40FDF7F8FF67214DF21F40FDF737
:10280000F3FF02214DF22040FDF7EEFF84214DF24F
:102810002140FDF7E9FF02214DF22240FDF7E4FFE0
:10282000A4214DF22340FDF7DFFF02214DF22440A9
:10283000FDF7DAFFB7214DF22540FDF7D5FF022164
:102840004DF22640FDF7D0FFCF214DF22740FDF796
:10285000CBFF02214DF22840FDF7C6FFDE214DF2ED
:102860002940FDF7C1FF02214DF22A40FDF7BCFFD0
:10287000F2214DF22B40FDF7B7FF02214DF22C4023
:10288000FDF7B2FFFE214DF22D40FDF7ADFF032114
:102890004DF22E40FDF7A8FF10214DF22F40FDF71D
:1028A000A3FF03214DF23040FDF79EFF33214DF28F
:1028B0003140FDF799FF03214DF23240FDF794FFBF
:1028C0006D214DF23340FDF78FFF00214FF455404D
:1028D000FDF78AFF33214DF20150FDF785FF0021FE
:1028E0004DF20250FDF780FF34214DF20350FDF709
:1028F0007BFF00214DF20450FDF776FF3A214DF2A7
:102900000550FDF771FF00214DF20650FDF76CFFF9
:102910004A214DF20750FDF767FF00214DF20850A4
:10292000FDF762FF5C214DF20950FDF75DFF0021CC
:102930004DF20A50FDF758FF81214DF20B50FDF783
:1029400053FF00214DF20C50FDF74EFFA6214DF232
:102950000D50FDF749FF00214DF20E50FDF744FFE9
:10296000E5214DF20F50FDF73FFF01214DF21050D0
:10297000FDF73AFF13214DF21150FDF735FF01210C
:102980004DF21250FDF730FF54214DF21350FDF778
:102990002BFF01214DF21450FDF726FF82214DF24D
:1029A0001550FDF721FF01214DF21650FDF71CFFD8
:1029B000CA214DF21750FDF717FF02214DF21850B2
:1029C000FDF712FF00214DF21950FDF70DFF022116
:1029D0004DF21A50FDF708FF01214DF21B50FDF793
:1029E00003FF02214DF21C50FDF7FEFE34214DF293
:1029F0001D50FDF7F9FE02214DF21E50FDF7F4FEC9
:102A000067214DF21F50FDF7EFFE02214DF22050DD
:102A1000FDF7EAFE84214DF22150FDF7E5FE02218B
:102A20004DF22250FDF7E0FEA4214DF22350FDF7B8
:102A3000DBFE02214DF22450FDF7D6FEB7214DF208
:102A40002550FDF7D1FE02214DF22650FDF7CCFEB8
:102A5000CF214DF22750FDF7C7FE02214DF228503D
:102A6000FDF7C2FEDE214DF22950FDF7BDFE022129
:102A70004DF22A50FDF7B8FEF2214DF22B50FDF732
:102A8000B3FE02214DF22C50FDF7AEFEFE214DF2B9
:102A90002D50FDF7A9FE03214DF22E50FDF7A4FEA7
:102AA00010214DF22F50FDF79FFE03214DF23050C3
:102AB000FDF79AFE33214DF23150FDF795FE0321CB
:102AC0004DF23250FDF790FE6D214DF23350FDF77F
:102AD0008BFE00214FF45640FDF786FE33214DF268
:102AE0000160FDF781FE00214DF20260FDF77CFEE2
:102AF00034214DF20360FDF777FE00214DF20460B2
:102B0000FDF772FE3A214DF20560FDF76DFE0021E2
:102B10004DF20660FDF768FE4A214DF20760FDF7B1
:102B200063FE00214DF20860FDF75EFE5C214DF270
:102B30000960FDF759FE00214DF20A60FDF754FED1
:102B400081214DF20B60FDF74FFE00214DF20C602C
:102B5000FDF74AFEA6214DF20D60FDF745FE00216E
:102B60004DF20E60FDF740FEE5214DF20F60FDF7DE
:102B70003BFE01214DF21060FDF736FE13214DF2B0
:102B80001160FDF731FE01214DF21260FDF72CFEC0
:102B900054214DF21360FDF727FE01214DF2146020
:102BA000FDF722FE82214DF21560FDF71DFE012189
:102BB0004DF21660FDF718FECA214DF21760FDF7C1
:102BC00013FE02214DF21860FDF70EFE00214DF2BA
:102BD0001960FDF709FE02214DF21A60FDF704FEAF
:102BE00001214DF21B60FDF7FFFD02214DF21C603B
:102BF000FDF7FAFD34214DF21D60FDF7F5FD0221D0
:102C00004DF21E60FDF7F0FD67214DF21F60FDF7EC
:102C1000EBFD02214DF22060FDF7E6FD84214DF22F
:102C20002160FDF7E1FD02214DF22260FDF7DCFDA0
:102C3000A4214DF22360FDF7D7FD02214DF224605F
:102C4000FDF7D2FDB7214DF22560FDF7CDFD022144
:102C50004DF22660FDF7C8FDCF214DF22760FDF74C
:102C6000C3FD02214DF22860FDF7BEFDDE214DF2CD
:102C70002960FDF7B9FD02214DF22A60FDF7B4FD90
:102C8000F2214DF22B60FDF7AFFD02214DF22C60D9
:102C9000FDF7AAFDFE214DF22D60FDF7A5FD0321F4
:102CA0004DF22E60FDF7A0FD10214DF22F60FDF7D3
:102CB0009BFD03214DF23060FDF796FD33214DF26F
:102CC0003160FDF791FD03214DF23260FDF78CFD7F
:102CD0006D214DF23360FDF787FD55211846FDF754
:102CE00083FDAA212846FDF77FFD52213046FDF7DE
:102CF0007BFD08213846FDF777FD00216046FDF792
:102D000073FDCC215046FDF76FFD00215846FDF7BD
:102D10006BFD05214846FDF767FD70214FF43740F4
:102D2000FDF762FD70214BF20170FDF75DFD0121A1
:102D30004FF43840FDF758FD03214BF60100FDF735
:102D400053FD03214BF60200FDF74EFD03214BF628
:102D50000300FDF749FD02214FF43C40FDF744FD1F
:102D600000214BF60140FDF73FFD00214BF60240EC
:102D7000FDF73AFDD0214FF44940FDF735FD022122
:102D80004CF60110FDF730FD50214CF60210FDF716
:102D90002BFD50214CF60310FDF726FD50214CF67B
:102DA0000410FDF721FD00214FF45450FDF71CFDE8
:102DB00055214FF46850FDF717FD4FF488502080DF
:102DC000782005F095FB4FF424502080FEE3A0F519
:102DD00013414FF4E06940F2022A4FF4274B2539A2
:102DE0002ED0A0F5134140F2077728397ED0A0F508
:102DF00013414FF4887B203979D0A0F51341313944
:102E000076D0A0F5A841083973D0A0F5A8514FF4A9
:102E1000407B05396ED0A0F5354105396BD0A0F562
:102E20004541053968D0A0F58A4131397ED0A0F5F9
:102E30008A4135397BD0A0F5C851633978D0C5E7D0
:102E400047F6F001E520FDF7CFFC31460120FDF704
:102E5000CBFC49460220FDF7C7FC41F230010320BC
:102E6000FDF7C2FC00210420FDF7BEFC51460820FE
:102E7000FDF7BAFC00210920FDF7B6FC00210A206D
:102E8000FDF7B2FC00210C20FDF7AEFC00210D2067
:102E9000FDF7AAFC00210F20FDF7A6FC0021102061
:102EA000FDF7A2FC07211120FDF79EFC0021122056
:102EB000FDF79AFC00211320FDF796FC0021072066
:102EC000FDF792FC41F290611020FDF78DFC40F27D
:102ED00027211120FDF788FC9D211220FDF784FC9D
:102EE0004FF4C8511320FDF77FFC06E080E03CE181
:102EF000E1E1B7E253E3FDE3FDE325212920FDF7FE
:102F000073FC0D212B20FDF76FFC07213020FDF70E
:102F10006BFC40F203313120FDF766FC03213220C7
:102F2000FDF762FC40F20621352002E0FEE3FEE3FD
:102F3000FEE3FDF759FC08213620FDF755FC40F271
:102F400006413720FDF750FC4FF441713820FDF762
:102F50004BFC07213920FDF747FC40F202613C2081
:102F6000FDF742FC08213D20FDF73EFC00215020EA
:102F7000FDF73AFCEF215120FDF736FC00215220ED
:102F8000FDF732FC40F23F115320FDF72DFC59466E
:102F90006020FDF729FC01216120FDF725FC0021BF
:102FA0006A20FDF721FC00218020FDF71DFC002197
:102FB0008120FDF719FC00218220FDF715FC00217E
:102FC0008320FDF711FC00218420FDF70DFC00217A
:102FD0008520FDF709FC10219020FDF705FC4FF43A
:102FE000C0619220FDF700FC40F233110720FDE3A1
:102FF00041F28F01EC20FDF7F7FB41F23421EF2085
:10300000FDF7F2FB31460120FDF7EEFB49460220B9
:10301000FDF7EAFB41F230010320FDF7E5FB00215B
:103020000420FDF7E1FB51460820FDF7DDFB002100
:103030000920FDF7D9FB00210A20FDF7D5FB01216E
:103040000C20FDF7D1FB00210D20FDF7CDFB002169
:103050000F20FDF7C9FB00211020FDF7C5FB07215C
:103060001120FDF7C1FB00211220FDF7BDFB00215F
:103070001320FDF7B9FB01210720FDF7B5FB322036
:1030800005F055FA41F290411020FDF7ADFB40F2FA
:1030900027211120FDF7A8FB322005F048FA8A21EC
:1030A0001220FDF7A1FB322005F041FA4FF4D05178
:1030B0001320FDF799FB06212920FDF795FB0D2133
:1030C0002B20FDF791FB322005F031FA0021202062
:1030D000FDF78AFB00212120FDF786FB322005F059
:1030E00026FA00213020FDF77FFB40F204613120F9
:1030F000FDF77AFB40F205313220FDF775FB002128
:103100003520FDF771FB40F609413620FDF76CFBD9
:103110004FF401713720FDF767FB40F20131382091
:10312000FDF762FB39463920FDF75EFB00213C20AC
:10313000FDF75AFB40F60A213D20FDF755FB3220F2
:1031400005F0F5F900215020FDF74EFBEF2151204D
:10315000FDF74AFB00215220FDF746FB40F23F11EC
:103160005320FDF741FB594651E100210846FDF788
:103170003BFB31460120FDF737FB49460220FDF7B6
:1031800033FB41F230010320FDF72EFB0021042028
:10319000FDF72AFB51460820FDF726FB00210920F8
:1031A000FDF722FB00210A20FDF71EFB01210C2068
:1031B000FDF71AFB00210D20FDF716FB00210F2063
:1031C000FDF712FB322005F0B2F940F201110720A1
:1031D000FDF70AFB322005F0AAF94FF486511020C2
:1031E000FDF702FB07211120FDF7FEFA5B46594669
:1031F0001220FDF7F9FA4FF430611320FDF7F4FACD
:1032000000212920FDF7F0FA44F210012B20FDF7F0
:10321000EBFA00215020FDF7E7FAEF215120FDF7EE
:10322000E3FA00215220FDF7DFFA40F23F1153206C
:10323000FDF7DAFA4FF41C516020FDF7D5FA0121B1
:103240006120FDF7D1FA00216A20FDF7CDFA0021B7
:103250008020FDF7C9FA00218120FDF7C5FA002181
:103260008220FDF7C1FA00218320FDF7BDFA00217D
:103270008420FDF7B9FA00218520FDF7B5FA102169
:103280009020FDF7B1FA00219220FDF7ADFA01215F
:103290009320FDF7A9FA19469520FDF7A5FA00211C
:1032A0009720FDF7A1FA00219820FDF79DFA40F242
:1032B0007311072086E341F21401E720FDF794FA29
:1032C00031460120FDF790FA4FF400710220FDF71E
:1032D0008BFA41F238010320FDF786FA51460820A7
:1032E000FDF782FA00210920FDF77EFA00210A206D
:1032F000FDF77AFA00210C20FDF776FA00210D2067
:10330000FDF772FA00210F20FDF76EFA0021102060
:10331000FDF76AFA07211120FDF766FA0021122055
:10332000FDF762FA00211320FDF75EFAC82005F0D0
:10333000FEF841F290611020FDF756FA40F2272185
:103340001120FDF751FA322005F0F1F80C2112207E
:10335000FDF74AFA322005F0EAF84FF40061132035
:10336000FDF742FA11212920FDF73EFA0B212B200F
:10337000FDF73AFA322005F0DAF800212020FDF7B7
:1033800033FA40F23F1319462120FDF72DFA0021B0
:103390003020FDF729FA4FF4837421463120FDF7E0
:1033A00023FA00213220FDF71FFA4FF40171352076
:1033B000FDF71AFA41F20A613620FDF715FA39468F
:1033C0003720FDF711FA21463820FDF70DFA39466E
:1033D0003920FDF709FA40F202413C20FDF704FADA
:1033E00040F60F413D20FDF7FFF900215020FDF789
:1033F000FBF9EF215120FDF7F7F900215220FDF7ED
:10340000F3F919465320FDF7EFF94FF41C516020F2
:10341000FDF7EAF901216120FDF7E6F900216A20B4
:10342000FDF7E2F900218020FDF7DEF9002181207F
:10343000FDF7DAF900218220FDF7D6F9002183207B
:10344000FDF7D2F900218420FDF7CEF90021852077
:10345000FDF7CAF910219020FDF7C6F94FF4C061BD
:103460009220FDE331460120FDF7BEF949460220D6
:10347000FDF7BAF941F230010320FDF7B5F900215B
:103480000420FDF7B1F940F207210820FDF7ACF95F
:1034900000210920FDF7A8F900210A20FDF7A4F971
:1034A00000210C20FDF7A0F900210D20FDF79CF96B
:1034B00000210F20FDF798F9142005F038F841F2AB
:1034C000B0611020FDF790F901211120FDF78CF972
:1034D00001211720FDF788F94FF49C711220FDF7A8
:1034E00083F94FF400611320FDF77EF909212920AB
:1034F000FDF77AF909212A20FDF776F90021A420A9
:10350000FDF772F900215020FDF76EF9EF215120EF
:10351000FDF76AF900215220FDF766F940F23F11EC
:103520005320FDF761F94FF41C516020FDF75CF961
:1035300001216120FDF758F900216A20FDF754F9B7
:1035400000218020FDF750F900218120FDF74CF982
:1035500000218220FDF748F900218320FDF744F97E
:1035600000218420FDF740F900218520FDF73CF97A
:1035700013219020FDF738F900219220FDF734F94E
:1035800003219320FDF730F959469520FDF72CF9DA
:1035900040F273110720FDF727F9322011E10021D5
:1035A0000720FDF721F9322004F0C1FF4FF48E719E
:1035B0001220FDF719F90121A420FDF715F90F21BB
:1035C0000820FDF711F908210A2000E07BE3FDF750
:1035D0000BF908210D20FDF707F939463020FDF7DA
:1035E00003F907213120FDF7FFF840F20361322093
:1035F000FDF7FAF84C4649463320FDF7F5F85146F9
:103600003420FDF7F1F802213520FDF7EDF841F601
:103610000F713620FDF7E8F839463720FDF7E4F85A
:1036200000213820FDF7E0F800213920FDF7DCF813
:1036300039463A20FDF7D8F800213B20FDF7D4F8B1
:1036400007213C20FDF7D0F800213D20FDF7CCF804
:10365000322004F06CFF01210720FDF7C5F801219D
:103660001720FDF7C1F8322004F061FF4FF4BD517F
:103670001020FDF7B9F840F217211120FDF7B4F83A
:103680004FF48F711220FDF7AFF84FF470611320E3
:10369000FDF7AAF800212A20FDF7A6F80A21292023
:1036A000FDF7A2F84FF49F711220FDF79DF800215D
:1036B0005020FDF799F8EF215120FDF795F80021F2
:1036C0005220FDF791F840F23F115320FDF78CF89E
:1036D0004FF41C516020FDF787F801216120FDF7B0
:1036E00083F800216A20FDF77FF800218020FDF794
:1036F0007BF801E068E066E100218120FDF774F8C5
:1037000000218220FDF770F800218320FDF76CF87E
:1037100000218420FDF768F800218520FDF764F87A
:1037200013219020FDF760F8594602E015E2CBE244
:1037300072E39220FDF758F805219320FDF754F825
:1037400000219520FDF750F800219720FDF74CF857
:1037500000219820FDF748F831460120FDF744F894
:1037600021460220FDF740F841F238010320FDF721
:103770003BF800210420FDF737F800210C20FDF76D
:1037800033F800210F20FDF72FF800212020FDF74E
:103790002BF800212120FDF727F821210720FDF734
:1037A00023F8142004F0C3FE61210720FDF71CF864
:1037B000142004F0BCFE40F273110720FDF714F84A
:1037C000142004F0B4FEA1E300210846FDF70CF834
:1037D00000210846FDF708F800210846FDF704F827
:1037E00000210846FDF700F8012100E0E6E0A420F2
:1037F000FCF7FAFF142004F09AFE4FF41C54214603
:103800006020FCF7F1FF554651460820FCF7ECFF1D
:103810004FF405713020FCF7E7FF43F215713120BA
:10382000FCF7E2FF40F204613220FCF7DDFF40F6D6
:1038300016613320FCF7D8FF42F211213420FCF747
:10384000D3FF4FF4A8513520FCF7CEFF48F20751C3
:103850003620FCF7C9FF41F207413720FCF7C4FFCF
:1038600041F203413820FCF7BFFF20213920FCF74B
:10387000BBFF1A219020FCF7B7FF00211020FCF7B6
:10388000B3FF07211120FCF7AFFF00211220FCF746
:10389000ABFF00211320FCF7A7FF142004F047FE24
:1038A0004FF4E6611020FCF79FFF40F23711112022
:1038B000FCF79AFF142004F03AFE4FF4DC7112205A
:1038C000FCF792FF142004F032FE4FF470611320D5
:1038D000FCF78AFF80212A20FCF786FF4821292057
:1038E000FCF782FF142004F022FE31460120FCF791
:1038F0007BFF49460220FCF777FF41F238010320A5
:10390000FCF772FF29460820FCF76EFF00210A2011
:10391000FCF76AFF00210C20FCF766FF00210D2058
:10392000FCF762FF30210E20FCF75EFF00215020E3
:10393000FCF75AFFEF215120FCF756FF00215220DF
:10394000FCF752FF40F23F115320FCF74DFF214698
:103950006020FCF749FF01216120FCF745FF0021B1
:103960006A20FCF741FF11219020FCF73DFF4FF446
:10397000C0619220FCF738FF40F202419320FCF72F
:1039800033FF02219420FCF72FFF142004F0CFFD19
:1039900001210720FCF728FF142004F0C8FD612155
:1039A0000720FCF721FF40F273110720FCF71CFFF2
:1039B00000212020FCF718FF00212120FCF714FF34
:1039C000222100207DE100210846FCF70DFF0021A7
:1039D0000846FCF709FF142004F0A9FD0021084661
:1039E000FCF702FF00210846FCF7FEFE0021084616
:1039F000FCF7FAFE00210846FCF7F6FE0121A420A0
:103A0000FCF7F2FE142004F092FD4FF41C516020EC
:103A1000FCF7EAFE40F606010820FCF7E5FE40F25E
:103A2000037319463020FCF7DFFE01213120FCF73B
:103A3000DBFE04213220FCF7D7FE4FF481713320E6
:103A4000FCF7D2FE5C4659463420FCF7CDFE40F22E
:103A500003113520FCF7C8FE1F213620FCF7C4FEF9
:103A600019463720FCF7C0FE01213820FCF7BCFEC8
:103A700004213920FCF7B8FE15219020FCF7B4FE94
:103A80004FF482611020FCF7AFFE40F24721112075
:103A9000FCF7AAFE4FF4DE711220FCF7A5FE4FF4EE
:103AA00060611320FCF7A0FE782004F040FD314651
:103AB0000120FCF799FE4FF400710220FCF794FE00
:103AC00041F230010320FCF78FFE08210A20FCF7A9
:103AD0008BFE00210C20FCF787FE20210E20FCF736
:103AE00083FE00210F20FCF77FFE00212020FCF741
:103AF0007BFE00212120FCF777FE3D212A20FCF7E8
:103B000073FE142004F013FD2D212920FCF76CFE18
:103B100000215020FCF768FE4DF2EF015120FCF728
:103B200063FE00215220FCF75FFE40F23F1153205C
:103B3000FCF75AFE00216120FCF756FE00216A20A6
:103B4000FCF752FE21469220FCF74EFE0521932001
:103B5000FCF74AFE3146FFF7ACBB01210020FCF721
:103B600043FE0A2004F0E3FC41F228611020FCF738
:103B70003BFE0E211220FCF737FE40F639211320C0
:103B8000FCF732FE0A2004F0D2FC40211120FCF7A1
:103B90002BFE50211520FCF727FE0A2004F0C7FC5D
:103BA0001E211220FCF720FE0A2004F0C0FC4FF476
:103BB000B1511020FCF718FE42F639211320FCF712
:103BC00013FE0A2004F0B3FC31460120FCF70CFE82
:103BD00059460220FCF708FE41F238010320FCF7A9
:103BE00003FE51460820FCF7FFFD08210A20FCF7E0
:103BF000FBFD00213020FCF7F7FD40F202413120AF
:103C0000FCF7F2FD4FF483713220FCF7EDFD40F23A
:103C100003513320FCF7E8FD4FF482713420FCF7A8
:103C2000E3FD40F201313520FCF7DEFD3946362058
:103C3000FCF7DAFD40F205313720FCF7D5FD4FF4F3
:103C400002713820FCF7D0FD40F60B713920FCF7EB
:103C5000CBFD02214120FCF7C7FD4FF41C5100E0D1
:103C6000D5E06020FCF7C0FD01216120FCF7BCFD20
:103C70004FF404719020FCF7B7FD4FF4857192204A
:103C8000FCF7B2FD04219320FCF7AEFD3146A020E5
:103C9000FCF7AAFD01210720FCF7A6FD2121072042
:103CA000FCF7A2FD23210720FCF79EFD332107200E
:103CB000FCF79AFD40F233110720FCF795FD002137
:103CC000A020FCF791FD21E130211520FCF78CFDAF
:103CD00010219A20FCF788FD20211120FCF784FD9B
:103CE00043F228411020FCF77FFD02211220FCF74F
:103CF0007BFD41F238011320FCF776FD282004F00B
:103D000016FC12210846FCF76FFD282004F00FFC7A
:103D100043F220411020FCF767FD43F238011320E5
:103D2000FCF762FD462004F002FC00213020FCF785
:103D30005BFD40F202413120FCF756FD40F20731B5
:103D40003220FCF751FD4FF441713320FCF74CFD5C
:103D500004213420FCF748FD40F201413520FCF7F6
:103D600043FD39463620FCF73FFD40F20531372050
:103D7000FCF73AFD4FF4C26319463820FCF734FDD6
:103D800019463920FCF730FD31460120FCF72CFDA7
:103D900059460220FCF728FD41F230010320FCF7D0
:103DA00023FD40F608010820FCF71EFD08210A202B
:103DB000FCF71AFD4FF41C516020FCF715FD0121A2
:103DC0006120FCF711FD4FF49F719020FCF70CFD72
:103DD00031469220FCF708FD31469320FCF704FDA4
:103DE0004FF44051A020FCF7FFFC1021A320FCF76A
:103DF000FBFC01210720FCF7F7FC21210720FCF741
:103E0000F3FC23210720FCF7EFFC33210720FCF70C
:103E1000EBFC40F233119EE6E22020802320288034
:103E20000220288004202880642004F061FBE02028
:103E30002080012028800A2004F079FBE0202080E7
:103E4000032028800C2004F072FB012020800A202F
:103E500004F06DFBE620208003202880FF202880CE
:103E60002880B02020802020288000202880032067
:103E7000288040F21F3028800120288040F2DF1087
:103E8000288000202880B42020800420288040F250
:103E90001F40288000202880D220288000202880F1
:103EA000288028802880B6202080022028804FF497
:103EB0000370288000202880222028800920288064
:103EC000002028802880F0202080032028802920BE
:103ED0002080D020208000202880BE202080052047
:103EE0002880FE20288001202880FF2028800020B4
:103EF0002880B82020800F20288001202880BA2028
:103F00002080012028806420FCF74FFF0020FCF770
:103F100065FFFF490120C1F8B0014046FDF7BDF83B
:103F200021B0BDE8F08F2DE9F843FA4C1E468046DB
:103F3000A388089FA3F5D040043802D1A0790128B6
:103F400007D0A2EB0800401C84B20D46DFF8C893EE
:103F500028E025880846A91AA5EB08030025A571C5
:103F600032462A2565812B26491E5B1EA68189B211
:103F70009BB20097FFF7D7FF0120A0716681A58152
:103F8000BDE8F88329464046FCF752FCFCF73AFCB2
:103F90000020494602E00F80401C80B2A042FAD3C4
:103FA0006D1CADB2B542EDD9EAE72DE9F047824686
:103FB000A2EB0A00401C0E4685B2981B401C87B23B
:103FC0000024DFF85493DDF8208014E0301981B22A
:103FD0005046FCF72DFCFCF715FC0020494606E096
:103FE00004FB050338F813200A80401C80B2A84265
:103FF000F6D3641CA4B2BC42E8D3BDE8F0872DE937
:10400000FE4F161ACDE900104FF000085D1A474622
:104010004FF0FF30002E02DD4FF0010102E003D12E
:104020004FF000018B4602E08346C6F10006002DEA
:1040300002DD4FF0010002E003D14FF000008246A4
:1040400002E08246C5F10005AE4201DD344600E0E3
:104050002C46601C4FF00009029018E0009881B2D5
:10406000019880B2FCF714FEB0442F44A04504DD53
:104070000198A8EB040858440190A74203DD00987A
:104080003F1B5044009009F101001FFA80F902998A
:104090008945E3DDBDE8FE8FF0B51C4615460E46AA
:1040A00007460B46FFF7ABFF3A462346314610461C
:1040B000FFF7A5FF23462A4619463846FFF79FFF1C
:1040C0002A4623463146BDE8F040104697E72DE9E1
:1040D000FC4F80460025144603200F46A0EB440603
:1040E00049E0381B81B208EB050A01901FFA8AF0FB
:1040F000FCF7CEFD781B81B208EB040900901FFA93
:1041000089F0FCF7C5FD07EB050B1FFA8BF11FFAD1
:1041100089F0FCF7BDFD07EB04091FFA89F11FFACE
:104120008AF0FCF7B5FDA8EB050A1FFA89F11FFA22
:104130008AF0FCF7ADFDA8EB04091FFA8BF11FFA1A
:1041400089F0FCF7A5FD019881B21FFA8AF0FCF70F
:104150009FFD009881B21FFA89F0FCF799FD6D1C54
:10416000002E03DA06EB8506B61D04E0281B06EBDD
:104170008006641E0A36A542B3DDBDE8FC8F2DE93A
:10418000FF4F1D460C468A46580700D0012000EB21
:10419000D50069084843203A00F0FF09D0B2002654
:1041A000DFF870B1029044E00C2D11D0102D14D026
:1041B000182D40D10298594900EBC00001EB800056
:1041C0004FF00008875D38060CD5554802880DE091
:1041D0000298544900EB4000F0E75349029801EB84
:1041E0000010EDE70D9828B94D4842882146009807
:1041F000FCF759FD7806070E641CBBF80200A4B258
:10420000A04218D9A4EB0A00A84209D1009854464C
:10421000401C80B20090BBF8001081420BD906E030
:1042200008F1010000F0FF08B8F1080FCBD3761CAD
:10423000F6B24E45B8D3BDE8FF8F0246012000E03C
:104240005043491EC9B2FBD270472DE9FF4F81B0E0
:104250000026DDF838A01D46934681463446B04618
:104260004FEA5A0727E0281B401EC1B20A20FFF779
:10427000E4FFBBFBF0F00A21B0FBF1F201FB1200FE
:1042800026B9691E8C4201DA48B101263030C2B22B
:1042900007FB049080B25346CDF8008006E007FB90
:1042A000049080B253462022CDF800800299FFF797
:1042B00066FF641CE4B2AC42D5D305B031E62DE90B
:1042C000FF4F81B04FF00008DDE90EBA1E4681466F
:1042D00044460AF001054FEA5B073BE0301B401EF5
:1042E000C1B20A20FFF7A9FF0399B1FBF0F00A2140
:1042F000B0FBF1F201FB1200B8F1000F05D1711E05
:104300008C4202DAC0B14FF001083030C2B20DE089
:1043100000802142402400200008006C1E56020844
:1043200016000020BA4B02082E50020807FB04902A
:1043300080B25B46009508E05FEA0A6007FB0490E4
:1043400080B25B46009508D530220299FFF717FF2F
:10435000641CE4B2B442C1D3AFE72022F5E72DE9F3
:10436000F84F044600F0FF0910190D46DDE90AB6C2
:104370001FFA80F8581987B24FF0000A12E044453E
:1043800003D305EB0B004C4685B2BD420FD25B4612
:1043900029462046CDF800A0FFF7F1FE04EB5B00B4
:1043A00084B2761C3278A2F120005E28E7D9BDE8FD
:1043B000F88F000038B50121082004F042FFC0202A
:1043C000ADF8000010208DF803000320824C8DF81A
:1043D00002006946204604F04AFDC021204604F050
:1043E000B4FD38BD70B57C48016821F070410160B2
:1043F000016841F040510160784C0120C4F89C01F3
:10440000C4F89801042004F5CC7404F071F8002578
:104410006560042004F06CF8256070BD6E4810B52E
:10442000016821F070410160016841F04051016074
:104430006A4C0020C4F89801C4F89C01042004F5DB
:10444000CC7404F055F8012020606060BDE8104095
:10445000042004F04DB870B55F480024016821F0D5
:1044600070410160016841F0004101605B4D01262F
:10447000C5F89C61304604F03BF8C5F8986101200E
:1044800004F036F807E0641CE4B2FA2C03D9FFF715
:10449000C5FF012070BDD5F81C010028F3D1C5F877
:1044A000980170BD70B54D4C0025C4F898514A482C
:1044B000016821F070410160016841F040510160E4
:1044C000C4F89C51022004F5CC7404F011F80120CA
:1044D0002060022004F00CF8256070BD70B53F4CE0
:1044E0000025C4F898513C48016821F070410160F2
:1044F000016841F0405101600126C4F89C6102202E
:1045000004F5CC7403F0F4FF2660022003F0F0FF02
:10451000256070BD2DE9F04106462F48016821F065
:1045200070410160016841F0405101602B4C00274F
:10453000C4F898713D464FF00108300602D5C4F822
:104540009C8101E0C4F89C717006060E022003F005
:10455000CFFFC4F89881022003F0CAFFC4F8987115
:10456000022003F0C5FF6D1CEDB2082DE5D3BDE8B8
:10457000F0812DE9F047814617480024016821F0B9
:1045800070410160016841F000410160134E254611
:1045900027464FF0010800BFC6F89871022003F0CB
:1045A000A7FFC6F898816006040ED6F81C0108B172
:1045B000641CE4B2012003F09BFF6D1CEDB2082DDA
:1045C000EAD3B9F1000F04D0FFF76CFF2046BDE835
:1045D000F087FFF783FFF9E7000C014000802142DC
:1045E000FFF7E8BE10B50446FFF7FCFE200AA02145
:1045F00001EB4000C0B2FFF78DFFFFF72CFFE0B2E8
:10460000FFF788FFFFF727FFFFF7ECFEA120FFF77A
:1046100081FFFFF720FF0020FFF7ABFF0446FFF705
:10462000FDFE204610BD70B50D460446FFF7DAFECC
:10463000200AA02101EB4000C0B2FFF76BFFFFF79B
:104640000AFFE0B2FFF766FFFFF705FF2846FFF716
:1046500061FFFFF700FFFFF7E1FEBDE870400A20B1
:1046600003F065BF2DE9F04116460D4607460024CC
:1046700009E0E00025FA00F0C1B2381980B2FFF776
:10468000D2FF641CE4B2B442F3D3BDE8F0812DE95B
:10469000F0410D460146002004464E1908E007028D
:1046A000301B401E80B2FFF79DFF641C3844E4B20B
:1046B000AC42F4D3E9E710B5FF20FFF793FF55288C
:1046C0000AD05521FF20FFF7AEFFFF20FFF78AFF3A
:1046D000552801D0012010BD002010BD70B5144632
:1046E0000D46064608E03046711C8EB2FFF77AFF91
:1046F000641E05F8010BA4B2002CF4D170BD70B596
:1047000016460C46054606E021782846FFF78BFF43
:104710006D1CADB2641C761EB6B2F5D270BD000041
:1047200070B506460024374D03E0641CE4B2C82C83
:104730000FD80221284604F0E0FE0028F5D03146CB
:10474000284604F096FE002405E0641CE4B2C82C60
:1047500001D9002070BD0121284604F0CEFE0028BA
:10476000F3D0284604F087FEC0B270BD30B587B0E4
:10477000012141F2040004F064FDE020ADF81400D2
:1047800018248DF8174003201F4D8DF8160005A939
:10479000284604F06CFBE021284604F0D6FB0020FC
:1047A000ADF80000ADF804004FF48271ADF80210CE
:1047B0000221ADF80610ADF80C400121ADF808104B
:1047C000ADF80E00490207200E4CADF80A10ADF806
:1047D00010006946204604F0A7FD0121204604F0A0
:1047E00020FEFF20FFF79CFF07B030BD01460548C3
:1047F000028822F03802028002880A4302800121E6
:1048000004F00FBE00300140000801402DE9F041E6
:104810000024064627464FF00108FE4D300602D51B
:10482000C5F8BC8101E0C5F8BC717006060EC5F87C
:10483000B471012003F05CFEC5F8B481641CE4B2DD
:10484000082CEBD3BDE8F0812DE9F0470027F14CAF
:104850003D463E46C4F8B471C4F8BC71DFF8B8A355
:10486000CAF8AC7104F5DA74FFF7D0FF062003F044
:104870003FFE2660012003F03BFE4FF00108C4F824
:104880000080404603F034FE2660B14646464FF6AF
:10489000FF78A4F5DA7400BF08EA4505C4F8B491BE
:1048A000012003F025FEC4F8B461D4F8380108B142
:1048B0006D1CADB27F1CFFB2102FEDD32809CAF8D2
:1048C000AC61BDE8F087FEB5064600256C46304673
:1048D000FFF7BAFF24F815006D1CADB2052DF6D315
:1048E0000020431C99B20BE034F8102034F811502A
:1048F000AA4203D924F8105024F81120491C89B287
:104900000529F1D398B20428EBD300215FF0010010
:1049100034F81020401C114480B289B20428F7D327
:104920000320B1FBF0F0FEBD2DE9F041BB4C064683
:104930000D462078FFF7C7FF07466078FFF7C3FFF3
:104940003780288001207DE77FB50C460546694603
:1049500002A8FFF7E9FF00282FD001A903A8FFF75D
:10496000E3FF002829D0BDF80C30BDF808209342A1
:1049700003D803F13200824205D39A421FD802F1D4
:10498000320083421BD2BDF80410BDF80000814202
:1049900003D801F13206B04204D388420FD8323036
:1049A00081420CD2D01840082880BDF80000BDF824
:1049B0000410084440082080012004B070BD00208D
:1049C000FBE72DE9F041044695480D460B46028071
:1049D00004F10D0082B2193880B2FFF710FB05F127
:1049E0000D0083B2193881B222461046FFF707FB4B
:1049F0006E1C04F10108B1B21FFA88F0FCF748F907
:104A0000B1B2661EB0B2FCF743F96F1EB9B21FFA1D
:104A100088F0FCF73DF9B9B2B0B2FCF739F9294694
:104A20002046BDE8F0410622FFF751BB70B50646AF
:104A30007B480C4602803046FCF72AF9751CA8B268
:104A40002146FCF725F9641CA1B23046FCF720F999
:104A5000A1B2A8B2BDE87040FCF71AB970B5024621
:104A60006D48D0F820016D4C241D40B194F8200011
:104A700001063ED520F0800084F8200040E0674821
:104A8000001D00F116010C3012B1FFF75DFF24E0AC
:104A9000FFF75AFF08B3B4F92C0010F065F805468B
:104AA000A08910F06AF8616A0FF070FF29460FF0D4
:104AB00015FF10F09EF8A081B4F92E0010F054F804
:104AC0000546E08A10F059F8A16A0FF05FFF294609
:104AD0000FF004FF10F08DF8E08294F8200000063B
:104AE0000ED4C02084F82000A089A082E08AE08350
:104AF00006E00020A082E0834FF6FF70A081E082F4
:104B000094F8200000F0800070BD444910B50E22DA
:104B100028312820FFF7F3FD0A21BDE81040362098
:104B2000FFF781BD10B53620FFF75CFD0A2801D0E4
:104B3000002010BD39490E2228312820FFF7CEFD74
:104B400036489022001D90F83030001FD02113B15C
:104B50000270417001E001704270012010BD2DE92A
:104B6000FF4F83B00E46DDE910A92D4907464FF4EB
:104B70007840DDF8508008802AA01024CDE900405C
:104B8000294D9346A0216B882A882820FFF7E7FB50
:104B900026A0CDE900406B882A88A0217820FFF765
:104BA000DEFB23A0CDE900406B882A88B4212820B1
:104BB000FFF7D5FB1FA0CDE900406B882A88B42100
:104BC0007820FFF7CCFB1CA0CDE900406B882A8839
:104BD000C8212820FFF7C3FB18A0CDE900406B884F
:104BE0002A88C8217820FFF7BAFB15A0CDE900403C
:104BF0006B882A88DC212820FFF7B1FB11A0CDE9C2
:104C000000406B882A88DC217820FFF7A8FB0EA0E3
:104C10001EE0000000802142000024421C00002011
:104C20001600002078313A004024002079313A0003
:104C300078323A0079323A0078333A0079333A00E0
:104C400078343A0079343A006661632069733A0037
:104C5000CDE900406B882A88F0212820FFF77FFBF0
:104C600004233A46A02140200094FFF7EEFA0423E3
:104C70003246A02190200094FFF7E7FA04235A4619
:104C8000B42140200094FFF7E0FA04230094B421FB
:104C90009020069AFFF7D9FA04235246C8214020F3
:104CA0000094FFF7D2FA04234A46C82190200094CA
:104CB000FFF7CBFA04230094DC214020129AFFF77F
:104CC000C4FA04230094DC219020139AFFF7BDFA64
:104CD00003234246F02160200094FFF7B6FA07B0A4
:104CE000BDE8F08F2DE9F04F0024DFF80CB48FB051
:104CF0001F204FF6FF7825465E46ABF8000047467A
:104D0000FE48A0F800803846FCF7C7F94FF4784910
:104D1000A6F800903846FCF7C0F9F948002737801C
:104D200001684FF0100ACDE900A128216423A022D8
:104D30000846FFF714FB14214A460846FFF741FED8
:104D4000F04E4FF0010986F82070776271680120FB
:104D5000884796F82000B9EB901F45D120F040001D
:104D600086F8200009A8B18920F8241000EB8400FF
:104D7000641C0025F18AE4B24180012C06D0022C8B
:104D800011D0032C1ED0042C2ED139E01421424620
:104D90000846FFF716FEDC484FF4784200881438C6
:104DA00080B214211EE0D84F4246142138881438AE
:104DB00080B2FFF706FE78884FF47842143881B24B
:104DC00014200FE0D04F42467888143881B2142066
:104DD000FFF7F7FD78884FF47842143881B23888AD
:104DE000143880B2FFF7EDFD0A2003F0A0FB6D1C24
:104DF000ADB2B5F57A7FA9D9FFF794FE0FB06FE792
:104E0000BDF82400BDF82810411A00D54942BDF86C
:104E10002600BDF82A20801A00D54042494340436D
:104E200008440FF0C0FE1FF0A2FE0FF0F6FE84B2A1
:104E3000BDF82C00BDF83010401A00D54042BDF836
:104E40002E10BDF83220891A00D54942404301FB9B
:104E500001000FF0A8FE1FF08AFE0FF0DEFE80B208
:104E600003900FF08AFE074620460FF086FE394673
:104E70000FF0BEFD0FF0EAFE07464FF06632A34B7F
:104E800001910FF0F7FE7DD3A14AA24B384601995C
:104E90000FF008FFF7D3002C74D003980028FBD044
:104EA000BDF82400BDF82C10401A00D54042BDF8D2
:104EB0002610BDF82E20891A00D54942404301FB37
:104EC00001000FF070FE1FF052FE0FF0A6FE87B239
:104ED000BDF82800BDF83010401A00D54042BDF89A
:104EE0002A10BDF83220891A00D54942404301FBFF
:104EF00001000FF058FE1FF03AFE0FF08EFE80B258
:104F00000FF03BFE044638460FF037FE21460FF007
:104F10006FFD0FF09BFE07464FF066327B4B019111
:104F20000FF0A8FE52D37A4A7A4B384601990FF017
:104F3000B9FE4BD3BDF82800BDF82C10411A00D59E
:104F40004942BDF82A00BDF82E20801A00D5404203
:104F50004943404308440FF026FE1FF008FE0FF0BF
:104F60005CFE87B2BDF82400BDF83010411A00D5B0
:104F70004942BDF82600BDF83220801A00D54042D3
:104F8000494300E047E0404308440FF00CFE1FF0A7
:104F9000EEFD0FF042FE80B20FF0EFFD0446384602
:104FA0000FF0EBFD21460FF023FD0FF04FFE0746FB
:104FB0004FF06632554B01910FF05CFE06D3544A18
:104FC000544B384601990FF06DFE56D24E480024DE
:104FD0004246418800881439143889B280B2FFF7FC
:104FE000F0FC14214FF478420846FFF7EAFC002257
:104FF000494B384601990FF045FD0FF00EFE80B287
:10500000BDF83210BDF83030BDF82E20CDE90310C8
:10501000CDE9012323E03C48002442464188008832
:105020001439143889B280B2FFF7CBFC14214FF445
:1050300078420846FFF7C5FC0022374B38460199F5
:105040000FF020FD0FF0E9FD82B2BDF83030BDF861
:105050003210BDF82E00CDE90103CDE90312BDF8F1
:105060002C000090BDF82A30BDF82820BDF826108D
:10507000BDF82400FFF773FD68E6BDF82800BDF811
:1050800024700290C01B0FF06FFD04461E4800887C
:105090000490009028380FF067FD21460FF0A8FC1F
:1050A00070620390029838440FF067FD03990FF087
:1050B0006DFC044600980FF060FD21460FF060FC87
:1050C0004FF0FF310FF0D2FC0FF07AFDB085BDF844
:1050D0002E00BDF826100746401A02910FF044FD3D
:1050E0000446094840880190069028380FF03CFD9E
:1050F00021460FF07DFC11E0160000201800002072
:105100007C63020820000020402400206666EE3FF9
:10511000CDCCCCCCCCCCF03F00005940B062029951
:10512000044678180FF029FD21460FF02FFC0746A2
:1051300006980FF022FD39460FF022FC4FF0FF31A8
:105140000FF094FC0FF03CFDF08503980FF038FD54
:10515000002800DA4042022807DC20460FF030FD2C
:10516000002800DA404202282EDD0198002414387D
:1051700081B20498554F143880B24246FFF721FCA3
:1051800014214FF478420846FFF71BFC50A1CDE9EB
:1051900000A17B883A881A212820FFF7E0F896F8CA
:1051A000300048B15FF0000086F8300030B14D4863
:1051B00090210170D02105E00120F5E74948D02178
:1051C000017090214170C1E51F20ABF800004446FA
:1051D0004046FBF762FF44A1CDE900A13B492320F3
:1051E0004B880A886E21FFF7BAF84FF47A7003F003
:1051F0009EF9FFF78AFC2046FBF74FFFFEE52DE9FD
:10520000F84332488088A0F5AA4110395AD00121CC
:105210004FF4847004F015F84FF40056ADF80060B8
:105220001024DFF8DC808DF8034003258DF8025050
:105230006946404603F01BFE3146404603F085FEBA
:10524000A602ADF8006048278DF803706946404615
:1052500003F00DFE3146404603F077FEE602ADF85E
:1052600000608DF803408DF802506946404603F017
:10527000FEFD3146404603F068FEE601ADF80060F1
:105280008DF803408DF802501E4D6946284603F004
:10529000EEFD3146284603F058FE2401ADF80040EB
:1052A0008DF803706946284603F0E1FD2146284643
:1052B00003F04BFE0B491A31A1F10A00FFF734FB52
:1052C000FFF78EF90120BDE8F8830000402400209C
:1052D0005450204E65656420726561646A7573740C
:1052E000210000001C000020546F75636820536388
:1052F0007265656E2041646A757374204F4B21009E
:10530000000C0140002001407FB50C4605460121FC
:10531000022003F09FFFADF80040ADF804500024D8
:10532000324DADF80240ADF806406946284604F01B
:10533000A9F901221146284604F062FC1D208DF8CF
:105340000C008DF80D4003208DF80E0001208DF823
:105350000F0003A803F0A3FA0121284604F03BFC48
:105360007FBD10B5214C0121204604F05EFE204691
:10537000BDE81040012104F064BE7FB50D4604462F
:105380000121102003F066FF0020ADF80440ADF8C5
:105390000050174CADF80200ADF8060069462046F3
:1053A00004F070F901224121204604F029FC362046
:1053B0008DF80C0001218DF80D1003208DF80E00E2
:1053C0008DF80F1003A803F06AFA0121204604F0BB
:1053D00002FC7FBD10B5064C0121204604F025FEDD
:1053E0002046BDE81040012104F02BBE000400401F
:1053F000001000400021012803D010B126210846EA
:105400007047FE4A5070FAE7FD4A516821F0FF01EB
:1054100001435160704770B5F94C0546606B10F060
:10542000450FFBD0042005F05AF820B1042005F008
:105430005EF8032070BD012005F051F820B1012075
:1054400005F055F8012070BD2069A84201D0102058
:1054500070BD40F2FF50A063606900F0080070BDAD
:105460002DE9FC5F0025E74C00954FF4806801951D
:105470004027C4F81080C4E902750E464FF0080BAF
:105480001021C4E900B1A946204604F0B8FF10205D
:10549000FFF7C1FF00284DD1D848BA464F460089D2
:1054A000000420603720C4E9010AC4E903982046BB
:1054B00004F0A5FF3720FFF7AEFF00283AD1411EC8
:1054C00004F11400C0E9001B302181600221C0E911
:1054D00003170121416104F0B5FF3320C4F808A08F
:1054E000C4E90070C4E90378204604F088FF332043
:1054F000FFF791FF04001DD1C14F4FF4001AE94698
:1055000040F22A68786B10EA080F0BD1504604F07D
:10551000E6FF0028F6D004F0B5FF49F825006D1C21
:10552000022DEFD3082004F0DAFF28B1082004F0A0
:10553000DEFF0420BDE8FC9F022004F0D0FF20B174
:10554000022004F0D4FF0220F4E7202004F0C7FF7B
:1055500020B1202004F0CBFF0620EBE74FF40075CC
:10556000284604F0BCFF20B1284604F0C0FF072005
:10557000E0E740F2FF5004F0BAFF009800BA706014
:10558000019800BA30602046D4E72DE9FC4100259F
:1055900000952E46019500B1022699484069800188
:1055A00002D50E20BDE8FC81944C6946208980B26A
:1055B000FFF756FF0028F5D10198400322D5208936
:1055C000904C00044FF0400820603720C4E90108E7
:1055D0004FF48067C4E90357204604F010FF3720DA
:1055E000FFF719FF0028DDD10620C4F80880C4E9C0
:1055F0000060C4E90357204604F001FF0620FFF7CE
:105600000AFFCFE72520CDE710B57C4904460020EE
:105610000978032906D019B1012901D0022902D144
:10562000022C01D3272010BDE0B2FFF7AEFF002807
:10563000F9D173494A6822F4C0524A604A68A3B259
:1056400042EAC3224A604A684A6010BD6D4910B5FB
:10565000086007204860402088600020C8604FF440
:1056600080600861084604F0CAFEBDE810400720CB
:10567000D1E62DE9F0476149DFF888A14FF0010933
:105680000E7880F8566009890AF12C0AA0F85410A7
:10569000DAF8001053460A0E94090470C2F383042A
:1056A000447002F0030282700A0CC2700A0A02718E
:1056B0004171DAF80450290E0A01C5F3074142EAA4
:1056C000111201F00F08C280C5F3072180F808808D
:1056D000CA094272C1F380128272C1F34012C272CF
:1056E000C1F300120273002242739F683C0EC7F39D
:1056F0000743C7F3072C36B1012E04D0032E02D086
:10570000022E30D03EE08907090DEDB241EA850155
:1057100041EA9415C4F3C2010561017504F0070163
:10572000417559098175C3F38201C17599074B0F02
:10573000614643EAD1140476A41C09FA04F3DE1787
:105740006D1CA5FB034C02FB03C305FB063509FAE0
:1057500008F3A4FB036C036505FB03C304FB0233DE
:10576000C0E912630EE0A906890A41EA04241C4339
:105770000461641C630BE404C0E912434FF400733A
:1057800061460365C1F38013437689064B0EF9B277
:1057900043EAD11300F81A3F01F07F014170DAF8B3
:1057A0000C30190ECC098470C1F34114C470C1F3DC
:1057B0008204047189070C0FC3F3074144EA911472
:1057C0004471C1F340148471C27101F0010101728E
:1057D000C3F30721CC094472C1F380148472C1F36E
:1057E0004014C472C1F300140473C1F38104447300
:1057F00001F003018173C3F3460105E0540000206A
:105800000080014068240020FD4BC17380F8109097
:1058100019684C460D0E85740D0CC1F3072646EA37
:10582000052585820D0659680E0E45EA0645C1F329
:10583000074645EA0625C1F307263543C0F816504A
:1058400000F81A1F99680D0E45700D0CC1F307265C
:105850002D0645EA0645C9B245EA0125D96845EA5B
:1058600011654560057AC1F3074345EA13150572D2
:10587000C1F307251B0745EA13534381C1F34601D2
:10588000017344731046BDE8F08710B500244FF44F
:105890008031DC4A09E0506B10F0450F05D009B1AA
:1058A000400705D5032404200CE0491EF3D2F7E796
:1058B000012004F014FE18B10124204604F017FE64
:1058C00040F2FF5004F013FE204610BD2DE9F041D8
:1058D000CC4C0E4607460025606B10F0450FFBD000
:1058E000042004F0FCFD28B1042004F000FE032095
:1058F000BDE8F081012004F0F2FD20B1012004F0A8
:10590000F6FD0120F4E72069B84210D140F2FF50C3
:1059100004F0EDFD626912F4604F03D0900404D5E9
:105920001320E5E7100C308007E0500401D510206B
:10593000DEE7100401D50F20DAE72846D8E72DE985
:10594000F84F0120ADF8000004F048FD88B3DFF8FF
:10595000B89299F80000042875D0A94C02203C3C6C
:105960004FF0C00B0026C4F808B0C4E9006047023D
:105970002046C4E9036704F042FDFFF786FF0028D4
:1059800019D1A04D69699E480160A9694160E96922
:105990008160296AC16099F800004FF0030A4FF056
:1059A000400850B1012808D0062806D0022804D0AB
:1059B00013E0FFE72520BDE8F88FC4F80880C4E9AC
:1059C000006A8F48C4E903673C3804F018FD694653
:1059D0000320FFF77BFF0028EDD199F80000032892
:1059E00010D1BDF80000C4F808800004C4E9000A22
:1059F0008348C4E903673C3804F001FDFFF745FF25
:105A00000028D8D199F8001004291CD0BDF8001046
:105A1000C9F80810080420600920C4E9010B78487F
:105A2000C4E903673C3804F0EAFCFFF72EFF0028C6
:105A3000C1D16969724810380160A9694160E9699A
:105A40008160296AC1600020B5E710B56D49486BD7
:105A500010F0450FFBD0042004F041FD20B10420DC
:105A600004F045FD032010BD40F2FF5004F03FFD5F
:105A7000002010BD10B500244FF48031614809E0CA
:105A8000426B12F0450F05D009B1500705D503242C
:105A9000042006E0491EF3D2F7E7500603D50024A0
:105AA000402004F024FD204610BD70B500254FF4C1
:105AB000803405E0802004F012FD08B144B101E01B
:105AC000641EF7D240F2FF5004F011FD284670BD6D
:105AD000032070BD2DE9F05F494800275438B221FA
