:020000040800F2
:1000000028F90020EDB40008C1050008C305000868
:10001000C7050008CB050008CF0500080000000058
:10002000000000000000000000000000D3050008F0
:10003000D50500080000000047E2010869B2000889
:1000400007B5000807B5000807B5000807B50008A0
:1000500007B5000807B5000807B5000807B5000890
:1000600007B5000807B5000807B5000807B5000880
:1000700007B5000807B5000807B5000807B5000870
:1000800007B5000807B5000807B5000807B5000860
:1000900007B5000807B5000807B5000807B5000850
:1000A00007B5000807B5000807B5000807B5000840
:1000B00007B500085377000807B5000807B5000822
:1000C00007B5000807B5000807B5000807B5000820
:1000D00007B5000859B4000807B5000807B50008BF
:1000E00007B5000807B5000807B5000807B5000800
:1000F00007B5000807B5000807B5000807B50008F0
:1001000007B500085D92000807B5000807B50008AC
:1001100007B5000807B50008C177000807B5000853
:1001200007B5000807B5000807B5000807B50008BF
:1001300000F002F800F076F80AA090E8000C824483
:100140008344AAF10107DA4501D100F06BF8AFF260
:10015000090EBAE80F0013F0010F18BFFB1A43F0A5
:1001600001031847D8110400F81104000A444FF0A5
:10017000000C10F8013B13F0070408BF10F8014B06
:100180001D1108BF10F8015B641E05D010F8016B4B
:10019000641E01F8016BF9D113F0080F1EBF10F8AF
:1001A000014BAD1C0C1B09D16D1E58BF01F801CBD2
:1001B000FAD505E014F8016B01F8016B6D1EF9D555
:1001C0009142D6D37047000000230024002500266A
:1001D000103A28BF78C1FBD8520728BF30C148BFAA
:1001E0000B60704766292FF0888164291BF0EE852B
:1001F00078291BF0278673291CF0B58300207047EF
:100200001FB51CF0AFFE0400002000212EF0E8F81E
:10021000401C6060002000212EF0CCF8E0601FBD83
:1002200010B510BD1DF064F91146FFF7E9FF00F0AD
:10023000DDF81DF0B5FB03B4FFF7F2FF03BC0BF0D4
:10024000ADF800000EB512E0BE48006808B9012004
:1002500000E00020BB49086002A808214FF4FA73AF
:100260000022CDE900101146104615F0F2FFEBE731
:100270000EB50BE021F04AFC02A80821052300225C
:10028000CDE900101146104615F0E3FFF2E710B576
:1002900004460AF05EFE4FF47A701FF0E9FF10BDCD
:1002A00030B58BB00446002500BF17F09DFD0AA8AD
:1002B00013F05DFC0AAA012108460FF0E2FC0121BF
:1002C00040200CF0CCF820F027FC00BF00BF00BF9E
:1002D00017F0C2FE054600BF00BF9B480078401CD7
:1002E0009949087000BF00BF284617F0B9FE00BF4B
:1002F00000BF00BF0AA8032100220592CDE9062114
:10030000089010464FF480616622904BCDE901328F
:10031000CDE9031008200023AFF28D028CA10090DC
:100320008F4813F0FBFF0AA8032100220592CDE9B4
:1003300006210890104680210C228A4BCDE901321B
:10034000CDE9031004200023AFF2DB0286A1009068
:10035000884813F0E3FF0AA8032100220592CDE9A3
:1003600006210890104680210C22834BCDE90132F2
:10037000CDE9031036200023AFF237127FA10090A1
:10038000814813F0CBFF0AA9804815F03CFB00BF61
:1003900000BF00BF17F060FE054600BF00BF6A48FF
:1003A0000078401E6849087008460078A0B978486F
:1003B0000088002809DD00BF00BF284617F050FE66
:1003C00000BF00BF10F045F80DE000BF00BF284699
:1003D00017F046FE00BF06E000BF00BF284617F03A
:1003E0003FFE00BF00BF00BF0BB030BD8AB000248D
:1003F0000AF046FF4FF4A0600BF0AEF94FF4E13085
:100400000AF0DBFF00F0D8F901F023F900F0F0F971
:1004100009F0B2F904F0A0FF00200BF09EF80120D3
:100420000BF09BF81BF08CFA5A49012208685AA17C
:1004300019F015FB57490122486858A119F00FFB24
:1004400018E057A010210B46C822CDE900105A2110
:100450001E2004F04DFFC8200AF06BFF4FF6FF701E
:100460005623E6225A2100901E2004F0A7FCC82043
:100470000AF05FFF07F021FF0028E2D107F062F8E1
:1004800009A80FF0CFF900BF00BF00BF17F0E4FDCF
:10049000044600BF00BF2C480078401C2A49087061
:1004A00000BF00BF204617F0DBFD00BF00BF00BF4C
:1004B00009A8032100220592CDE9062108901046E3
:1004C00080210C223A4BCDE90132CDE90310032003
:1004D0000023AFF2332237A100902C4813F01EFF07
:1004E00000BF00BF00BF17F0B7FD044600BF00BF4C
:1004F00015480078401E1449087008460078A0B9D5
:1005000023480088002809DD00BF00BF204617F0FF
:10051000A7FD00BF00BF0FF09CFF0DE000BF00BFB4
:10052000204617F09DFD00BF06E000BF00BF20463B
:1005300017F096FD00BF00BF00BF09A80FF041FCF7
:1005400000BFFEE798812342DC0200204C16002009
:10055000456D77696E64656D6F207461736B000023
:10056000881500203C0B0020546F7563682074616F
:10057000736B0000780A0020C41000204C656430C2
:10058000207461736B00000000100020B40700208D
:10059000A00200206C030020303A0000313A000035
:1005A00053442043617264204661696C6564210094
:1005B000780800207374617274207461736B00009A
:1005C000704700BFFEE700BFFEE700BFFEE700BFC9
:1005D000FEE77047704700000CB5002001900090C6
:1005E0006C48006840F480306A49086000BF694880
:1005F000006800F4003000900198401C01900098C1
:1006000018B90198B0F5A06FF1D16248006800F404
:10061000003010B10120009001E00020009000980F
:10062000012843D15C48006840F010005A49086036
:100630000846006820F0030008600846006840F0A3
:1006400002000860534840685249486008464068C4
:1006500048600846406840F480604860084640684A
:1006600020F47C1048600846406840F4E810486078
:100670000846006840F08070086000BF4548006888
:1006800000F000700028F9D04248406820F00300D4
:10069000404948600846406840F00200486000BF9A
:1006A0003C48406800F00C000828F9D10CBD10B59A
:1006B000FFF792FF10BD10B53648006840F001000A
:1006C0003449086008464068344908403149486068
:1006D00008460068324908402E490860084600680C
:1006E00020F4802008600846406820F4FE0048603E
:1006F0004FF41F008860FFF7DAFF4FF000602949D0
:10070000086010BD10B5002100200022214B5B685D
:1007100003F00C0121B1042906D0082928D107E0F3
:10072000214B224C236027E01F4B204C236023E009
:10073000184B5B6803F47010164B5B6803F480324F
:10074000022303EB904022B9194B4343174C23601B
:100750000DE0104B5B6803F4003323B1144B4343AB
:10076000124C236003E0104B4343104C236003E022
:100770000D4B0E4C236000BF00BF064B5B68C3F3FC
:1007800003130C4CE15C094B1B68CB40074C236006
:1007900010BD000000100240002002400000FFF8E1
:1007A000FFFFF6FE08ED00E000127A0000000020D6
:1007B00000093D000400002008B5012180200BF055
:1007C0005BFE4FF4F860ADF8000010208DF80300D8
:1007D00003208DF80200694604480BF091FB4FF4AA
:1007E000F86102480BF039FC08BD0000001C014014
:1007F00008B5012134200BF03FFE40F20110ADF8A6
:10080000000048208DF80300694639480BF078FB5A
:100810000820ADF80000694636480BF071FB4FF434
:100820000050ADF80000694633480BF069FB08BD85
:1008300010B5044614B10120304908702F480078E3
:10084000002839D001212A480BF0EDFB80B14FF48C
:10085000807127480BF0E7FB50B1082125480BF0C9
:10086000E2FB28B14FF4005123480BF0DCFB18BB2E
:100870000A200AF05EFD00202049087001211C4872
:100880000BF0D1FB08B9042010BD4FF4807118485B
:100890000BF0C9FB08B90220F6E7082115480BF058
:1008A000C2FB08B90320EFE74FF4005112480BF0E8
:1008B000BAFBD8B90120E7E701210D480BF0B3FBE3
:1008C000012813D101020A480BF0ADFB01280DD11C
:1008D000082108480BF0A7FB012807D1410306486F
:1008E0000BF0A1FB012801D1044908700020CBE7DF
:1008F00000080140001401400010014014000020D5
:10090000F74908807047F649891C0880704708B588
:10091000F348801C00880090BDF8000008BDF04A34
:100920001080921C1180704710B504462046FFF7D6
:10093000E7FF05200AF0D2FCFFF7E9FF10BDE94808
:100940000089E74908807047E549891C088070479D
:1009500030B5014601F01F04C1F34513CA0AE50290
:1009600005EB43151544A8B230BD00BF011EA0F130
:100970000102D0B2FAD1704710B503460C46D948EF
:10098000808849F24131884205D0D648808845F2B6
:100990001031884214D1D3494889FFF7B1FF1812AA
:1009A000FFF7B1FFD8B2FFF7AEFFCE498889FFF756
:1009B000A7FF2012FFF7A7FFE0B2FFF7A4FFABE00D
:1009C000C848808846F6040188421DD1C548807910
:1009D000012804D1C3480088401EC01A83B2C1490F
:1009E0004889FFF78DFF1812FFF78DFFD8B2FFF788
:1009F0008AFFBC498889FFF783FF2012FFF783FF36
:100A0000E0B2FFF780FF87E0B648808841F66311C7
:100A1000884247D1B3488079A8B9B2480088401EBF
:100A2000C01A83B2AF494889FFF76AFF0020FFF779
:100A30006AFF0020FFF767FF1812FFF764FFD8B2C4
:100A4000FFF761FF16E0A7494889FFF759FF181221
:100A5000FFF759FFD8B2FFF756FFA2490988491E90
:100A6000C1F30F20FFF74FFF9E490978491EC8B216
:100A7000FFF749FF9B498889FFF742FF2012FFF7E4
:100A800042FFE0B2FFF73FFF96494988491EC1F394
:100A90000F20FFF738FF93498978491EC8B2FFF746
:100AA00032FF39E08F48808845F21051884220D1CA
:100AB0008C494889FFF724FF1812FFF724FF894962
:100AC0004989491C88B2FFF71BFFD8B2FFF71BFF0B
:100AD00084498889FFF714FF2012FFF714FF81492A
:100AE0008989491C88B2FFF70BFFE0B2FFF70BFFC3
:100AF00012E07C488079012804D17A480088401EA1
:100B0000C01A83B2774948891946FFF708FF75492B
:100B100088892146FFF703FF10BD2DE9F041054606
:100B20000E4600240027A0466E480088A84203DD38
:100B30006C484088B04202DC0020BDE8F0813146BC
:100B40002846FFF719FF6748808849F241318842FB
:100B500011D06448808846F6040188420BD0614871
:100B6000808845F21031884205D05E48808841F681
:100B70006311884203D12E20FFF7C2FE0DE05948D1
:100B8000808845F21051884204D14FF43850FFF765
:100B9000B7FE02E02220FFF7B3FE5248808849F2F8
:100BA0002031884202D10220FFF7DFFEFFF7AFFEBF
:100BB00004464C48808841F66311884201D12046A2
:100BC000BBE70220FFF7D1FEFFF7A1FE0446454830
:100BD000808849F2413188420BD04248808845F2F2
:100BE0001031884205D03F48808845F21051884234
:100BF0000AD10220FFF7B9FEFFF789FE8046E7B26F
:100C00004FF6FF7000EA07273648808849F2253101
:100C1000884216D03348808844F23551884210D03B
:100C200030488088091F88420BD02E4880884BF2BC
:100C30000551884205D02B4880884CF205518842E6
:100C400001D1204679E72748808849F2413188421E
:100C50000BD02448808845F21031884205D02148C5
:100C6000808845F21051884207D1E012C002B912C3
:100C700040EA411040EAE8205FE72046FFF768FEBF
:100C80005BE700B51748808849F24131884211D0AE
:100C90001448808846F6040188420BD011488088A9
:100CA00045F21031884205D00E48808841F6631124
:100CB000884203D12920FFF723FE0FE009488088EE
:100CC00045F21051884204D14FF42450FFF718FE2A
:100CD00004E040F273110720FFF721FE00BD000081
:100CE000FE07006C4C26002000B5FD48808849F2C4
:100CF0004131884211D0FA48808846F60401884282
:100D00000BD0F748808845F21031884205D0F4486E
:100D1000808841F66311884203D12820FFF7F0FD57
:100D20000EE0EF48808845F21051884204D14FF41C
:100D30002050FFF7E5FD03E000210720FFF7EFFD5E
:100D400000BD70B5044600230026E54880790128DF
:100D50000BD1E348808846F60401884205D0E0487C
:100D6000808841F66311884208D1DD488079F0B966
:100D7000DB48808841F66311884218D1082C15D2CF
:100D8000DFE804F00406080A0C0E101206240DE039
:100D900007240BE0042409E0052407E0012405E012
:100DA000002403E0032401E0022400BF00BFCC487C
:100DB000808849F24131884217D0C948808846F678
:100DC0000401884211D0C648808845F2103188421B
:100DD0000BD0C348808845F21051884205D0C048E6
:100DE000808841F6631188427ED1082C1CD2DFE84E
:100DF00004F00406090C0F12151800BF14E043F0AC
:100E0000800311E043F040030EE043F0C0030BE029
:100E100043F0200308E043F0600305E043F0A00343
:100E200002E043F0E00300BF00BFAD48808845F218
:100E30001051884202D14FF4585600E03626A84897
:100E4000808845F2103188420DD0A548808845F24F
:100E50001051884207D0A248808841F66311884229
:100E600001D043F008039E48808846F6040188427A
:100E700001D143F0020319463046FFF750FD984870
:100E8000808841F6631188421DD003F0200068B1CC
:100E90009348008892494988884214DA9048058826
:100EA00040888F490880084645800CE08C480088BF
:100EB0008B494988884206DD8948058840888849E9
:100EC0000880084645808648808845F2105188424F
:100ED00054D183494889FFF713FD0020FFF713FD24
:100EE0007F494989491C00E077E088B2FFF708FD97
:100EF0000020FFF708FD7A494989891C88B2FFF76D
:100F0000FFFC77490988491EC1F30F20FFF7FBFC5E
:100F100073494989C91C88B2FFF7F2FC7049097806
:100F2000491EC8B2FFF7EFFC6D498889FFF7E8FC5E
:100F30000020FFF7E8FC6A498989491C88B2FFF75D
:100F4000DFFC0020FFF7DFFC65498989891C88B236
:100F5000FFF7D6FC62494988491EC1F30F20FFF70D
:100F6000D2FC5F498989C91C88B2FFF7C9FC5C497A
:100F70008978491EC8B2FFF7C6FC55E05849488930
:100F8000FFF7BEFC0020FFF7BEFC0020FFF7BBFC14
:100F900053490988491EC1F30F20FFF7B4FC50499B
:100FA0000978491EC8B2FFF7AEFC4D498889FFF7A2
:100FB000A7FC0020FFF7A7FC0020FFF7A4FC48498E
:100FC0004988491EC1F30F20FFF79DFC44498978E9
:100FD000491EC8B2FFF797FC26E0082C1CD2DFE8B8
:100FE00004F004070A0D0F12151843F0300313E044
:100FF00043F0100310E043F020030DE000BF0BE0CE
:1010000043F0380308E043F0280305E043F01803F9
:1010100002E043F0080300BF00BF032643F48053FF
:1010200019463046FFF77BFC70BD30B504460D46CF
:1010300029462046FFF7A0FCFFF781FC29480088DD
:101040002949088030BD30B503460C461546244872
:10105000808849F24131884205D02148808845F294
:101060001031884214D11E494889FFF749FC1812F3
:10107000FFF749FCD8B2FFF746FC19498889FFF70A
:101080003FFC2012FFF73FFCE0B2FFF73CFC93E08F
:101090001348808845F21051884227D11049488969
:1010A000FFF72EFC1812FFF72EFC0D494989491C49
:1010B00088B2FFF725FCD8B2FFF725FC08498889DC
:1010C000FFF71EFC2012FFF71EFC05498989491C09
:1010D00088B2FFF715FCE0B2FFF715FC6CE00000EA
:1010E0004C260020160000200008006CFC48808878
:1010F00041F66311884228D1F948807920B9F8482F
:101100000088401EC01A83B2F5494889FFF7F8FBF2
:101110001812FFF7F8FBD8B2FFF7F5FB1812FFF72C
:10112000F2FBD8B2FFF7EFFBED498889FFF7E8FB48
:101130002012FFF7E8FBE0B2FFF7E5FB2012FFF714
:10114000E2FBE0B2FFF7DFFB36E0E548808846F6D9
:10115000040188421DD1E2488079012804D1E04889
:101160000088401EC01A83B2DD494889FFF7C8FBDA
:101170001812FFF7C8FBD8B2FFF7C5FBD84988891A
:10118000FFF7BEFB2012FFF7BEFBE0B2FFF7BBFB91
:1011900012E0D3488079012804D1D1480088401E4C
:1011A000C01A83B2CE4948891946FFF7B8FBCC492B
:1011B00088892146FFF7B3FBC9480089C9490880DF
:1011C000881C058030BD2DE9F0470446BE20FFF79E
:1011D00097FB0520FFF797FB20462DF085FA074681
:1011E0004FF06632C04B2DF0CFFA05462DF038FA9D
:1011F0001FFA80F94846FFF786FB0120FFF783FBC3
:10120000FF20FFF780FB0020FFF77DFB0020FFF7AA
:101210007AFBBDE8F08710B50446002C66D1B049D2
:101220008871F02008804FF4A070488008468088BC
:1012300049F2413188420BD0A948808846F6040122
:10124000884205D0A648808845F2103188421AD1DC
:101250002C20A34908812A2048812B208881084618
:10126000808846F60401884205D09D48808845F272
:101270001031884206D14FF4A070994908804FF48C
:10128000F0704880A1E09648808845F2105188426D
:1012900010D14FF43050924908814FF428504881C2
:1012A0004FF42C5088814FF4F07008804FF4487050
:1012B00048808AE08A48808841F6631188420DD1CF
:1012C0002C20874908812B2048812A2088814FF4CF
:1012D000F07008804FF44870488076E02220804902
:1012E000088120204881212088816EE001207C49EE
:1012F00088714FF4A0700880F020488008468088EC
:1013000049F24131884205D07548808845F2103154
:10131000884207D12C20724908812A2048812B203D
:1013200088813FE06E48808846F60401884207D1F4
:101330002C206B4908812B2048812A20888131E0AC
:101340006748808845F21051884210D14FF43050E0
:10135000634908814FF4285048814FF42C5088810C
:101360004FF4487008804FF4F07048801AE05C48F1
:10137000808841F6631188420DD12C20584908819C
:101380002A2048812B2088814FF4487008804FF430
:10139000F070488006E022205149088121204881D0
:1013A000202088814E48808846F60401884205D076
:1013B0004B48808845F21031884206D14FF4F070D6
:1013C000474908804FF4A07048800020FFF7B9FC1F
:1013D00010BD2DE9F04F86B004460D469046994663
:1013E00004EB0800401E86B205EB0900401E87B2E0
:1013F0003B48808849F24131884215D0384880887E
:1014000045F2103188420FD03548808846F60401F5
:10141000884209D032488079012826D13048808816
:1014200041F66311884220D12D494889FFF768FAB7
:101430002012FFF768FAE0B2FFF765FA3012FFF703
:1014400062FAF0B2FFF75FFA25498889FFF758FA88
:101450002812FFF758FAE8B2FFF755FA3812FFF7EB
:1014600052FAF8B2FFF74FFABEE01D48808841F605
:10147000631188423AD11A480088A0EB0800001B8B
:1014800084B205EB0900401E1FFA80F9144948890F
:10149000FFF736FA2012FFF736FAE0B2FFF733FA19
:1014A00004EB0801491EC1F30F20FFF72CFA04EBEF
:1014B0000801491EC8B2FFF726FA09498889FFF7D3
:1014C0001FFA2812FFF71FFAE8B2FFF71CFA4FEADB
:1014D0002920FFF718FA09F0FF00FFF714FA83E05C
:1014E0004C260020FE07006C66660440FE4880889B
:1014F00045F21051884244D1FB494889FFF700FA70
:101500002012FFF700FAF8494989491C88B2FFF711
:10151000F7F9E0B2FFF7F7F9F3494989891C88B276
:10152000FFF7EEF93012FFF7EEF9EF494989C91CD0
:1015300088B2FFF7E5F9F0B2FFF7E5F9EA498889E3
:10154000FFF7DEF92812FFF7DEF9E7498989491C20
:1015500088B2FFF7D5F9E8B2FFF7D5F9E2498989F2
:10156000891C88B2FFF7CCF93812FFF7CCF9DE49B5
:101570008989C91C88B2FFF7C3F9F8B2FFF7C3F92C
:1015800032E0D948807901280ED1AA46BB46D64818
:101590000088801B401E80B20190D3480088001B49
:1015A000401E80B2009003E0A246B346019500972A
:1015B0005020059051200490522003905320029017
:1015C00051460598FFF7ABF959460498FFF7A7F97C
:1015D00001990398FFF7A3F900990298FFF79FF983
:1015E00029462046FFF7C8F906B0BDE8F08F70B570
:1015F00004460026BC48058840884543BA48808890
:1016000046F60401884216D1B7488079012812D1E4
:101610000020B54988712A2048812B20888100212B
:101620000846FFF7A9F90120AF4988712B204881AE
:101630002A20888103E000210846FFF79DF9FFF783
:101640007EF9002602E0A9480480761CAE42FAD357
:1016500070BD00B59FB0012108020AF000FF012112
:1016600040F269100AF008FF4FF48050ADF878009E
:1016700010208DF87B0003208DF87A001EA99C486D
:101680000AF03EFC4CF23370ADF8780018208DF86B
:101690007B0003208DF87A001EA996480AF030FCE2
:1016A0004FF68070ADF8780018208DF87B0003208D
:1016B0008DF87A001EA990480AF022FC41F2010040
:1016C000ADF8780018208DF87B0003208DF87A00A3
:1016D0001EA98A480AF014FC0120089000200990F5
:1016E0000F200A9000200B900C900D900E9001900E
:1016F000029003200390002004900590069007902C
:1017000006200F90002010901190102012900020C1
:10171000139015901490169017904FF480501890D5
:10172000002019904FF480401A9000201B9008A8C8
:101730001C9001A81D900FA80AF0C8F801210620EE
:101740000AF02CFA322009F0F4FD0020FFF7ECF843
:101750006549888008468088FF280ADB084680881B
:101760004FF6FF71884204D05F488088B0F5134F70
:101770007ED1D320FFF7C4F8FFF7C9F85A49888013
:10178000FFF7C5F858498880FFF7C1F856498880A7
:10179000084680884FF6FF7101EA00205249888090
:1017A000FFF7B5F85049898808434F4988800846B3
:1017B000808849F2413188425AD0BF20FFF7A0F813
:1017C000FFF7A5F848498880FFF7A1F846498880C7
:1017D000FFF79DF844498880FFF799F842498880CF
:1017E000084680884FF6FF7101EA00203E49888054
:1017F000FFF78DF83C49898808433B4988800846B3
:10180000808846F60401884232D0D420FFF778F869
:10181000FFF77DF834498880FFF779F832498880EE
:10182000FFF775F830498880084680884FF6FF71C9
:1018300001EA00202C498880FFF769F82A49898845
:101840000843294988800846808845F2103188423B
:1018500063D04FF45A40FFF753F8FFF758F8224986
:1018600088804FF45B40FFF74BF8FFF750F800E03B
:1018700053E01D498880084680884FF6FF7101EAD1
:101880000020194988804FF45C40FFF739F8FFF7D2
:101890003EF815498988084313498880084680889E
:1018A000B0F5004F02D145F2105088800E48808874
:1018B00045F21051884230D0A120FFF721F8FFF700
:1018C00026F809498880FFF722F8074988800846EA
:1018D00080884FF6FF7101EA002003498880FFF7F6
:1018E00016F8014989880BE04C2600200008006C9E
:1018F000000C01400014014000180140002001408C
:101900000843FE4988800846808845F26171884214
:1019100003D141F66310F9498880F8488188F8A01E
:101920001AF0E4F9F548808849F2413188427CD1C7
:10193000CF20FEF7E5FF0020FEF7E5FFC120FEF710
:10194000E2FF3020FEF7DFFFED20FEF7D9FF642035
:10195000FEF7D9FF0320FEF7D6FF1220FEF7D3FFD4
:101960008120FEF7D0FFE820FEF7CAFF8520FEF7B2
:10197000CAFF1020FEF7C7FF7A20FEF7C4FFCB2076
:10198000FEF7BEFF3920FEF7BEFF2C20FEF7BBFF9F
:101990000020FEF7B8FF3420FEF7B5FF0220FEF767
:1019A000B2FFF720FEF7ACFF2020FEF7ACFFEA20E5
:1019B000FEF7A6FF0020FEF7A6FF0020FEF7A3FF1C
:1019C000C020FEF79DFF1B20FEF79DFFC120FEF704
:1019D00097FF0120FEF797FFC520FEF791FF30200B
:1019E000FEF791FF3020FEF78EFFC720FEF788FF3D
:1019F000B720FEF788FF3620FEF782FF4820FEF76B
:101A000082FF3A20FEF77CFF5520FEF77CFFB120D5
:101A1000FEF776FF0020FEF776FF1A20FEF773FF31
:101A2000B620FEF76DFF0A2000E099E0FEF76BFF9D
:101A3000A220FEF768FFF220FEF762FF0020FEF70B
:101A400062FF2620FEF75CFF0120FEF75CFFE0202E
:101A5000FEF756FF0F20FEF756FF2A20FEF753FF32
:101A60002820FEF750FF0820FEF74DFF0E20FEF75E
:101A70004AFF0820FEF747FF5420FEF744FFA92045
:101A8000FEF741FF4320FEF73EFF0A20FEF73BFF33
:101A90000F20FEF738FF0020FEF735FF0020FEF78D
:101AA00032FF0020FEF72FFF0020FEF72CFFE12081
:101AB000FEF726FF0020FEF726FF1520FEF723FF86
:101AC0001720FEF720FF0720FEF71DFF1120FEF76D
:101AD0001AFF0620FEF717FF2B20FEF714FF5620F3
:101AE000FEF711FF3C20FEF70EFF0520FEF70BFF6F
:101AF0001020FEF708FF0F20FEF705FF3F20FEF73E
:101B000002FF3F20FEF7FFFE0F20FEF7FCFE2B201A
:101B1000FEF7F6FE0020FEF7F6FE0020FEF7F3FECD
:101B20000120FEF7F0FE3F20FEF7EDFE2A20FEF733
:101B3000E7FE0020FEF7E7FE0020FEF7E4FE0020AF
:101B4000FEF7E1FEEF20FEF7DEFE1120FEF7D8FEE5
:101B5000782009F0EEFB2920FEF7D2FE03F022B92F
:101B60006648808846F6040188427CD11120FEF741
:101B7000C7FE142009F0DDFBD020FEF7C1FE0720D0
:101B8000FEF7C1FE4220FEF7BEFE1D20FEF7BBFEA3
:101B9000D120FEF7B5FE0020FEF7B5FE1A20FEF7B5
:101BA000B2FE0920FEF7AFFED220FEF7A9FE01200B
:101BB000FEF7A9FE2220FEF7A6FEC020FEF7A0FE3B
:101BC0001020FEF7A0FE3B20FEF79DFE0020FEF752
:101BD0009AFE0220FEF797FE1120FEF794FEC52024
:101BE000FEF78EFE0320FEF78EFEC820FEF788FE6D
:101BF0000020FEF788FE2520FEF785FE2120FEF757
:101C000082FE0520FEF77FFE0020FEF77CFE0A2004
:101C1000FEF779FE6520FEF776FE2520FEF773FEBF
:101C20007720FEF770FE5020FEF76DFE0F20FEF7C6
:101C30006AFE0020FEF767FEF820FEF761FE012035
:101C4000FEF761FEFE20FEF75BFE0020FEF75BFE66
:101C50000220FEF758FE2020FEF752FE3620FEF747
:101C60004FFE082000E02CE0FEF74DFE3A20FEF784
:101C700047FE5520FEF747FE2B20FEF741FE0020D1
:101C8000FEF741FE0020FEF73EFE0120FEF73BFE80
:101C90003F20FEF738FE2A20FEF732FE0020FEF736
:101CA00032FE0020FEF72FFE0120FEF72CFEDF2083
:101CB000FEF729FE782009F03CFB2920FEF720FEE4
:101CC0004CE70E48808845F21031884240F0848706
:101CD000ED20FEF715FE0120FEF715FEFE20FEF7B3
:101CE00012FEEE20FEF70CFEDE20FEF70CFE212099
:101CF000FEF709FEF120FEF703FE09E04C26002066
:101D0000204C43442049443A25780D0A0000000045
:101D10000120FEF7F8FDDF20FEF7F2FD1020FEF7B0
:101D2000F2FDC420FEF7ECFD8F20FEF7ECFDC6208F
:101D3000FEF7E6FD0020FEF7E6FDE220FEF7E3FDFC
:101D4000E220FEF7E0FDE220FEF7DDFDBF20FEF71A
:101D5000D7FDAA20FEF7D7FDB020FEF7D1FD0D205C
:101D6000FEF7D1FD0020FEF7CEFD0D20FEF7CBFDE6
:101D70000020FEF7C8FD1120FEF7C5FD0020FEF78C
:101D8000C2FD1920FEF7BFFD0020FEF7BCFD21209B
:101D9000FEF7B9FD0020FEF7B6FD2D20FEF7B3FDDE
:101DA0000020FEF7B0FD3D20FEF7ADFD0020FEF760
:101DB000AAFD5D20FEF7A7FD0020FEF7A4FD5D2033
:101DC000FEF7A1FD0020FEF79EFDB120FEF798FD75
:101DD0008020FEF798FD0020FEF795FD8B20FEF792
:101DE00092FD0020FEF78FFD9620FEF78CFD00206F
:101DF000FEF789FDB220FEF783FD0020FEF783FD8C
:101E00000020FEF780FD0220FEF77DFD0020FEF79A
:101E10007AFD0320FEF777FD0020FEF774FDB32066
:101E2000FEF76EFD0020FEF76EFD0020FEF76BFD55
:101E30000020FEF768FD0020FEF765FD0020FEF79C
:101E400062FD0020FEF75FFD0020FEF75CFD002034
:101E5000FEF759FD0020FEF756FD0020FEF753FD6A
:101E60000020FEF750FD0020FEF74DFD0020FEF79C
:101E70004AFD0020FEF747FD0020FEF744FD00204C
:101E8000FEF741FD0020FEF73EFD0020FEF73BFD82
:101E90000020FEF738FD0020FEF735FD0020FEF79C
:101EA00032FD0020FEF72FFD0020FEF72CFD002064
:101EB000FEF729FDB420FEF723FD8B20FEF723FD5E
:101EC0000020FEF720FD9620FEF71DFD0020FEF706
:101ED0001AFDA120FEF717FD0020FEF714FDB52026
:101EE000FEF70EFD0220FEF70EFD0020FEF70BFDB3
:101EF0000320FEF708FD0020FEF705FD0420FEF795
:101F000002FD0020FEF7FFFCB620FEF7F9FC0020E2
:101F1000FEF7F9FC0020FEF7F6FCB720FEF7F0FC18
:101F20000020FEF7F0FC0020FEF7EDFC3F20FEF75E
:101F3000EAFC0020FEF7E7FC5E20FEF7E4FC002050
:101F4000FEF7E1FC6420FEF7DEFC0020FEF7DBFC80
:101F50008C20FEF7D8FC0020FEF7D5FCAC20FEF765
:101F6000D2FC0020FEF7CFFCDC20FEF7CCFC0020EA
:101F7000FEF7C9FC7020FEF7C6FC0020FEF7C3FC8C
:101F80009020FEF7C0FC0020FEF7BDFCEB20FEF722
:101F9000BAFC0020FEF7B7FCDC20FEF7B4FC002002
:101FA000FEF7B1FCB820FEF7ABFC0020FEF7ABFC5F
:101FB0000020FEF7A8FC0020FEF7A5FC0020FEF79D
:101FC000A2FC0020FEF79FFC0020FEF79CFC0020F6
:101FD000FEF799FC0020FEF796FCBA20FEF790FC75
:101FE0002420FEF790FC0020FEF78DFC0020FEF779
:101FF0008AFC0020FEF787FCC120FEF781FC202030
:10200000FEF781FC0020FEF77EFC5420FEF77BFCEF
:102010000020FEF778FCFF20FEF775FC0020FEF79D
:1020200072FCC220FEF76CFC0A20FEF76CFC00205C
:10203000FEF769FC0420FEF766FC0020FEF763FC57
:10204000C320FEF75DFC3C20FEF75DFC0020FEF7A0
:102050005AFC3A20FEF757FC0020FEF754FC3920CA
:10206000FEF751FC0020FEF74EFC3720FEF74BFC3C
:102070000020FEF748FC3C20FEF745FC0020FEF760
:1020800042FC3620FEF73FFC0020FEF73CFC3220ED
:10209000FEF739FC0020FEF736FC2F20FEF733FC5C
:1020A0000020FEF730FC2C20FEF72DFC0020FEF770
:1020B0002AFC2920FEF727FC0020FEF724FC26201E
:1020C000FEF721FC0020FEF71EFC2420FEF71BFC7F
:1020D0000020FEF718FC2420FEF715FC0020FEF778
:1020E00012FC2320FEF70FFC0020FEF70CFC3C2026
:1020F000FEF709FC0020FEF706FC3620FEF703FC85
:102100000020FEF700FC3220FEF7FDFB0020FEF76A
:10211000FAFB2F20FEF7F7FB0020FEF7F4FB2C2044
:10212000FEF7F1FB0020FEF7EEFB2920FEF7EBFBAC
:102130000020FEF7E8FB2620FEF7E5FB0020FEF777
:10214000E2FB2420FEF7DFFB0020FEF7DCFB24206F
:10215000FEF7D9FB0020FEF7D6FB2320FEF7D3FBCA
:102160000020FEF7D0FBC420FEF7CAFB6220FEF77A
:10217000CAFB0020FEF7C7FB0520FEF7C4FB0020CA
:10218000FEF7C1FB8420FEF7BEFB0020FEF7BBFB81
:10219000F020FEF7B8FB0020FEF7B5FB1820FEF795
:1021A000B2FB0020FEF7AFFBA420FEF7ACFB002043
:1021B000FEF7A9FB1820FEF7A6FB0020FEF7A3FB05
:1021C0005020FEF7A0FB0020FEF79DFB0C20FEF741
:1021D0009AFB0020FEF797FB1720FEF794FB0020E8
:1021E000FEF791FB9520FEF78EFB0020FEF78BFBA0
:1021F000F320FEF788FB0020FEF785FBE620FEF7C4
:1022000082FB0020FEF77FFBC520FEF779FB322022
:10221000FEF779FB0020FEF776FB4420FEF773FB08
:102220000020FEF770FB6520FEF76DFB0020FEF737
:102230006AFB7620FEF767FB0020FEF764FB882030
:10224000FEF761FB0020FEF75EFBC620FEF758FBA1
:102250002020FEF758FB0020FEF755FB1720FEF765
:1022600052FB0020FEF74FFB0120FEF74CFB002045
:10227000FEF749FBC720FEF743FB0020FEF743FBB8
:102280000020FEF740FB0020FEF73DFB0020FEF79C
:102290003AFBC820FEF734FB0020FEF734FB002099
:1022A000FEF731FB0020FEF72EFB0020FEF72BFB94
:1022B000C920FEF725FB0020FEF725FB0020FEF7D6
:1022C00022FB0020FEF71FFB0020FEF71CFB002076
:1022D000FEF719FB0020FEF716FB0020FEF713FBAC
:1022E0000020FEF710FB0020FEF70DFB0020FEF79C
:1022F0000AFB0020FEF707FB0020FEF704FB00208E
:10230000FEF701FB0020FEF7FEFA0020FEF7FBFAC5
:102310000020FEF7F8FAE020FEF7F2FA1620FEF7AA
:10232000F2FA0020FEF7EFFA1C20FEF7ECFA00208C
:10233000FEF7E9FA2120FEF7E6FA0020FEF7E3FABD
:102340003620FEF7E0FA0020FEF7DDFA4620FEF721
:10235000DAFA0020FEF7D7FA5220FEF7D4FA00206E
:10236000FEF7D1FA6420FEF7CEFA0020FEF7CBFA92
:102370007A20FEF7C8FA0020FEF7C5FA8B20FEF798
:10238000C2FA0020FEF7BFFA9920FEF7BCFA00203F
:10239000FEF7B9FAA820FEF7B6FA0020FEF7B3FA66
:1023A000B920FEF7B0FA0020FEF7ADFAC420FEF720
:1023B000AAFA0020FEF7A7FACA20FEF7A4FA002026
:1023C000FEF7A1FAD220FEF79EFA0020FEF79BFA54
:1023D000D920FEF798FA0020FEF795FAE020FEF7E4
:1023E00092FA0020FEF78FFAF320FEF78CFA002015
:1023F000FEF789FAE120FEF783FA1620FEF783FA4A
:102400000020FEF780FA1C20FEF77DFA0020FEF780
:102410007AFA2220FEF777FA0020FEF774FA3620C7
:10242000FEF771FA0020FEF76EFA4520FEF76BFA10
:102430000020FEF768FA5220FEF765FA0020FEF74A
:1024400062FA6420FEF75FFA0020FEF75CFA7A2059
:10245000FEF759FA0020FEF756FA8B20FEF753FAE2
:102460000020FEF750FA9920FEF74DFA0020FEF703
:102470004AFAA820FEF747FA0020FEF744FAB920EE
:10248000FEF741FA0020FEF73EFAC420FEF73BFAC1
:102490000020FEF738FACA20FEF735FA0020FEF7D2
:1024A00032FAD220FEF72FFA0020FEF72CFAD820BD
:1024B000FEF729FA0020FEF726FAE020FEF723FABD
:1024C0000020FEF720FAF320FEF71DFA0020FEF7A9
:1024D0001AFAE220FEF714FA0520FEF714FA00209B
:1024E000FEF711FA0B20FEF70EFA0020FEF70BFAAA
:1024F0001B20FEF708FA0020FEF705FA3420FEF74D
:1025000002FA0020FEF7FFF94420FEF7FCF9002054
:10251000FEF7F9F94F20FEF7F6F90020FEF7F3F980
:102520006120FEF7F0F90020FEF7EDF97920FEF7C3
:10253000EAF90020FEF7E7F98820FEF7E4F9002029
:10254000FEF7E1F99720FEF7DEF90020FEF7DBF950
:10255000A620FEF7D8F90020FEF7D5F9B720FEF740
:10256000D2F90020FEF7CFF9C220FEF7CCF9002007
:10257000FEF7C9F9C720FEF7C6F90020FEF7C3F938
:10258000D120FEF7C0F90020FEF7BDF9D620FEF7F6
:10259000BAF90020FEF7B7F9DD20FEF7B4F9002004
:1025A000FEF7B1F9F320FEF7AEF90020FEF7ABF924
:1025B000E320FEF7A5F90520FEF7A5F90020FEF7B8
:1025C000A2F90A20FEF79FF90020FEF79CF91C20D3
:1025D000FEF799F90020FEF796F93320FEF793F9FC
:1025E0000020FEF790F94420FEF78DF90020FEF759
:1025F0008AF95020FEF787F90020FEF784F962205F
:10260000FEF781F90020FEF77EF97820FEF77BF9CE
:102610000020FEF778F98820FEF775F90020FEF714
:1026200072F99720FEF76FF90020FEF76CF9A620EB
:10263000FEF769F90020FEF766F9B720FEF763F9A7
:102640000020FEF760F9C220FEF75DF90020FEF7DA
:102650005AF9C720FEF757F90020FEF754F9D120A8
:10266000FEF751F90020FEF74EF9D520FEF74BF9A1
:102670000020FEF748F9DD20FEF745F90020FEF7BF
:1026800042F9F320FEF73FF90020FEF73CF9E42081
:10269000FEF736F90120FEF736F90020FEF733F990
:1026A0000120FEF730F90020FEF72DF90220FEF799
:1026B0002AF90020FEF727F92A20FEF724F9002046
:1026C000FEF721F93C20FEF71EF90020FEF71BF96A
:1026D0004B20FEF718F90020FEF715F95D20FEF7F4
:1026E00012F90020FEF70FF97420FEF70CF9002014
:1026F000FEF709F98420FEF706F90020FEF703F93A
:102700009320FEF700F90020FEF7FDF8A220FEF767
:10271000FAF80020FEF7F7F8B320FEF7F4F80020EF
:10272000FEF7F1F8BE20FEF7EEF80020FEF7EBF81A
:10273000C420FEF7E8F80020FEF7E5F8CD20FEF70C
:10274000E2F80020FEF7DFF8D320FEF7DCF80020E7
:10275000FEF7D9F8DD20FEF7D6F80020FEF7D3F813
:10276000F320FEF7D0F80020FEF7CDF8E520FEF7C5
:10277000C7F80020FEF7C7F80020FEF7C4F80020D5
:10278000FEF7C1F80020FEF7BEF80220FEF7BBF806
:102790000020FEF7B8F82920FEF7B5F80020FEF774
:1027A000B2F83C20FEF7AFF80020FEF7ACF84B2063
:1027B000FEF7A9F80020FEF7A6F85D20FEF7A3F8C3
:1027C0000020FEF7A0F87420FEF79DF80020FEF729
:1027D0009AF88420FEF797F80020FEF794F89320EB
:1027E000FEF791F80020FEF78EF8A220FEF78BF896
:1027F0000020FEF788F8B320FEF785F80020FEF7EA
:1028000082F8BE20FEF77FF80020FEF77CF8C42097
:10281000FEF779F80020FEF776F8CD20FEF773F882
:102820000020FEF770F8D320FEF76DF80020FEF7C9
:102830006AF8DC20FEF767F80020FEF764F8F32062
:10284000FEF761F80020FEF75EF8E620FEF758F884
:102850001120FEF758F80020FEF755F83420FEF757
:1028600052F80020FEF74FF85620FEF74CF80020F3
:10287000FEF749F87620FEF746F80020FEF743F809
:102880007720FEF740F80020FEF73DF86620FEF7BF
:102890003AF80020FEF737F88820FEF734F80020D9
:1028A000FEF731F89920FEF72EF80020FEF72BF8FE
:1028B000BB20FEF728F80020FEF725F89920FEF748
:1028C00022F80020FEF71FF86620FEF71CF8002013
:1028D000FEF719F85520FEF716F80020FEF713F85A
:1028E0005520FEF710F80020FEF70DF84520FEF702
:1028F0000AF80020FEF707F84320FEF704F800204E
:10290000FEF701F84420FDF7FEFF0020FDF7FBFF76
:10291000E720FDF7F5FF3220FDF7F5FF0020FDF77A
:10292000F2FF5520FDF7EFFF0020FDF7ECFF7620CA
:10293000FDF7E9FF0020FDF7E6FF6620FDF7E3FF66
:102940000020FDF7E0FF6720FDF7DDFF0020FDF729
:10295000DAFF6720FDF7D7FF0020FDF7D4FF8720BF
:10296000FDF7D1FF0020FDF7CEFF9920FDF7CBFF4B
:102970000020FDF7C8FFBB20FDF7C5FF0020FDF7D5
:10298000C2FF9920FDF7BFFF0020FDF7BCFF7720B5
:10299000FDF7B9FF0020FDF7B6FF4420FDF7B3FFB8
:1029A0000020FDF7B0FF5620FDF7ADFF0020FDF73A
:1029B000AAFF2320FDF7A7FF0020FDF7A4FF332087
:1029C000FDF7A1FF0020FDF79EFF4520FDF79BFFCF
:1029D0000020FDF798FFE820FDF792FF0020FDF7AB
:1029E00092FF0020FDF78FFF9920FDF78CFF00205C
:1029F000FDF789FF8720FDF786FF0020FDF783FFA5
:102A00008820FDF780FF0020FDF77DFF7720FDF790
:102A10007AFF0020FDF777FF6620FDF774FF0020A6
:102A2000FDF771FF8820FDF76EFF0020FDF76BFFBB
:102A3000AA20FDF768FF0020FDF765FFBB20FDF72A
:102A400062FF0020FDF75FFF9920FDF75CFF00208B
:102A5000FDF759FF6620FDF756FF0020FDF753FFF5
:102A60005520FDF750FF0020FDF74DFF5520FDF7E5
:102A70004AFF0020FDF747FF4420FDF744FF0020F8
:102A8000FDF741FF4420FDF73EFF0020FDF73BFF2F
:102A90005520FDF738FF0020FDF735FFE920FDF751
:102AA0002FFFAA20FDF72FFF0020FDF72CFF0020AD
:102AB000FDF729FF0020FDF726FF0020FDF720FF8E
:102AC000AA20FDF720FFCF20FDF71AFF0020FDF719
:102AD0001AFF0020FDF717FF0020FDF714FF00206C
:102AE000FDF711FF0020FDF70EFF0020FDF70BFFA3
:102AF0000020FDF708FF0020FDF705FF0020FDF78F
:102B000002FF0020FDF7FFFE0020FDF7FCFE002085
:102B1000FDF7F9FE0020FDF7F6FE0020FDF7F3FEBD
:102B20000020FDF7F0FE0020FDF7EDFE0020FDF790
:102B3000EAFEF020FDF7E4FE0020FDF7E4FE502061
:102B4000FDF7E1FE0020FDF7DEFE0020FDF7DBFED5
:102B50000020FDF7D8FEF320FDF7D2FE0020FDF7A0
:102B6000D2FEF920FDF7CCFE0620FDF7CCFE1020AA
:102B7000FDF7C9FE2920FDF7C6FE0020FDF7C3FEC4
:102B80003A20FDF7BDFE5520FDF7BDFE1120FDF7F3
:102B9000B7FE642008F0CDFB2920FDF7B1FE3520FB
:102BA000FDF7AEFE0020FDF7AEFE5120FDF7A8FEBA
:102BB000FF20FDF7A8FE5320FDF7A2FE2C20FDF715
:102BC000A2FE5520FDF79CFE8220FDF79CFE2C20E6
:102BD000FDF796FE02F0E6B8FE48808845F21051F7
:102BE00088427DD155214FF47040FDF798FEAA210F
:102BF0004FF20100FDF793FE52214FF20200FDF764
:102C00008EFE08214FF20300FDF789FE01214FF2ED
:102C10000400FDF784FE0D214FF43040FDF77FFEE8
:102C20000D214BF20100FDF77AFE0D214BF202005F
:102C3000FDF775FE34214FF43640FDF770FE342168
:102C40004BF20160FDF76BFE34214BF20260FDF7A1
:102C500066FE0D214FF43140FDF761FE0D214BF270
:102C60000110FDF75CFE0D214BF20210FDF757FE3F
:102C700034214FF43740FDF752FE34214BF20170FE
:102C8000FDF74DFE34214BF20270FDF748FE0021A6
:102C90004FF43240FDF743FE00214BF20120FDF7D7
:102CA0003EFE00214BF20220FDF739FE24214FF4B5
:102CB0003840FDF734FE24214BF60100FDF72FFECE
:102CC00024214BF60200FDF72AFE01214FF43F407C
:102CD000FDF725FE0F214FF43340FDF720FE00E005
:102CE000FDE30F214BF20130FDF719FE0F214BF2EE
:102CF0000230FDF714FE34214FF43940FDF70FFE8A
:102D000034214BF60110FDF70AFE34214BF6021078
:102D1000FDF705FE08214FF43540FDF700FE0821C0
:102D20004BF20150FDF7FBFD08214BF20250FDF77D
:102D3000F6FD03214FF44240FDF7F1FD24214FF44D
:102D40003A40FDF7ECFD24214BF60120FDF7E7FDAD
:102D500024214BF60220FDF7E2FD00214FF43C4018
:102D6000FDF7DDFD78214BF60140FDF7D8FD002190
:102D70004BF60240FDF7D3FD00214FF43D40FDF737
:102D8000CEFD78214BF60150FDF7C9FD00214BF631
:102D90000250FDF7C4FD00214FF43E40FDF7BFFD9A
:102DA00064214BF60160FDF7BAFD00214FF451405C
:102DB000FDF7B5FD33214DF20110FDF7B0FD002107
:102DC0004DF20210FDF7ABFD34214DF20310FDF77B
:102DD000A6FD00214DF20410FDF7A1FD3A214DF2B0
:102DE0000510FDF79CFD00214DF20610FDF797FD43
:102DF0004A214DF20710FDF792FD00214DF2081017
:102E0000FDF78DFD5C214DF20910FDF788FD0021D5
:102E10004DF20A10FDF783FD81214DF20B10FDF7F5
:102E20007EFD00214DF20C10FDF779FDA6214DF23B
:102E30000D10FDF774FD00214DF20E10FDF76FFD32
:102E4000E5214DF20F10FDF76AFD01214DF2101042
:102E5000FDF765FD13214DF21110FDF760FD012115
:102E60004DF21210FDF75BFD54214DF21310FDF7EA
:102E700056FD01214DF21410FDF751FD82214DF256
:102E80001510FDF74CFD01214DF21610FDF747FD21
:102E9000CA214DF21710FDF742FD02214DF2181024
:102EA000FDF73DFD00214DF21910FDF738FD02211F
:102EB0004DF21A10FDF733FD01214DF21B10FDF705
:102EC0002EFD02214DF21C10FDF729FD34214DF29B
:102ED0001D10FDF724FD02214DF21E10FDF71FFD10
:102EE00067214DF21F10FDF71AFD02214DF220104F
:102EF000FDF715FD84214DF22110FDF710FD022193
:102F00004DF22210FDF70BFDA4214DF22310FDF729
:102F100006FD02214DF22410FDF701FDB7214DF20F
:102F20002510FDF7FCFC02214DF22610FDF7F7FC01
:102F3000CF214DF22710FDF7F2FC02214DF22810AF
:102F4000FDF7EDFCDE214DF22910FDF7E8FC022132
:102F50004DF22A10FDF7E3FCF2214DF22B10FDF7A4
:102F6000DEFC02214DF22C10FDF7D9FCFE214DF2C2
:102F70002D10FDF7D4FC03214DF22E10FDF7CFFCF0
:102F800010214DF22F10FDF7CAFC03214DF2301035
:102F9000FDF7C5FC33214DF23110FDF7C0FC0321D4
:102FA0004DF23210FDF7BBFC6D214DF23310FDF7F1
:102FB000B6FC00214FF45240FDF7B1FC33214DF235
:102FC0000120FDF7ACFC00214DF20220FDF7A7FC2B
:102FD000342101E04C2600204DF20320FDF79FFC38
:102FE00000214DF20420FDF79AFC3A214DF2052014
:102FF000FDF795FC00214DF20620FDF790FC4A21DB
:103000004DF20720FDF78BFC00214DF20820FDF763
:1030100086FC5C214DF20920FDF781FC00214DF278
:103020000A20FDF77CFC81214DF20B20FDF777FC97
:1030300000214DF20C20FDF772FCA6214DF20D206F
:10304000FDF76DFC00214DF20E20FDF768FCE52137
:103050004DF20F20FDF763FC01214DF21020FDF72A
:103060005EFC13214DF21120FDF759FC01214DF2B8
:103070001220FDF754FC54214DF21320FDF74FFCB4
:1030800001214DF21420FDF74AFC82214DF215205A
:10309000FDF745FC01214DF21620FDF740FCCA2149
:1030A0004DF21720FDF73BFC02214DF21820FDF7F1
:1030B00036FC00214DF21920FDF731FC02214DF2C2
:1030C0001A20FDF72CFC01214DF21B20FDF727FCF7
:1030D00002214DF21C20FDF722FC34214DF21D206F
:1030E000FDF71DFC02214DF21E20FDF718FC6721A3
:1030F0004DF21F20FDF713FC02214DF22020FDF7B9
:103100000EFC84214DF22120FDF709FC02214DF235
:103110002220FDF704FCA4214DF22320FDF7FFFB44
:1031200002214DF22420FDF7FAFBB7214DF22520B4
:10313000FDF7F5FB02214DF22620FDF7F0FBCF2134
:103140004DF22720FDF7EBFB02214DF22820FDF781
:10315000E6FBDE214DF22920FDF7E1FB02214DF2D5
:103160002A20FDF7DCFBF2214DF22B20FDF7D7FBE7
:1031700002214DF22C20FDF7D2FBFE214DF22D2035
:10318000FDF7CDFB03214DF22E20FDF7C8FB1021EA
:103190004DF22F20FDF7C3FB03214DF23020FDF748
:1031A000BEFB33214DF23120FDF7B9FB03214DF277
:1031B0003220FDF7B4FB6D214DF23320FDF7AFFB5C
:1031C00000214FF45340FDF7AAFB33214DF20130AB
:1031D000FDF7A5FB00214DF20230FDF7A0FB3421E5
:1031E0004DF20330FDF79BFB00214DF20430FDF75B
:1031F00096FB3A214DF20530FDF791FB00214DF28F
:103200000630FDF78CFB4A214DF20730FDF787FBB6
:1032100000214DF20830FDF782FB5C214DF20930B0
:10322000FDF77DFB00214DF20A30FDF778FB81218F
:103230004DF20B30FDF773FB00214DF20C30FDF722
:103240006EFBA6214DF20D30FDF769FB00214DF21A
:103250000E30FDF764FBE5214DF20F30FDF75FFB0B
:1032600001214DF21030FDF75AFB13214DF21130C0
:10327000FDF755FB01214DF21230FDF750FB5421B3
:103280004DF21330FDF74BFB01214DF21430FDF7E9
:1032900046FB82214DF21530FDF741FB01214DF235
:1032A0001630FDF73CFBCA214DF21730FDF737FB16
:1032B00002214DF21830FDF732FB00214DF219309A
:1032C000FDF72DFB02214DF21A30FDF728FB0121FD
:1032D0004DF21B30FDF723FB02214DF21C30FDF7B0
:1032E0001EFB34214DF21D30FDF719FB02214DF27A
:1032F0001E30FDF714FB67214DF21F30FDF70FFB69
:1033000002214DF22030FDF70AFB84214DF22130DD
:10331000FDF705FB02214DF22230FDF700FBA42151
:103320004DF22330FDF7FBFA02214DF22430FDF778
:10333000F6FAB7214DF22530FDF7F1FA02214DF2F0
:103340002630FDF7ECFACF214DF22730FDF7E7FAF2
:1033500002214DF22830FDF7E2FADE214DF229304C
:10336000FDF7DDFA02214DF22A30FDF7D8FAF221FD
:103370004DF22B30FDF7D3FA02214DF22C30FDF740
:10338000CEFAFE214DF22D30FDF7C9FA03214DF2A0
:103390002E30FDF7C4FA10214DF22F30FDF7BFFAA1
:1033A00003214DF23030FDF7BAFA33214DF23130BE
:1033B000FDF7B5FA03214DF23230FDF7B0FA6D2179
:1033C0004DF23330FDF7ABFA00214FF45440FDF7D6
:1033D000A6FA33214DF20140FDF7A1FA00214DF28A
:1033E0000240FDF79CFA34214DF20340FDF797FAB5
:1033F00000214DF20440FDF792FA3A214DF20540CA
:10340000FDF78DFA00214DF20640FDF788FA4A21BA
:103410004DF20740FDF783FA00214DF20840FDF719
:103420007EFA5C214DF20940FDF779FA00214DF258
:103430000A40FDF774FA81214DF20B40FDF76FFA57
:1034400000214DF20C40FDF76AFAA6214DF20D4025
:10345000FDF765FA00214DF20E40FDF760FAE52117
:103460004DF20F40FDF75BFA01214DF21040FDF7E0
:1034700056FA13214DF21140FDF751FA01214DF298
:103480001240FDF74CFA54214DF21340FDF747FA74
:1034900001214DF21440FDF742FA82214DF2154010
:1034A000FDF73DFA01214DF21640FDF738FACA2129
:1034B0004DF21740FDF733FA02214DF21840FDF7A7
:1034C0002EFA00214DF21940FDF729FA02214DF2A2
:1034D0001A40FDF724FA01214DF21B4000E006E3FB
:1034E000FDF71DFA02214DF21C40FDF718FA3421B8
:1034F0004DF21D40FDF713FA02214DF21E40FDF77B
:103500000EFA67214DF21F40FDF709FA02214DF234
:103510002040FDF704FA84214DF22140FDF7FFF928
:1035200002214DF22240FDF7FAF9A4214DF2234089
:10353000FDF7F5F902214DF22440FDF7F0F9B7212E
:103540004DF22540FDF7EBF902214DF22640FDF743
:10355000E6F9CF214DF22740FDF7E1F902214DF2C6
:103560002840FDF7DCF9DE214DF22940FDF7D7F9BF
:1035700002214DF22A40FDF7D2F9F2214DF22B4003
:10358000FDF7CDF902214DF22C40FDF7C8F9FE21DF
:103590004DF22D40FDF7C3F903214DF22E40FDF70A
:1035A000BEF910214DF22F40FDF7B9F903214DF27C
:1035B0003040FDF7B4F933214DF23140FDF7AFF95A
:1035C00003214DF23240FDF7AAF96D214DF233404F
:1035D000FDF7A5F900214FF45540FDF7A0F933217F
:1035E0004DF20150FDF79BF900214DF20250FDF71D
:1035F00096F934214DF20350FDF791F900214DF277
:103600000450FDF78CF93A214DF20550FDF787F98A
:1036100000214DF20650FDF782F94A214DF2075084
:10362000FDF77DF900214DF20850FDF778F95C2196
:103630004DF20950FDF773F900214DF20A50FDF7E4
:103640006EF981214DF20B50FDF769F900214DF221
:103650000C50FDF764F9A6214DF20D50FDF75FF90E
:1036600000214DF20E50FDF75AF9E5214DF20F50B1
:10367000FDF755F901214DF21050FDF750F91321D6
:103680004DF21150FDF74BF901214DF21250FDF7AB
:1036900046F954214DF21350FDF741F901214DF245
:1036A0001450FDF73CF982214DF21550FDF737F922
:1036B00001214DF21650FDF732F9CA214DF2175093
:1036C000FDF72DF902214DF21850FDF728F90021E0
:1036D0004DF21950FDF723F902214DF21A50FDF772
:1036E0001EF901214DF21B50FDF719F902214DF28F
:1036F0001C50FDF714F934214DF21D50FDF70FF960
:1037000002214DF21E50FDF70AF967214DF21F50BC
:10371000FDF705F902214DF22050FDF700F9842153
:103720004DF22150FDF7FBF802214DF22250FDF73A
:10373000F6F8A4214DF22350FDF7F1F802214DF2E5
:103740002450FDF7ECF8B7214DF22550FDF7E7F8CE
:1037500002214DF22650FDF7E2F8CF214DF227501D
:10376000FDF7DDF802214DF22850FDF7D8F8DE21F3
:103770004DF22950FDF7D3F802214DF22A50FDF702
:10378000CEF8F2214DF22B50FDF7C9F802214DF28F
:103790002C50FDF7C4F8FE214DF22D50FDF7BFF877
:1037A00003214DF22E50FDF7BAF810214DF22F50A3
:1037B000FDF7B5F803214DF23050FDF7B0F8332195
:1037C0004DF23150FDF7ABF803214DF23250FDF7C9
:1037D000A6F86D214DF23350FDF7A1F800214FF40A
:1037E0005640FDF79CF833214DF20160FDF797F844
:1037F00000214DF20260FDF792F834214DF2036092
:10380000FDF78DF800214DF20460FDF788F83A21AC
:103810004DF20560FDF783F800214DF20660FDF7DB
:103820007EF84A214DF20760FDF779F800214DF24C
:103830000860FDF774F85C214DF20960FDF76FF840
:1038400000214DF20A60FDF76AF881214DF20B600C
:10385000FDF765F800214DF20C60FDF760F8A62138
:103860004DF20D60FDF75BF800214DF20E60FDF7A3
:1038700056F8E5214DF20F60FDF751F801214DF2A8
:103880001060FDF74CF813214DF21160FDF747F879
:1038900001214DF21260FDF742F854214DF2136000
:1038A000FDF73DF801214DF21460FDF738F8822153
:1038B0004DF21560FDF733F801214DF21660FDF76A
:1038C0002EF8CA214DF21760FDF729F802214DF2BA
:1038D0001860FDF724F800214DF21960FDF71FF87C
:1038E00002214DF21A60FDF71AF801214DF21B601A
:1038F000FDF715F802214DF21C60FDF710F8342198
:103900004DF21D60FDF70BF802214DF21E60FDF730
:1039100006F867214DF21F60FDF701F802214DF214
:103920002060FCF7FCFF84214DF22160FCF7F7FFDB
:1039300002214DF22260FCF7F2FFA4214DF2236038
:10394000FCF7EDFF02214DF22460FCF7E8FFB72100
:103950004DF22560FCF7E3FF02214DF22660FCF7F3
:10396000DEFFCF214DF22760FCF7D9FF02214DF297
:103970002860FCF7D4FFDE214DF22960FCF7CFFF71
:1039800002214DF22A60FCF7CAFFF2214DF22B60B2
:10399000FCF7C5FF02214DF22C60FCF7C0FFFE21B1
:1039A0004DF22D60FCF7BBFF03214DF22E60FCF7BA
:1039B000B6FF10214DF22F60FCF7B1FF03214DF24D
:1039C0003060FCF7ACFF33214DF23160FCF7A7FF0C
:1039D00003214DF23260FCF7A2FF6D214DF23360FE
:1039E000FCF79DFF55214FF47040FCF798FFAA218A
:1039F0004FF20100FCF793FF52214FF20200FCF757
:103A00008EFF08214FF20300FCF789FF00214FF2DF
:103A10000400FCF784FFCC214FF43140FCF77FFF1A
:103A200000214BF20110FCF77AFF05214FF43640DC
:103A3000FCF775FF70214FF43740FCF770FF7021E1
:103A40004BF20170FCF76BFF01214FF43840FCF79B
:103A500066FF03214BF60100FCF761FF03214BF6E3
:103A60000200FCF75CFF03214BF60300FCF757FF55
:103A700002214FF43C40FCF752FF00214BF601407D
:103A8000FCF74DFF00214BF60240FCF748FFD02128
:103A90004FF44940FCF743FF02214CF60110FCF7BC
:103AA0003EFF50214CF60210FCF739FF50214CF636
:103AB0000310FCF734FF50214CF60410FCF72FFFE5
:103AC00000214FF45450FCF72AFF55214FF4685061
:103AD000FCF725FF4FF48850FCF712FF782007F021
:103AE000FDFB4FF42450FCF70BFF01F05BB9FE48DF
:103AF000808849F2253188427ED147F6F001E520E1
:103B0000FCF70DFF4FF480710120FCF708FF4FF424
:103B1000E0610220FCF703FF41F230010320FCF7D3
:103B2000FEFE00210420FCF7FAFE40F202210820EC
:103B3000FCF7F5FE00210920FCF7F1FE00210A2028
:103B4000FCF7EDFE00210C20FCF7E9FE00210D2022
:103B5000FCF7E5FE00210F20FCF7E1FE002110201C
:103B6000FCF7DDFE07211120FCF7D9FE0021122011
:103B7000FCF7D5FE00211320FCF7D1FE0021072021
:103B8000FCF7CDFE41F290611020FCF7C8FE40F238
:103B900027211120FCF7C3FE9D211220FCF7BFFE58
:103BA0004FF4C8511320FCF7BAFE25212920FCF759
:103BB000B6FE0D212B20FCF7B2FE07213020FCF7CA
:103BC000AEFE40F203313120FCF7A9FE0321322082
:103BD000FCF7A5FE40F206213520FCF7A0FE0821E7
:103BE0003620FCF79CFE40F206413720FCF797FE9A
:103BF0004FF44171382000E057E0FCF790FE0721B8
:103C00003920FCF78CFE40F202613C20FCF787FE75
:103C100008213D20FCF783FE00215020FCF77FFEA9
:103C2000EF215120FCF77BFE00215220FCF777FEAC
:103C300040F23F115320FCF772FE4FF42741602001
:103C4000FCF76DFE01216120FCF769FE00216A206E
:103C5000FCF765FE00218020FCF761FE0021812039
:103C6000FCF75DFE00218220FCF759FE0021832035
:103C7000FCF755FE00218420FCF751FE0021852031
:103C8000FCF74DFE10219020FCF749FE4FF4C06177
:103C90009220FCF744FE40F233110720FCF73FFE70
:103CA00022210020FCF73BFE1FE78F48808849F265
:103CB000283188427ED141F28F01EC20FCF72FFEA3
:103CC00041F23421EF20FCF72AFE4FF480710120ED
:103CD000FCF725FE4FF4E0610220FCF720FE41F2E4
:103CE00030010320FCF71BFE00210420FCF717FE27
:103CF00040F202210820FCF712FE00210920FCF707
:103D00000EFE00210A20FCF70AFE01210C20FCF720
:103D100006FE00210D20FCF702FE00210F20FCF71B
:103D2000FEFD00211020FCF7FAFD07211120FCF711
:103D3000F6FD00211220FCF7F2FD00211320FCF714
:103D4000EEFD01210720FCF7EAFD322007F0F1FA31
:103D500041F290411020FCF7E2FD40F227211120B2
:103D6000FCF7DDFD322007F0E4FA8A211220FCF78F
:103D7000D6FD322007F0DDFA4FF4D0511320FCF7C6
:103D8000CEFD06212920FCF7CAFD0D212B20FCF7D2
:103D9000C6FD322007F0CDFA00212020FCF7BFFD40
:103DA00000212120FCF7BBFD322007F0C2FA0021E0
:103DB000302000E074E0FCF7B2FD40F204613120F5
:103DC000FCF7ADFD40F205313220FCF7A8FD0021E3
:103DD0003520FCF7A4FD40F609413620FCF79FFD95
:103DE0004FF401713720FCF79AFD40F20131382081
:103DF000FCF795FD40F207713920FCF790FD00219A
:103E00003C20FCF78CFD40F60A213D20FCF787FDA5
:103E1000322007F08EFA00215020FCF780FDEF21C0
:103E20005120FCF77CFD00215220FCF778FD40F288
:103E30003F115320FCF773FD4FF427416020FCF73E
:103E40006EFD01216120FCF76AFD00216A20FCF76C
:103E500066FD00218020FCF762FD00218120FCF737
:103E60005EFD00218220FCF75AFD00218320FCF733
:103E700056FD00218420FCF752FD00218520FCF72F
:103E80004EFD10219020FCF74AFD4FF4C0619220B6
:103E9000FCF745FD40F233110720FCF740FD24E616
:103EA0001148808849F2203188427DD1002108469E
:103EB000FCF735FD4FF480710120FCF730FD4FF425
:103EC000E0610220FCF72BFD41F230010320FCF7FA
:103ED00026FD00210420FCF722FD40F202210820EB
:103EE000FCF71DFD002101E04C2600200920FCF715
:103EF00016FD00210A20FCF712FD01210C20FCF721
:103F00000EFD00210D20FCF70AFD00210F20FCF71B
:103F100006FD322007F00DFA40F201110720FCF7F0
:103F2000FEFC322007F005FA4FF486511020FCF712
:103F3000F6FC07211120FCF7F2FC4FF488711220E7
:103F4000FCF7EDFC4FF430611320FCF7E8FC002196
:103F50002920FCF7E4FC44F210012B20FCF7DFFCE5
:103F600000215020FCF7DBFCEF215120FCF7D7FCAF
:103F700000215220FCF7D3FC40F23F115320FCF704
:103F8000CEFC4FF41C516020FCF7C9FC01216120DC
:103F9000FCF7C5FC00216A20FCF7C1FC0021802051
:103FA000FCF7BDFC002100E031E08120FCF7B7FC0C
:103FB00000218220FCF7B3FC00218320FCF7AFFC3A
:103FC00000218420FCF7ABFC00218520FCF7A7FC36
:103FD00010219020FCF7A3FC00219220FCF79FFC0D
:103FE00001219320FCF79BFC4FF488719520FCF78E
:103FF00096FC00219720FCF792FC00219820FCF70A
:104000008EFC40F273110720FCF789FC6DE5FE4839
:10401000808849F2313188427DD141F21401E72094
:10402000FCF77DFC4FF480710120FCF778FC4FF425
:1040300000710220FCF773FC41F238010320FCF709
:104040006EFC40F202210820FCF769FC00210920E7
:10405000FCF765FC00210A20FCF761FC00210C2024
:10406000FCF75DFC00210D20FCF759FC00210F201E
:10407000FCF755FC00211020FCF751FC0721112012
:10408000FCF74DFC00211220FCF749FC0021132015
:10409000FCF745FCC82007F04CF941F29061102074
:1040A000FCF73DFC40F227211120FCF738FC3220C0
:1040B00007F03FF90C211220FCF731FC322007F009
:1040C00038F94FF400611320FCF729FC1121292055
:1040D000FCF725FC0B212B20FCF721FC322007F0FC
:1040E00028F900212020FCF71AFC40F23F11212082
:1040F000FCF715FC00213020FCF711FC4FF4837114
:104100003120FCF70CFC00213220FCF708FC4FF4B6
:104110000171352000E064E0FCF701FC41F20A6126
:104120003620FCF7FCFB40F207713720FCF7F7FB69
:104130004FF483713820FCF7F2FB40F2077139200D
:10414000FCF7EDFB40F202413C20FCF7E8FB40F6B7
:104150000F413D20FCF7E3FB00215020FCF7DFFB83
:10416000EF215120FCF7DBFB00215220FCF7D7FBAD
:1041700040F23F115320FCF7D2FB4FF41C5160205A
:10418000FCF7CDFB01216120FCF7C9FB00216A206F
:10419000FCF7C5FB00218020FCF7C1FB002181203A
:1041A000FCF7BDFB00218220FCF7B9FB0021832036
:1041B000FCF7B5FB00218420FCF7B1FB0021852032
:1041C000FCF7ADFB10219020FCF7A9FB4FF4C06178
:1041D0009220FCF7A4FB40F233110720FCF79FFB71
:1041E00083E48948808845F2084188427ED14FF4B3
:1041F00080710120FCF793FB4FF4E0610220FCF793
:104200008EFB41F230010320FCF789FB00210420E2
:10421000FCF785FB40F207210820FCF780FB00211A
:104220000920FCF77CFB00210A20FCF778FB002129
:104230000C20FCF774FB00210D20FCF770FB002123
:104240000F20FCF76CFB142007F073F841F2B0610B
:104250001020FCF764FB01211120FCF760FB012119
:104260001720FCF75CFB4FF49C711220FCF757FB06
:104270004FF400611320FCF752FB09212920FCF7C1
:104280004EFB09212A20FCF74AFB0021A420FCF761
:1042900046FB00215020FCF742FBEF215120FCF7A8
:1042A0003EFB00215220FCF73AFB40F23F11532025
:1042B000FCF735FB4FF41C516020FCF730FB01216B
:1042C0006120FCF72CFB00216A20FCF728FB002171
:1042D0008020FCF724FB00218120FCF720FB00213B
:1042E0008220FCF71CFB0021832000E023E0FCF788
:1042F00016FB00218420FCF712FB00218520FCF72F
:104300000EFB13219020FCF70AFB00219220FCF702
:1043100006FB03219320FCF702FB4FF488719520E4
:10432000FCF7FDFA40F273110720FCF7F8FA32208F
:1043300006F0FFFFB8E43448808841F20551884216
:104340007ED100210720FCF7EAFA322006F0F1FFC7
:104350004FF48E711220FCF7E2FA0121A420FCF741
:10436000DEFA0F210820FCF7DAFA08210A20FCF710
:10437000D6FA08210D20FCF7D2FA40F2077130205E
:10438000FCF7CDFA07213120FCF7C9FA40F20361AE
:104390003220FCF7C4FA4FF4E0613320FCF7BFFA97
:1043A00040F202213420FCF7BAFA02213520FCF752
:1043B000B6FA41F60F713620FCF7B1FA40F20771F8
:1043C0003720FCF7ACFA00213820FCF7A8FA0021CE
:1043D0003920FCF7A4FA40F207713A20FCF79FFA63
:1043E00000213B20FCF79BFA07213C20FCF797FAC1
:1043F00000213D20FCF793FA322006F09AFF0121BC
:104400000720FCF78CFA01E04C2600200121172040
:10441000FCF785FA322006F08CFF4FF4BD511020D6
:10442000FCF77DFA40F217211120FCF778FA4FF4DF
:104430008F711220FCF773FA4FF47061132000E0C3
:1044400097E0FCF76CFA00212A20FCF768FA0A21B1
:104450002920FCF764FA4FF49F711220FCF75FFAF1
:1044600000215020FCF75BFAEF215120FCF757FAAE
:1044700000215220FCF753FA40F23F115320FCF781
:104480004EFA4FF41C516020FCF749FA01216120DB
:10449000FCF745FA00216A20FCF741FA0021802050
:1044A000FCF73DFA00218120FCF739FA0021822037
:1044B000FCF735FA00218320FCF731FA0021842033
:1044C000FCF72DFA00218520FCF729FA1321902012
:1044D000FCF725FA4FF440719220FCF720FA0521F1
:1044E0009320FCF71CFA00219520FCF718FA002114
:1044F0009720FCF714FA00219820FCF710FA4FF4EB
:1045000080710120FCF70BFA4FF4E0610220FCF708
:1045100006FA41F238010320FCF701FA00210420D9
:10452000FCF7FDF900210C20FCF7F9F900210F2020
:10453000FCF7F5F900212020FCF7F1F900212120FA
:10454000FCF7EDF921210720FCF7E9F9142006F02A
:10455000F0FE61210720FCF7E2F9142006F0E9FEE5
:1045600040F273110720FCF7DAF9142006F0E1FE9F
:1045700095E4FE4880884BF2055188427ED10021A7
:104580000846FCF7CCF900210846FCF7C8F90021E1
:104590000846FCF7C4F900210846FCF7C0F90121E0
:1045A000A420FCF7BCF9142006F0C3FE4FF41C5104
:1045B0006020FCF7B4F940F202210820FCF7AFF9C3
:1045C0004FF405713020FCF7AAF943F21571312040
:1045D000FCF7A5F940F204613220FCF7A0F940F69F
:1045E00016613320FCF79BF942F211213420FCF7CD
:1045F00096F94FF4A8513520FCF791F948F207518C
:104600003620FCF78CF941F207413720FCF787F997
:1046100041F203413820FCF782F920213920FCF7D0
:104620007EF91A219020FCF77AF900211020FCF77E
:1046300076F907211120FCF772F900211220FCF70E
:104640006EF900211320FCF76AF9142006F071FEC0
:104650004FF4E6611020FCF762F940F237111120A7
:10466000FCF75DF9142006F064FE4FF4DC711220B3
:10467000FCF755F9142006F05CFE00E083E04FF4EF
:1046800070611320FCF74BF980212A20FCF747F9D1
:1046900048212920FCF743F9142006F04AFE4FF484
:1046A00080710120FCF73BF94FF4E0610220FCF738
:1046B00036F941F238010320FCF731F940F20221CA
:1046C0000820FCF72CF900210A20FCF728F900212A
:1046D0000C20FCF724F900210D20FCF720F93021F3
:1046E0000E20FCF71CF900215020FCF718F9EF21EF
:1046F0005120FCF714F900215220FCF710F940F288
:104700003F115320FCF70BF94FF41C516020FCF7CC
:1047100006F901216120FCF702F900216A20FCF76B
:10472000FEF811219020FCF7FAF84FF4C0619220B6
:10473000FCF7F5F840F202419320FCF7F0F8022173
:104740009420FCF7ECF8142006F0F3FD012107207B
:10475000FCF7E5F8142006F0ECFD61210720FCF7DA
:10476000DEF840F273110720FCF7D9F80021202071
:10477000FCF7D5F800212120FCF7D1F822210020F8
:10478000FCF7CDF80EE3794880884CF20551884259
:104790007ED100210846FCF7C2F800210846FCF74C
:1047A000BEF8142006F0C5FD00210846FCF7B7F856
:1047B00000210846FCF7B3F800210846FCF7AFF8E3
:1047C00000210846FCF7ABF80121A420FCF7A7F86C
:1047D000142006F0AEFD4FF41C516020FCF79FF84A
:1047E00040F606010820FCF79AF840F203713020E9
:1047F000FCF795F801213120FCF791F804213220D3
:10480000FCF78DF84FF481713320FCF788F84FF4F2
:1048100040713420FCF783F840F203113520FCF797
:104820007EF81F213620FCF77AF840F2037137201A
:10483000FCF775F801213820FCF771F804213920C4
:10484000FCF76DF815219020FCF769F84FF48261B0
:104850001020FCF764F840F247211120FCF75FF8C4
:104860004FF4DE711220FCF75AF84FF46061132008
:10487000FCF755F8782006F05CFD4FF480710120BC
:10488000FCF74DF84FF400710220FCF748F800E007
:1048900050E041F230010320FCF741F808210A20E2
:1048A000FCF73DF800210C20FCF739F820210E2000
:1048B000FCF735F800210F20FCF731F8002120200B
:1048C000FCF72DF800212120FCF729F83D212A20B2
:1048D000FCF725F8142006F02CFD2D212920FCF7EB
:1048E0001EF800215020FCF71AF84DF2EF0151207C
:1048F000FCF715F800215220FCF711F840F23F11A7
:104900005320FCF70CF800216120FCF708F8002187
:104910006A20FCF704F84FF440719220FBF7FFFF88
:1049200005219320FBF7FBFF4FF480710720FBF775
:10493000F6FF37E20D48808844F2315188427CD13D
:1049400001210020FBF7EBFF0A2006F0F2FC41F208
:1049500028611020FBF7E3FF0E211220FBF7DFFF99
:1049600040F639211320FBF7DAFF01E04C26002046
:104970000A2006F0DEFC40211120FBF7D0FF502179
:104980001520FBF7CCFF0A2006F0D3FC1E211220D5
:10499000FBF7C5FF0A2006F0CCFC4FF4B151102004
:1049A000FBF7BDFF42F639211320FBF7B8FF0A20C1
:1049B00006F0BFFC4FF480710120FBF7B0FF4FF40D
:1049C00040710220FBF7ABFF41F238010320FBF7F7
:1049D000A6FF40F202210820FBF7A1FF08210A20D0
:1049E000FBF79DFF00213020FBF799FF40F20241C9
:1049F0003120FBF794FF4FF483713220FBF78FFFD8
:104A000040F203513320FBF78AFF4FF482713420C8
:104A1000FBF785FF40F201313520FBF780FF40F2C4
:104A200007713620FBF77BFF40F205313720FBF79B
:104A300076FF4FF40271382000E040E0FBF76FFF93
:104A400040F60B713920FBF76AFF02214120FBF78A
:104A500066FF4FF41C516020FBF761FF01216120CC
:104A6000FBF75DFF4FF404719020FBF758FF4FF404
:104A700085719220FBF753FF04219320FBF74FFF32
:104A80004FF48071A020FBF74AFF01210720FBF7BC
:104A900046FF21210720FBF742FF23210720FBF7D8
:104AA0003EFF33210720FBF73AFF40F23311072086
:104AB000FBF735FF0021A020FBF731FF72E1FA4838
:104AC000808844F2355188427ED130211520FBF791
:104AD00026FF10219A20FBF722FF20211120FBF74F
:104AE0001EFF43F228411020FBF719FF022112207C
:104AF000FBF715FF41F238011320FBF710FF2820C8
:104B000006F017FC12210846FBF709FF282006F0E3
:104B100010FC43F220411020FBF701FF43F2380163
:104B20001320FBF7FCFE462006F003FC002130209A
:104B3000FBF7F5FE40F202413120FBF7F0FE40F2B8
:104B400007313220FBF7EBFE4FF441713320FBF7C6
:104B5000E6FE04213420FBF7E2FE40F2014135205D
:104B6000FBF7DDFE40F207713620FBF7D8FE40F27E
:104B700005313720FBF7D3FE4FF4C2613820FBF735
:104B8000CEFE4FF4C2613920FBF7C9FE4FF48071AD
:104B90000120FBF7C4FE4FF440710220FBF7BFFE7B
:104BA00041F230010320FBF7BAFE40F6080108206D
:104BB000FBF7B5FE08210A20FBF7B1FE4FF41C51AC
:104BC0006020FBF7ACFE00E031E001216120FBF743
:104BD000A6FE4FF49F719020FBF7A1FE4FF4807169
:104BE0009220FBF79CFE4FF480719320FBF797FE19
:104BF0004FF44051A020FBF792FE1021A320FBF7B9
:104C00008EFE01210720FBF78AFE21210720FBF7FA
:104C100086FE23210720FBF782FE33210720FBF7C6
:104C20007EFE40F233110720FBF779FEBAE09E4882
:104C3000808841F663118842F8D1E220FBF760FEDC
:104C40002320FBF760FE0220FBF75DFE0420FBF74C
:104C50005AFE642006F042FBE020FBF751FE0120E3
:104C6000FBF751FE0A2006F064FBE020FBF748FE4C
:104C70000320FBF748FE0C2006F05BFB0120FBF74E
:104C80003FFE0A2006F055FBE620FBF739FE032025
:104C9000FBF739FEFF20FBF736FEFF20FBF733FE64
:104CA000B020FBF72DFE2020FBF72DFE0020FBF7A8
:104CB0002AFE0320FBF727FE40F21F30FBF723FEFE
:104CC0000120FBF720FE40F2DF10FBF71CFE002066
:104CD000FBF719FEB420FBF713FE0420FBF713FECD
:104CE00040F21F40FBF70FFE0020FBF70CFED22026
:104CF000FBF709FE0020FBF706FE0020FBF703FE92
:104D00000020FBF700FE0020FBF7FDFDB620FBF7BF
:104D1000F7FD0220FBF7F7FD4FF40370FBF7F3FDFF
:104D20000020FBF7F0FD2220FBF7EDFD0920FBF74B
:104D3000EAFD0020FBF7E7FD0020FBF7E4FDF02093
:104D4000FBF7DEFD0320FBF7DEFD2920FBF7D8FD96
:104D5000D020FBF7D5FD0020FBF7D5FDBE20FBF7EB
:104D6000CFFD0520FBF7CFFDFE20FBF7CCFD01209A
:104D7000FBF7C9FDFF20FBF7C6FD0020FBF7C3FDD5
:104D8000B820FBF7BDFD0F20FBF7BDFD0120FBF7B1
:104D9000BAFDBA20FBF7B4FD0120FBF7B4FD642097
:104DA000FCF711FA0020FCF736FA01203F490860B1
:104DB0004FF6FF70FCF71BFC1FB000BD2DE9FC4F48
:104DC00005460E4617469846DDF82C9000200190C7
:104DD0003548808846F60401884229D132488079D6
:104DE000012825D1AB4635462F480088C01B401E00
:104DF00086B247462C480088A0EB0B00401E1FFAE5
:104E000080F80020284988712A2048812B20888139
:104E100043463A4631462846CDF80090FFF7CEFF8C
:104E20000120214988712B2048812A2088811CE09B
:104E3000781B401C80B20190344614E0214628467D
:104E4000FBF79AFDFBF77BFD4FF0000A06E01848E0
:104E5000A0F800900AF101001FFA80FA019882453B
:104E6000F5DB601C84B24445E8DDBDE8FC8F2DE92C
:104E7000F84F07460D4690469946DDF828B0A8EB56
:104E80000700401C1FFA80FAA9EB0500401C80B205
:104E9000009000241AE0281981B23846FBF76CFD17
:104EA000FBF74DFD00260DE04C260020B08121428D
:104EB0000008006C04FB0A603BF81000F74908800A
:104EC000701C86B25645F5DB601C84B200988442A3
:104ED000E1DBBDE8F88F2DE9FF4F84B081468A46BB
:104EE0000020039002900698A0EB09050798A0EB1C
:104EF0000A06CDF80490CDF800A0002D01DD0127B1
:104F000005E00DB9002702E04FF0FF376D42002E9B
:104F100002DD4FF0010806E016B94FF0000802E08C
:104F20004FF0FF387642B54201DD2C4600E03446B2
:104F30004FF0000B21E0009A91B2019A90B2FCF779
:104F400074F8039828440390029830440290039820
:104F5000A04205DD0398001B03900198384401909E
:104F60000298A04205DD0298001B02900098404480
:104F700000900BF101001FFA80FB601C8345DADD15
:104F800008B0BDE8F08FF0B504460D4616461F4642
:104F90002B46324629462046FFF79DFF3B462246D8
:104FA00029462046FFF797FF3B46324639462046C2
:104FB000FFF791FF3B46324629463046FFF78BFF0D
:104FC000F0BD2DE9F04306460F46904600244546C5
:104FD0000320A0EB48093CE07A1B91B2321990B251
:104FE000FCF723F83A1B91B2721990B2FCF71DF846
:104FF0003A1991B2721990B2FCF717F87A1991B276
:10500000321990B2FCF711F87A1991B2321B90B2B2
:10501000FCF70BF83A1991B2721B90B2FCF705F845
:105020007A1B91B2321B90B2FBF7FFFF3A1B91B291
:10503000721B90B2FBF7F9FF641CB9F1000F03DAA1
:10504000A000801D814404E0601B80000A30814480
:105050006D1EAC42C0DDBDE8F0832DE9F84F8046FF
:105060000E4617461C46B3462046E31704EB53731F
:10507000DB1021464FEAE47C04EB5C7C4FEAEC0C4D
:10508000A4EBCC0CBCF1000F02D04FF0010C01E0FE
:105090004FF0000C6344224604EBD27C4FEA6C0CC8
:1050A00003FB0CF3DBB20093A7F12000C7B200258D
:1050B00056E00C2C07D107EB4700794901EB800043
:1050C00010F8059013E0102C05D1764800EB07107E
:1050D00010F805900BE0182C07D107EBC7007249B8
:1050E00001EB800010F8059001E0BDE8F88F4FF06B
:1050F000000A2FE009F0800030B16C480288314688
:105100004046FBF7A0FF07E00A9828B968480288E4
:1051100031464046FBF797FF4FEA49604FEA106976
:10512000701C86B263484088B04200DCDDE7A6EB25
:105130000B00A0420AD15E4608F101001FFA80F878
:105140005C480088404500DCCFE706E00AF101003A
:1051500000F0FF0ABAF1080FCCDB00BF681CC5B233
:1051600000988542A5DB00BFBFE710B502460120CD
:1051700000E050430B1EA1F10104E1B2F9D110BDD2
:105180002DE9FF4F81B0074691461E460E9D4FF018
:10519000000A002439E0301B401EC1B20A20FFF78C
:1051A000E4FFB9FBF0F00A21B0FBF1F201FB1208B9
:1051B000BAF1000F16D1701EA04213DDB8F1000F36
:1051C0000ED10020AB4605EBDB71491001FB0471E9
:1051D000009088B22B4620220299FFF73EFF12E092
:1051E0004FF0010A0020AB4605EBDB71491001FBD3
:1051F0000471009088B208F13001CAB22B460299BE
:10520000FFF72BFF00BF601CC4B2B442C3DB05B084
:10521000BDE8F08F2DE9FF4F82B0064692461F464B
:10522000DDE90F480020019000255CE0781B401E5E
:10523000C1B20A20FFF799FFBAFBF0F00A21B0FBD8
:10524000F1F201FB12090198B0BB781EA84236DDCD
:10525000B9F1000F31D108F0800078B108F00100F9
:10526000A34604EBDB71491001FB0561009088B295
:10527000234630220399FFF7F0FE0EE008F001000C
:10528000A34604EBDB71491001FB0561009088B275
:10529000234620220399FFF7E0FE22E00008006C7D
:1052A000FAF502086EFA02085E00030816000020F4
:1052B000180000204C26002001E00120019008F099
:1052C0000100A34604EBDB71491001FB056100906E
:1052D00088B209F13001CAB223460399FFF7BDFE37
:1052E00000BF681CC5B2BD42A0DB06B0BDE8F08FB0
:1052F0002DE9F84704460D4690469946DDE90967D1
:1053000004F0FF0A08EB04001FFA80F809EB05001F
:105310001FFA80F916E0444502DB5446A81985B20D
:105320004D4500DB14E0002000903A7833462946D2
:105330002046FFF792FE304606EBD07104EB610188
:105340008CB27F1C38787E2802DC38782028E2DA9C
:1053500000BFBDE8F88700006248406940F48070F3
:10536000604948610846806940F02000886108462D
:10537000806940F0400088610846806940F0800004
:1053800088610846806940F48070886156480068EA
:105390000020554908600846006840F0BB300860AE
:1053A000081F006800F0FF20091F08600846006819
:1053B00040F0BB1008604D48006800204B49086071
:1053C0000846006840F0BB300860081F0068484984
:1053D00008404649091F08600846006845490843D7
:1053E0004249091F08604448006880B24249086089
:1053F00008460068414908433F490860081F0068A3
:1054000000F07F40091F0860084600683C490843D7
:105410003949091F08603B48406820F470603949E9
:1054200048600846406840F43060486008460068BC
:1054300000F07F4008600846006831490843314960
:10544000086000204FF02041086148612E49086043
:10545000C806006940F48050C90608610846006922
:1054600040F0100008610846406940F4407048610F
:105470000846406948610846406948616FF07040DD
:10548000C1F814010846006940F001000861704746
:1054900010B506E004784FF0D0435C54491C401C22
:1054A000521E002AF6D110BD06E04FF0D0435B5CDF
:1054B00000F8013B491C521E002AF6D1704713B573
:1054C00004460122214601A8FFF7E2FF1CBD18B5E2
:1054D0000446012221466846FFF7E6FF9DF80000DA
:1054E00018BD0000001002400414014004180140DF
:1054F00000FFFF0FBB0000B0041C01400000BBBB5D
:10550000BBBBBB0000200140140100A008B5012175
:10551000082006F0B1FFC020ADF8000010208DF883
:10552000030003208DF802006946904806F0E8FC6D
:10553000C0218E4806F091FD08BD10B58B4800686B
:1055400020F07040894908600846006840F04050EB
:1055500008600120864908608649C1F89801042046
:1055600005F0BCFE002082490860042005F0B6FE6C
:1055700000208049C1F8980110BD10B57B48006833
:1055800020F07040794908600846006840F04050BB
:10559000086000207649091F08607649C1F89C011F
:1055A000042005F09BFE01207149091F0860714924
:1055B000C1F89C01042005F091FE10BD10B5002437
:1055C0006A48006820F07040684908600846006832
:1055D00040F00040086001206549086005F07EFE4B
:1055E00001206449C1F8980105F078FE07E0601CCD
:1055F000C4B2FA2C03DDFFF7C0FF012010BD5C48E8
:10560000803800680028F2D15949091F086000BF9E
:10561000F4E710B500205649091F08605348006898
:1056200020F07040514908600846006840F0405042
:10563000086000204F49C1F89C01022005F04EFE91
:1056400001204B49091F0860022005F047FE002099
:105650004849C1F8980110BD10B500204449091F00
:1056600008604248006820F07040404908600846E1
:10567000006840F04050086001203E49C1F89C019C
:10568000022005F02BFE01203949091F0860022085
:1056900005F024FE00203749C1F8980110BD70B50F
:1056A00004463248006820F07040304908600846DF
:1056B000006840F04050086000202D49091F086034
:1056C00000251DE0E00918B101202949086002E029
:1056D0000020274908606006040E022005F0FEFD48
:1056E00001202349091F0860022005F0F7FD002072
:1056F0002049C1F89801022005F0F0FD681CC5B2F0
:10570000082DDFDB70BD70B5054600241748006822
:1057100020F07040154908600846006840F00040DD
:105720000860002617E000201149091F08600220C8
:1057300005F0D4FD01200F49C1F898016006040E60
:105740000B488038006808B1601CC4B2012005F025
:10575000C5FD701CC6B2082EE5DB15B9FFF77CFF4E
:1057600001E0FFF756FF204670BD0000000C01402D
:105770009C8121420080214210B5FFF7C7FE10BD79
:1057800070B504460026FFF7D8FE2546E11704EB66
:1057900011610912A02202EB4101C8B2FFF77FFF9D
:1057A000FFF70CFFE11704EB11610912A4EB0121D3
:1057B000C8B2FFF774FFFFF701FFFFF7BEFEA1209D
:1057C000FFF76DFFFFF7FAFE0020FFF79CFF06468C
:1057D000FFF7D3FE304670BD70B504460E46FFF7A6
:1057E000ACFE2546E11704EB11610912A02202EB81
:1057F0004101C8B2FFF753FFFFF7E0FEE11704EBEA
:1058000011610912A4EB0121C8B2FFF748FFFFF7AD
:10581000D5FE3046FFF743FFFFF7D0FEFFF7ADFEA2
:105820000A2005F086FD70BD2DE9F04105460E46C3
:105830001746002409E0E20026FA02F2D1B22A1942
:1058400090B2FFF7C9FF601CC4B2BC42F3DBBDE8F5
:10585000F0812DE9F04107460C460026002509E0BD
:1058600036023919491B491E88B2FFF789FF0644E1
:10587000681CC5B2A542F3DB3046BDE8F08110B527
:10588000FF20FFF77DFF0446552C01D1002010BDFD
:105890005521FF20FFF7A0FFFF20FFF771FF04460F
:1058A000552C01D10020F2E70120F0E770B5064643
:1058B0000C46154608E03046721C96B2FFF760FFB2
:1058C00004F8010B681E85B2002DF4D170BD70B5CF
:1058D00005460C46164606E021782846FFF77CFF71
:1058E000681C85B2641C301EA6F101018EB2F3D192
:1058F00070BD000070B50546002405E0601CC4B210
:10590000C82C01DD002070BD0221374806F067FF7A
:105910000028F3D02946344806F00EFF002405E0A5
:10592000601CC4B2C82C01DD0020ECE701212E4828
:1059300006F055FF0028F3D02B4806F0FFFEC0B25A
:10594000E1E700B587B0012141F2040006F094FDC3
:10595000E020ADF8180018208DF81B0003208DF80A
:105960001A0006A9214806F0CBFAE0211F4806F0EC
:1059700074FB0020ADF804004FF48270ADF806000F
:105980000020ADF808000220ADF80A000120ADF8B3
:105990000C004002ADF80E001820ADF810000020F9
:1059A000ADF812000720ADF8140001A90E4806F06A
:1059B000EDFD01210C4806F08EFEFF20FFF79AFF57
:1059C00007B000BD10B50446074800884FF6C77100
:1059D00008400549088008460088204308800121C6
:1059E000014806F078FE10BD00300140000801407B
:1059F00010B5052005F072FC10BD08B50121082086
:105A000006F03AFD4FF42040ADF8000010208DF86C
:105A1000030003208DF8020069467E4806F070FA04
:105A20004FF420417B4806F018FB08BD10B57948BB
:105A3000001D006800F040507649091D08600120F3
:105A4000754908607549C1F8B4011E2005F046FC8F
:105A5000002071490860FFF7CBFF00206F49C1F8B3
:105A6000B40110BD10B56B48001D006800F0405037
:105A70006849091D086001206749083908601E202F
:105A800005F02CFC00206549C1F8BC01FFF7B0FF10
:105A900001206149086010BD10B500245D48001D5B
:105AA000006800F000405B49091D086001205A4968
:105AB00008605A49C1F8B401FFF79AFF09E0601C79
:105AC000C4B2FA2C03DDFFF7CDFF012010BDFFF7B4
:105AD0008FFF5148803800680028F0D14E490839BE
